{
  "_format": "hh-sol-artifact-1",
  "contractName": "QVImpactStreamStrategy",
  "sourceName": "contracts/strategies/_poc/qv-impact-stream/QVImpactStreamStrategy.sol",
  "abi": [
    {
      "inputs": [
        {
          "internalType": "address",
          "name": "_allo",
          "type": "address"
        },
        {
          "internalType": "string",
          "name": "_name",
          "type": "string"
        }
      ],
      "stateMutability": "nonpayable",
      "type": "constructor"
    },
    {
      "inputs": [],
      "name": "ALLOCATION_ACTIVE",
      "type": "error"
    },
    {
      "inputs": [],
      "name": "ALLOCATION_NOT_ACTIVE",
      "type": "error"
    },
    {
      "inputs": [],
      "name": "ALLOCATION_NOT_ENDED",
      "type": "error"
    },
    {
      "inputs": [],
      "name": "ALREADY_INITIALIZED",
      "type": "error"
    },
    {
      "inputs": [],
      "name": "AMOUNT_MISMATCH",
      "type": "error"
    },
    {
      "inputs": [],
      "name": "ANCHOR_ERROR",
      "type": "error"
    },
    {
      "inputs": [],
      "name": "ARRAY_MISMATCH",
      "type": "error"
    },
    {
      "inputs": [],
      "name": "INVALID",
      "type": "error"
    },
    {
      "inputs": [],
      "name": "INVALID_ADDRESS",
      "type": "error"
    },
    {
      "inputs": [],
      "name": "INVALID_FEE",
      "type": "error"
    },
    {
      "inputs": [],
      "name": "INVALID_METADATA",
      "type": "error"
    },
    {
      "inputs": [],
      "name": "INVALID_REGISTRATION",
      "type": "error"
    },
    {
      "inputs": [],
      "name": "IS_APPROVED_STRATEGY",
      "type": "error"
    },
    {
      "inputs": [],
      "name": "MISMATCH",
      "type": "error"
    },
    {
      "inputs": [],
      "name": "NONCE_NOT_AVAILABLE",
      "type": "error"
    },
    {
      "inputs": [],
      "name": "NOT_APPROVED_STRATEGY",
      "type": "error"
    },
    {
      "inputs": [],
      "name": "NOT_ENOUGH_FUNDS",
      "type": "error"
    },
    {
      "inputs": [],
      "name": "NOT_INITIALIZED",
      "type": "error"
    },
    {
      "inputs": [],
      "name": "NOT_PENDING_OWNER",
      "type": "error"
    },
    {
      "inputs": [],
      "name": "POOL_ACTIVE",
      "type": "error"
    },
    {
      "inputs": [],
      "name": "POOL_INACTIVE",
      "type": "error"
    },
    {
      "inputs": [],
      "name": "RECIPIENT_ALREADY_ACCEPTED",
      "type": "error"
    },
    {
      "inputs": [
        {
          "internalType": "address",
          "name": "recipientId",
          "type": "address"
        }
      ],
      "name": "RECIPIENT_ERROR",
      "type": "error"
    },
    {
      "inputs": [],
      "name": "RECIPIENT_NOT_ACCEPTED",
      "type": "error"
    },
    {
      "inputs": [],
      "name": "REGISTRATION_NOT_ACTIVE",
      "type": "error"
    },
    {
      "inputs": [],
      "name": "UNAUTHORIZED",
      "type": "error"
    },
    {
      "inputs": [],
      "name": "ZERO_ADDRESS",
      "type": "error"
    },
    {
      "anonymous": false,
      "inputs": [
        {
          "indexed": true,
          "internalType": "address",
          "name": "recipientId",
          "type": "address"
        },
        {
          "indexed": false,
          "internalType": "uint256",
          "name": "votes",
          "type": "uint256"
        },
        {
          "indexed": false,
          "internalType": "address",
          "name": "allocator",
          "type": "address"
        }
      ],
      "name": "Allocated",
      "type": "event"
    },
    {
      "anonymous": false,
      "inputs": [
        {
          "indexed": true,
          "internalType": "address",
          "name": "recipientId",
          "type": "address"
        },
        {
          "indexed": false,
          "internalType": "uint256",
          "name": "amount",
          "type": "uint256"
        },
        {
          "indexed": false,
          "internalType": "address",
          "name": "token",
          "type": "address"
        },
        {
          "indexed": false,
          "internalType": "address",
          "name": "sender",
          "type": "address"
        }
      ],
      "name": "Allocated",
      "type": "event"
    },
    {
      "anonymous": false,
      "inputs": [
        {
          "indexed": true,
          "internalType": "address",
          "name": "allocator",
          "type": "address"
        },
        {
          "indexed": false,
          "internalType": "address",
          "name": "sender",
          "type": "address"
        }
      ],
      "name": "AllocatorAdded",
      "type": "event"
    },
    {
      "anonymous": false,
      "inputs": [
        {
          "indexed": true,
          "internalType": "address",
          "name": "allocator",
          "type": "address"
        },
        {
          "indexed": false,
          "internalType": "address",
          "name": "sender",
          "type": "address"
        }
      ],
      "name": "AllocatorRemoved",
      "type": "event"
    },
    {
      "anonymous": false,
      "inputs": [
        {
          "indexed": true,
          "internalType": "address",
          "name": "recipientId",
          "type": "address"
        },
        {
          "indexed": false,
          "internalType": "address",
          "name": "recipientAddress",
          "type": "address"
        },
        {
          "indexed": false,
          "internalType": "uint256",
          "name": "amount",
          "type": "uint256"
        },
        {
          "indexed": false,
          "internalType": "address",
          "name": "sender",
          "type": "address"
        }
      ],
      "name": "Distributed",
      "type": "event"
    },
    {
      "anonymous": false,
      "inputs": [
        {
          "indexed": false,
          "internalType": "uint256",
          "name": "poolId",
          "type": "uint256"
        },
        {
          "indexed": false,
          "internalType": "bytes",
          "name": "data",
          "type": "bytes"
        }
      ],
      "name": "Initialized",
      "type": "event"
    },
    {
      "anonymous": false,
      "inputs": [
        {
          "components": [
            {
              "internalType": "address",
              "name": "recipientId",
              "type": "address"
            },
            {
              "internalType": "uint256",
              "name": "amount",
              "type": "uint256"
            }
          ],
          "indexed": false,
          "internalType": "struct QVImpactStreamStrategy.Payout[]",
          "name": "payouts",
          "type": "tuple[]"
        },
        {
          "indexed": false,
          "internalType": "address",
          "name": "sender",
          "type": "address"
        }
      ],
      "name": "PayoutSet",
      "type": "event"
    },
    {
      "anonymous": false,
      "inputs": [
        {
          "indexed": false,
          "internalType": "bool",
          "name": "active",
          "type": "bool"
        }
      ],
      "name": "PoolActive",
      "type": "event"
    },
    {
      "anonymous": false,
      "inputs": [
        {
          "indexed": true,
          "internalType": "address",
          "name": "recipientId",
          "type": "address"
        },
        {
          "indexed": false,
          "internalType": "bytes",
          "name": "data",
          "type": "bytes"
        },
        {
          "indexed": false,
          "internalType": "address",
          "name": "sender",
          "type": "address"
        }
      ],
      "name": "Registered",
      "type": "event"
    },
    {
      "anonymous": false,
      "inputs": [
        {
          "indexed": false,
          "internalType": "uint64",
          "name": "allocationStartTime",
          "type": "uint64"
        },
        {
          "indexed": false,
          "internalType": "uint64",
          "name": "allocationEndTime",
          "type": "uint64"
        },
        {
          "indexed": false,
          "internalType": "address",
          "name": "sender",
          "type": "address"
        }
      ],
      "name": "TimestampsUpdated",
      "type": "event"
    },
    {
      "anonymous": false,
      "inputs": [
        {
          "indexed": true,
          "internalType": "address",
          "name": "recipientId",
          "type": "address"
        },
        {
          "indexed": false,
          "internalType": "bytes",
          "name": "data",
          "type": "bytes"
        },
        {
          "indexed": false,
          "internalType": "address",
          "name": "sender",
          "type": "address"
        }
      ],
      "name": "UpdatedRegistration",
      "type": "event"
    },
    {
      "inputs": [],
      "name": "NATIVE",
      "outputs": [
        {
          "internalType": "address",
          "name": "",
          "type": "address"
        }
      ],
      "stateMutability": "view",
      "type": "function"
    },
    {
      "inputs": [
        {
          "internalType": "address",
          "name": "_allocator",
          "type": "address"
        }
      ],
      "name": "addAllocator",
      "outputs": [],
      "stateMutability": "nonpayable",
      "type": "function"
    },
    {
      "inputs": [
        {
          "internalType": "bytes",
          "name": "_data",
          "type": "bytes"
        },
        {
          "internalType": "address",
          "name": "_sender",
          "type": "address"
        }
      ],
      "name": "allocate",
      "outputs": [],
      "stateMutability": "payable",
      "type": "function"
    },
    {
      "inputs": [],
      "name": "allocationEndTime",
      "outputs": [
        {
          "internalType": "uint64",
          "name": "",
          "type": "uint64"
        }
      ],
      "stateMutability": "view",
      "type": "function"
    },
    {
      "inputs": [],
      "name": "allocationStartTime",
      "outputs": [
        {
          "internalType": "uint64",
          "name": "",
          "type": "uint64"
        }
      ],
      "stateMutability": "view",
      "type": "function"
    },
    {
      "inputs": [
        {
          "internalType": "address",
          "name": "",
          "type": "address"
        }
      ],
      "name": "allocators",
      "outputs": [
        {
          "internalType": "uint256",
          "name": "usedVoiceCredits",
          "type": "uint256"
        }
      ],
      "stateMutability": "view",
      "type": "function"
    },
    {
      "inputs": [
        {
          "internalType": "address",
          "name": "",
          "type": "address"
        }
      ],
      "name": "allowedAllocators",
      "outputs": [
        {
          "internalType": "bool",
          "name": "",
          "type": "bool"
        }
      ],
      "stateMutability": "view",
      "type": "function"
    },
    {
      "inputs": [
        {
          "internalType": "address[]",
          "name": "_allocators",
          "type": "address[]"
        }
      ],
      "name": "batchAddAllocator",
      "outputs": [],
      "stateMutability": "nonpayable",
      "type": "function"
    },
    {
      "inputs": [
        {
          "internalType": "address[]",
          "name": "_allocators",
          "type": "address[]"
        }
      ],
      "name": "batchRemoveAllocator",
      "outputs": [],
      "stateMutability": "nonpayable",
      "type": "function"
    },
    {
      "inputs": [
        {
          "internalType": "address[]",
          "name": "_recipientIds",
          "type": "address[]"
        },
        {
          "internalType": "bytes",
          "name": "_data",
          "type": "bytes"
        },
        {
          "internalType": "address",
          "name": "_sender",
          "type": "address"
        }
      ],
      "name": "distribute",
      "outputs": [],
      "stateMutability": "nonpayable",
      "type": "function"
    },
    {
      "inputs": [],
      "name": "getAllo",
      "outputs": [
        {
          "internalType": "contract IAllo",
          "name": "",
          "type": "address"
        }
      ],
      "stateMutability": "view",
      "type": "function"
    },
    {
      "inputs": [
        {
          "internalType": "address[]",
          "name": "_recipientIds",
          "type": "address[]"
        },
        {
          "internalType": "bytes[]",
          "name": "_data",
          "type": "bytes[]"
        }
      ],
      "name": "getPayouts",
      "outputs": [
        {
          "components": [
            {
              "internalType": "address",
              "name": "recipientAddress",
              "type": "address"
            },
            {
              "internalType": "uint256",
              "name": "amount",
              "type": "uint256"
            }
          ],
          "internalType": "struct IStrategy.PayoutSummary[]",
          "name": "",
          "type": "tuple[]"
        }
      ],
      "stateMutability": "view",
      "type": "function"
    },
    {
      "inputs": [],
      "name": "getPoolAmount",
      "outputs": [
        {
          "internalType": "uint256",
          "name": "",
          "type": "uint256"
        }
      ],
      "stateMutability": "view",
      "type": "function"
    },
    {
      "inputs": [],
      "name": "getPoolId",
      "outputs": [
        {
          "internalType": "uint256",
          "name": "",
          "type": "uint256"
        }
      ],
      "stateMutability": "view",
      "type": "function"
    },
    {
      "inputs": [
        {
          "internalType": "address",
          "name": "_recipientId",
          "type": "address"
        }
      ],
      "name": "getRecipient",
      "outputs": [
        {
          "components": [
            {
              "internalType": "bool",
              "name": "useRegistryAnchor",
              "type": "bool"
            },
            {
              "internalType": "bool",
              "name": "metadataRequired",
              "type": "bool"
            },
            {
              "internalType": "uint256",
              "name": "totalVotesReceived",
              "type": "uint256"
            },
            {
              "internalType": "uint256",
              "name": "requestedAmount",
              "type": "uint256"
            },
            {
              "internalType": "address",
              "name": "recipientAddress",
              "type": "address"
            },
            {
              "components": [
                {
                  "internalType": "uint256",
                  "name": "protocol",
                  "type": "uint256"
                },
                {
                  "internalType": "string",
                  "name": "pointer",
                  "type": "string"
                }
              ],
              "internalType": "struct Metadata",
              "name": "metadata",
              "type": "tuple"
            },
            {
              "internalType": "enum IStrategy.Status",
              "name": "recipientStatus",
              "type": "uint8"
            }
          ],
          "internalType": "struct QVImpactStreamStrategy.Recipient",
          "name": "",
          "type": "tuple"
        }
      ],
      "stateMutability": "view",
      "type": "function"
    },
    {
      "inputs": [
        {
          "internalType": "address",
          "name": "_recipientId",
          "type": "address"
        }
      ],
      "name": "getRecipientStatus",
      "outputs": [
        {
          "internalType": "enum IStrategy.Status",
          "name": "",
          "type": "uint8"
        }
      ],
      "stateMutability": "view",
      "type": "function"
    },
    {
      "inputs": [],
      "name": "getStrategyId",
      "outputs": [
        {
          "internalType": "bytes32",
          "name": "",
          "type": "bytes32"
        }
      ],
      "stateMutability": "view",
      "type": "function"
    },
    {
      "inputs": [
        {
          "internalType": "address",
          "name": "_recipientId",
          "type": "address"
        }
      ],
      "name": "getTotalVotesForRecipient",
      "outputs": [
        {
          "internalType": "uint256",
          "name": "",
          "type": "uint256"
        }
      ],
      "stateMutability": "view",
      "type": "function"
    },
    {
      "inputs": [
        {
          "internalType": "address",
          "name": "_allocator",
          "type": "address"
        }
      ],
      "name": "getVoiceCreditsCastByAllocator",
      "outputs": [
        {
          "internalType": "uint256",
          "name": "",
          "type": "uint256"
        }
      ],
      "stateMutability": "view",
      "type": "function"
    },
    {
      "inputs": [
        {
          "internalType": "address",
          "name": "_allocator",
          "type": "address"
        },
        {
          "internalType": "address",
          "name": "_recipientId",
          "type": "address"
        }
      ],
      "name": "getVoiceCreditsCastByAllocatorToRecipient",
      "outputs": [
        {
          "internalType": "uint256",
          "name": "",
          "type": "uint256"
        }
      ],
      "stateMutability": "view",
      "type": "function"
    },
    {
      "inputs": [
        {
          "internalType": "address",
          "name": "_allocator",
          "type": "address"
        },
        {
          "internalType": "address",
          "name": "_recipientId",
          "type": "address"
        }
      ],
      "name": "getVotesCastByAllocatorToRecipient",
      "outputs": [
        {
          "internalType": "uint256",
          "name": "",
          "type": "uint256"
        }
      ],
      "stateMutability": "view",
      "type": "function"
    },
    {
      "inputs": [
        {
          "internalType": "uint256",
          "name": "_amount",
          "type": "uint256"
        }
      ],
      "name": "increasePoolAmount",
      "outputs": [],
      "stateMutability": "nonpayable",
      "type": "function"
    },
    {
      "inputs": [
        {
          "internalType": "uint256",
          "name": "_poolId",
          "type": "uint256"
        },
        {
          "internalType": "bytes",
          "name": "_data",
          "type": "bytes"
        }
      ],
      "name": "initialize",
      "outputs": [],
      "stateMutability": "nonpayable",
      "type": "function"
    },
    {
      "inputs": [],
      "name": "isPoolActive",
      "outputs": [
        {
          "internalType": "bool",
          "name": "",
          "type": "bool"
        }
      ],
      "stateMutability": "view",
      "type": "function"
    },
    {
      "inputs": [
        {
          "internalType": "address",
          "name": "_allocator",
          "type": "address"
        }
      ],
      "name": "isValidAllocator",
      "outputs": [
        {
          "internalType": "bool",
          "name": "",
          "type": "bool"
        }
      ],
      "stateMutability": "view",
      "type": "function"
    },
    {
      "inputs": [],
      "name": "maxVoiceCreditsPerAllocator",
      "outputs": [
        {
          "internalType": "uint256",
          "name": "",
          "type": "uint256"
        }
      ],
      "stateMutability": "view",
      "type": "function"
    },
    {
      "inputs": [],
      "name": "metadataRequired",
      "outputs": [
        {
          "internalType": "bool",
          "name": "",
          "type": "bool"
        }
      ],
      "stateMutability": "view",
      "type": "function"
    },
    {
      "inputs": [
        {
          "internalType": "bytes[]",
          "name": "data",
          "type": "bytes[]"
        }
      ],
      "name": "multicall",
      "outputs": [
        {
          "internalType": "bytes[]",
          "name": "results",
          "type": "bytes[]"
        }
      ],
      "stateMutability": "nonpayable",
      "type": "function"
    },
    {
      "inputs": [],
      "name": "payoutSet",
      "outputs": [
        {
          "internalType": "bool",
          "name": "",
          "type": "bool"
        }
      ],
      "stateMutability": "view",
      "type": "function"
    },
    {
      "inputs": [
        {
          "internalType": "address",
          "name": "",
          "type": "address"
        }
      ],
      "name": "payouts",
      "outputs": [
        {
          "internalType": "uint256",
          "name": "",
          "type": "uint256"
        }
      ],
      "stateMutability": "view",
      "type": "function"
    },
    {
      "inputs": [
        {
          "internalType": "address",
          "name": "",
          "type": "address"
        }
      ],
      "name": "recipients",
      "outputs": [
        {
          "internalType": "bool",
          "name": "useRegistryAnchor",
          "type": "bool"
        },
        {
          "internalType": "bool",
          "name": "metadataRequired",
          "type": "bool"
        },
        {
          "internalType": "uint256",
          "name": "totalVotesReceived",
          "type": "uint256"
        },
        {
          "internalType": "uint256",
          "name": "requestedAmount",
          "type": "uint256"
        },
        {
          "internalType": "address",
          "name": "recipientAddress",
          "type": "address"
        },
        {
          "components": [
            {
              "internalType": "uint256",
              "name": "protocol",
              "type": "uint256"
            },
            {
              "internalType": "string",
              "name": "pointer",
              "type": "string"
            }
          ],
          "internalType": "struct Metadata",
          "name": "metadata",
          "type": "tuple"
        },
        {
          "internalType": "enum IStrategy.Status",
          "name": "recipientStatus",
          "type": "uint8"
        }
      ],
      "stateMutability": "view",
      "type": "function"
    },
    {
      "inputs": [
        {
          "internalType": "address",
          "name": "_token",
          "type": "address"
        },
        {
          "internalType": "address",
          "name": "_recipient",
          "type": "address"
        }
      ],
      "name": "recoverFunds",
      "outputs": [],
      "stateMutability": "nonpayable",
      "type": "function"
    },
    {
      "inputs": [
        {
          "internalType": "bytes",
          "name": "_data",
          "type": "bytes"
        },
        {
          "internalType": "address",
          "name": "_sender",
          "type": "address"
        }
      ],
      "name": "registerRecipient",
      "outputs": [
        {
          "internalType": "address",
          "name": "recipientId",
          "type": "address"
        }
      ],
      "stateMutability": "payable",
      "type": "function"
    },
    {
      "inputs": [
        {
          "internalType": "address",
          "name": "_allocator",
          "type": "address"
        }
      ],
      "name": "removeAllocator",
      "outputs": [],
      "stateMutability": "nonpayable",
      "type": "function"
    },
    {
      "inputs": [
        {
          "components": [
            {
              "internalType": "address",
              "name": "recipientId",
              "type": "address"
            },
            {
              "internalType": "uint256",
              "name": "amount",
              "type": "uint256"
            }
          ],
          "internalType": "struct QVImpactStreamStrategy.Payout[]",
          "name": "_payouts",
          "type": "tuple[]"
        }
      ],
      "name": "setPayouts",
      "outputs": [],
      "stateMutability": "nonpayable",
      "type": "function"
    },
    {
      "inputs": [
        {
          "internalType": "uint64",
          "name": "_allocationStartTime",
          "type": "uint64"
        },
        {
          "internalType": "uint64",
          "name": "_allocationEndTime",
          "type": "uint64"
        }
      ],
      "name": "updatePoolTimestamps",
      "outputs": [],
      "stateMutability": "nonpayable",
      "type": "function"
    },
    {
      "inputs": [],
      "name": "useRegistryAnchor",
      "outputs": [
        {
          "internalType": "bool",
          "name": "",
          "type": "bool"
        }
      ],
      "stateMutability": "view",
      "type": "function"
    },
    {
      "stateMutability": "payable",
      "type": "receive"
    }
  ],
  "bytecode": "0x60c06040523480156200001157600080fd5b5060405162002ff438038062002ff48339810160408190526200003491620000ba565b6001600160a01b038216608052604051829082906200005890829060200162000195565b60408051601f19818403018152919052805160209091012060a05250620001ca92505050565b634e487b7160e01b600052604160045260246000fd5b60005b83811015620000b157818101518382015260200162000097565b50506000910152565b60008060408385031215620000ce57600080fd5b82516001600160a01b0381168114620000e657600080fd5b60208401519092506001600160401b03808211156200010457600080fd5b818501915085601f8301126200011957600080fd5b8151818111156200012e576200012e6200007e565b604051601f8201601f19908116603f011681019083821181831017156200015957620001596200007e565b816040528281528860208487010111156200017357600080fd5b6200018683602083016020880162000094565b80955050505050509250929050565b6020815260008251806020840152620001b681604085016020870162000094565b601f01601f19169190910160400192915050565b60805160a051612de86200020c60003960006103f40152600081816102bb01528181610ea101528181611005015281816110f001526111780152612de86000f3fe60806040526004361061021e5760003560e01c806375777aaa11610123578063cb0e85a6116100ab578063eb11af931161006f578063eb11af9314610745578063eb82031214610772578063edd146cc146107a5578063ef2920fc146107c5578063f5b0dfb7146107d857600080fd5b8063cb0e85a614610681578063d2e17f59146106a0578063d3482b11146106c6578063d348d5b414610710578063df868ed31461073057600080fd5b8063a447fc9d116100f2578063a447fc9d146105ae578063ac9650d8146105ce578063b2b878d0146105fb578063b93e952814610628578063c1bebdf51461066157600080fd5b806375777aaa146105165780637738c1ca146105365780638d54694314610550578063a0cf0aea1461058657600080fd5b806341f44125116101a65780634ab4ba42116101755780634ab4ba421461046d5780634d31d0871461048257806357089739146104a257806362812a39146104bc57806365bcfbe7146104e957600080fd5b806341f44125146103c557806342fda9c7146103e55780634533d678146104185780634a4f8e041461045757600080fd5b806324ae6a27116101ed57806324ae6a27146102f3578063259d6dde146103135780632bbe0cae14610353578063316505401461036657806338fff2d0146103b057600080fd5b806307fca3811461022a578063084ea36e1461024c5780630a6f0ee91461028c57806315cc481e146102ac57600080fd5b3661022557005b600080fd5b34801561023657600080fd5b5061024a610245366004611fcc565b6107f8565b005b34801561025857600080fd5b50610279610267366004611fcc565b60086020526000908152604090205481565b6040519081526020015b60405180910390f35b34801561029857600080fd5b5061024a6102a736600461218f565b61080f565b3480156102b857600080fd5b507f00000000000000000000000000000000000000000000000000000000000000005b6040516001600160a01b039091168152602001610283565b3480156102ff57600080fd5b5061024a61030e366004612206565b61082f565b34801561031f57600080fd5b5061034361032e366004611fcc565b60066020526000908152604090205460ff1681565b6040519015158152602001610283565b6102db61036136600461223f565b6108e1565b34801561037257600080fd5b50610279610381366004612206565b6001600160a01b0391821660009081526008602090815260408083209390941682526002909201909152205490565b3480156103bc57600080fd5b50600154610279565b3480156103d157600080fd5b5061024a6103e0366004611fcc565b610906565b3480156103f157600080fd5b507f0000000000000000000000000000000000000000000000000000000000000000610279565b34801561042457600080fd5b5060035461043f90600160501b90046001600160401b031681565b6040516001600160401b039091168152602001610283565b34801561046357600080fd5b5061027960055481565b34801561047957600080fd5b50600254610279565b34801561048e57600080fd5b5061034361049d366004611fcc565b610919565b3480156104ae57600080fd5b506003546103439060ff1681565b3480156104c857600080fd5b506104dc6104d7366004611fcc565b61093a565b604051610283919061232c565b3480156104f557600080fd5b50610279610504366004611fcc565b60096020526000908152604090205481565b34801561052257600080fd5b5061024a6105313660046123b9565b61094b565b34801561054257600080fd5b50600a546103439060ff1681565b34801561055c57600080fd5b5061027961056b366004611fcc565b6001600160a01b031660009081526008602052604090205490565b34801561059257600080fd5b506102db73eeeeeeeeeeeeeeeeeeeeeeeeeeeeeeeeeeeeeeee81565b3480156105ba57600080fd5b5061024a6105c93660046123e7565b61095f565b3480156105da57600080fd5b506105ee6105e936600461241b565b6109a0565b604051610283919061248f565b34801561060757600080fd5b5061061b6106163660046124f1565b610a94565b60405161028391906125c5565b34801561063457600080fd5b50610279610643366004611fcc565b6001600160a01b031660009081526007602052604090206001015490565b34801561066d57600080fd5b5061024a61067c366004612625565b610b92565b34801561068d57600080fd5b5060035461034390610100900460ff1681565b3480156106ac57600080fd5b5060035461043f906201000090046001600160401b031681565b3480156106d257600080fd5b506102796106e1366004612206565b6001600160a01b0391821660009081526008602090815260408083209390941682526001909201909152205490565b34801561071c57600080fd5b5061024a61072b3660046123e7565b610cfe565b34801561073c57600080fd5b50610343610d3f565b34801561075157600080fd5b50610765610760366004611fcc565b610d4e565b60405161028391906126e3565b34801561077e57600080fd5b5061079261078d366004611fcc565b610d59565b60405161028397969594939291906126f1565b3480156107b157600080fd5b5061024a6107c036600461274a565b610e4c565b61024a6107d336600461223f565b610f97565b3480156107e457600080fd5b5061024a6107f3366004612790565b610fb1565b3361080281610fdb565b61080b8261108d565b5050565b6108176110e5565b61081f611130565b61082a838383611153565b505050565b3361083981610fdb565b60006001600160a01b03841673eeeeeeeeeeeeeeeeeeeeeeeeeeeeeeeeeeeeeeee146108cc576040516370a0823160e01b81523060048201526001600160a01b038516906370a0823190602401602060405180830381865afa1580156108a3573d6000803e3d6000fd5b505050506040513d601f19601f820116820180604052508101906108c791906127a9565b6108ce565b475b90506108db848483611310565b50505050565b60006108eb6110e5565b6108f3611130565b6108fd838361134a565b90505b92915050565b3361091081610fdb565b61080b82611575565b6001600160a01b03811660009081526006602052604081205460ff16610900565b610942611f53565b610900826115c9565b3361095581610fdb565b61082a8383611719565b3361096981610fdb565b815160005b818110156108db5761099884828151811061098b5761098b6127c2565b602002602001015161108d565b60010161096e565b6060816001600160401b038111156109ba576109ba611ff0565b6040519080825280602002602001820160405280156109ed57816020015b60608152602001906001900390816109d85790505b50905060005b82811015610a8d57610a5d30858584818110610a1157610a116127c2565b9050602002810190610a2391906127d8565b8080601f0160208091040260200160405190810160405280939291908181526020018383808284376000920191909152506117ff92505050565b828281518110610a6f57610a6f6127c2565b60200260200101819052508080610a859061283b565b9150506109f3565b5092915050565b81518151606091908114610abb57604051633da4c02b60e11b815260040160405180910390fd5b6000816001600160401b03811115610ad557610ad5611ff0565b604051908082528060200260200182016040528015610b1a57816020015b6040805180820190915260008082526020820152815260200190600190039081610af35790505b50905060005b82811015610b8957610b64868281518110610b3d57610b3d6127c2565b6020026020010151868381518110610b5757610b576127c2565b6020026020010151611824565b828281518110610b7657610b766127c2565b6020908102919091010152600101610b20565b50949350505050565b33610b9c81610fdb565b610ba46119b5565b600a5460ff1615610bc857604051637fcce2a960e01b815260040160405180910390fd5b600a805460ff191660011790558151600090815b81811015610c9b576000858281518110610bf857610bf86127c2565b60209081029190910181015190810151815191925090811580610c3557506002610c21826119e8565b6006811115610c3257610c326122f4565b14155b15610c6657825160405163f4a513b960e01b81526001600160a01b0390911660048201526024015b60405180910390fd5b6001600160a01b0381166000908152600960205260409020829055610c8b8287612854565b9550836001019350505050610bdc565b50600254821115610cbf57604051637fcce2a960e01b815260040160405180910390fd5b7fe07601c63ca06243ad2097d8c73579badb6cd3853a3a92f7552e5670d7ab61508433604051610cf0929190612867565b60405180910390a150505050565b33610d0881610fdb565b815160005b818110156108db57610d37848281518110610d2a57610d2a6127c2565b6020026020010151611575565b600101610d0d565b6000610d496119fd565b905090565b6000610900826119e8565b60076020908152600091825260409182902080546001820154600283015460038401548651808801909752600485018054885260058601805460ff8088169a6101009098041698959794966001600160a01b039094169584019190610dbd906128d8565b80601f0160208091040260200160405190810160405280929190818152602001828054610de9906128d8565b8015610e365780601f10610e0b57610100808354040283529160200191610e36565b820191906000526020600020905b815481529060010190602001808311610e1957829003601f168201915b5050509190925250505060069091015460ff1687565b600081806020019051810190610e629190612921565b6080810151600555805160038054602084015115156101000261ff00199315159390931661ffff19909116179190911790559050610e9f83611a45565b7f00000000000000000000000000000000000000000000000000000000000000006001600160a01b0316635ab1bd536040518163ffffffff1660e01b8152600401602060405180830381865afa158015610efd573d6000803e3d6000fd5b505050506040513d601f19601f82011682018060405250810190610f2191906129ad565b600460006101000a8154816001600160a01b0302191690836001600160a01b03160217905550610f5981604001518260600151611719565b7f91efa3d50feccde0d0d202f8ae5c41ca0b2be614cebcb2bd2f4b019396e6568a8383604051610f8a9291906129ca565b60405180910390a1505050565b610f9f6110e5565b610fa7611130565b61080b8282611a94565b610fb96110e5565b8060026000828254610fcb9190612854565b90915550610fd890508181565b50565b6001546040516329e40d4b60e01b815260048101919091526001600160a01b0382811660248301527f000000000000000000000000000000000000000000000000000000000000000016906329e40d4b90604401602060405180830381865afa15801561104c573d6000803e3d6000fd5b505050506040513d601f19601f8201168201806040525081019061107091906129e3565b610fd85760405163075fd2b160e01b815260040160405180910390fd5b6001600160a01b038116600081815260066020908152604091829020805460ff1916905590513381527f4ddda4f889f9f60f81c0cccbc54ac7d1eb39b079ab7f29c2a1ceda4e0187085f91015b60405180910390a250565b336001600160a01b037f0000000000000000000000000000000000000000000000000000000000000000161461112e5760405163075fd2b160e01b815260040160405180910390fd5b565b60015460000361112e57604051630f68fe6360e21b815260040160405180910390fd5b61115b6119b5565b60015460405163068bcd8d60e01b81526000916001600160a01b037f0000000000000000000000000000000000000000000000000000000000000000169163068bcd8d916111af9160040190815260200190565b600060405180830381865afa1580156111cc573d6000803e3d6000fd5b505050506040513d6000823e601f3d908101601f191682016040526111f49190810190612a8a565b604081015185519192509060005b8181101561130757600087828151811061121e5761121e6127c2565b6020908102919091018101516001600160a01b03808216600090815260078452604080822060038101546009909652908220549395509390911691908190036112855760405163f4a513b960e01b81526001600160a01b0385166004820152602401610c5d565b6001600160a01b0384166000908152600960205260408120556112a9878383611310565b604080516001600160a01b038481168252602082018490528b8116828401529151918616917fb5b51454adfa840bd593658325a60a50b0216f12eb5d2937efe6cea935675b7d9181900360600190a284600101945050505050611202565b50505050505050565b73eeeeeeeeeeeeeeeeeeeeeeeeeeeeeeeeeeeeeeed196001600160a01b0384160161133f5761082a8282611cc9565b61082a838383611ce5565b60008161135681610fdb565b600080600080611379604051806040016040528060008152602001606081525090565b8880602001905181019061138d9190612b3d565b600354929750929550935090915060ff16806113b157506001600160a01b03831615155b9450846113be57876113c0565b825b600354909750610100900460ff1680156113e6575060208101515115806113e657508051155b156114045760405163c19e07c560e01b815260040160405180910390fd5b6001600160a01b0384166114365760405163f4a513b960e01b81526001600160a01b0388166004820152602401610c5d565b6001600160a01b03808816600090815260076020526040902060038101549091166114a357876001600160a01b03167fa197306e3dd5494a61a695381aa809a53b8e377a685e84e404a85d5a8da6cc628b8b604051611496929190612baa565b60405180910390a26114e7565b876001600160a01b03167faf5977db3aa7e6fc7d05e21c791ebd214afa76da27c8d8ddc8e4a9f742d7b2368b8b6040516114de929190612baa565b60405180910390a25b60038101805473ffffffffffffffffffffffffffffffffffffffff19166001600160a01b0387161790558561152057805460ff16611523565b60015b815460ff19169015151781558151600482019081556020830151839190600584019061154f9082612c23565b50505060068101805460ff19166002908117909155019190915550939695505050505050565b6001600160a01b038116600081815260066020908152604091829020805460ff1916600117905590513381527fc5137efba0dae412f1520f1f5633a45f7831a93f83d0db6c31d7fc2a877b888791016110da565b6115d1611f53565b6001600160a01b03808316600090815260076020908152604091829020825160e081018452815460ff8082161515835261010090910416151581840152600182015481850152600282015460608201526003820154909416608085015282518084019093526004810180548452600582018054929460a08701949093908401919061165b906128d8565b80601f0160208091040260200160405190810160405280929190818152602001828054611687906128d8565b80156116d45780601f106116a9576101008083540402835291602001916116d4565b820191906000526020600020905b8154815290600101906020018083116116b757829003601f168201915b50505091909252505050815260068281015460209092019160ff16908111156116ff576116ff6122f4565b6006811115611710576117106122f4565b90525092915050565b806001600160401b0316826001600160401b03161180611741575042826001600160401b0316105b1561175f57604051637fcce2a960e01b815260040160405180910390fd5b6003805471ffffffffffffffffffffffffffffffff00001916620100006001600160401b03858116820271ffffffffffffffff00000000000000000000191692909217600160501b85841681029190911793849055604080519285048416835293049091166020820152338183015290517f70d34c8836b996cffd8970ba5edf940d83ca7c8f30f738ea4fd8566a37d93359916060908290030190a15050565b60606108fd8383604051806060016040528060278152602001612d8c60279139611d34565b604080518082018252600080825260208083018290526001600160a01b03868116835260078252848320855160e081018752815460ff8082161515835261010090910416151581850152600182015481880152600282015460608201526003820154909216608083015285518087019096526004810180548752600582018054969795969395929460a087019490840191906118bf906128d8565b80601f01602080910402602001604051908101604052809291908181526020018280546118eb906128d8565b80156119385780601f1061190d57610100808354040283529160200191611938565b820191906000526020600020905b81548152906001019060200180831161191b57829003601f168201915b50505091909252505050815260068281015460209092019160ff1690811115611963576119636122f4565b6006811115611974576119746122f4565b9052506001600160a01b0394851660009081526009602090815260409182902054825180840190935260809390930151909616815294850152509192915050565b600354600160501b90046001600160401b031642101561112e57604051634543ced160e11b815260040160405180910390fd5b60006119f3826115c9565b60c0015192915050565b60035460009042620100009091046001600160401b031611801590611a345750600354600160501b90046001600160401b03164211155b15611a3f5750600190565b50600090565b611a4d6110e5565b60015415611a6e5760405163439a74c960e01b815260040160405180910390fd5b80600003611a8f57604051637fcce2a960e01b815260040160405180910390fd5b600155565b611a9c611dac565b60008083806020019051810190611ab39190612ce2565b6001600160a01b0382811660009081526007602090815260408083209389168352600882528083206006909252909120549395509193509160ff16611b0b5760405163075fd2b160e01b815260040160405180910390fd5b611b1484611dfa565b611b3c5760405163f4a513b960e01b81526001600160a01b0385166004820152602401610c5d565b611b4a838260000154611e36565b611b6757604051637fcce2a960e01b815260040160405180910390fd5b82600003611b8857604051637fcce2a960e01b815260040160405180910390fd5b82816000016000828254611b9c9190612854565b90915550506001600160a01b0384166000908152600182016020908152604080832054600285019092528220549091611bd58387612854565b90506000611bf3611bee83670de0b6b3a7640000612d10565b611e4f565b9050611bff8382612d27565b905080866001016000828254611c159190612854565b90915550506001600160a01b038816600090815260018601602052604081208054899290611c44908490612854565b90915550506001600160a01b038816600090815260028601602052604081208054839290611c73908490612854565b9091555050604080518281526001600160a01b038b811660208301528a16917fe19137169fc4bceb2391a0921a61084851c12884df4897f569ec45a4ee46b7e3910160405180910390a250505050505050505050565b60008060008084865af161080b5763b12d13eb6000526004601cfd5b81601452806034526fa9059cbb00000000000000000000000060005260206000604460106000875af13d156001600051141716611d2a576390b8ec186000526004601cfd5b6000603452505050565b6060600080856001600160a01b031685604051611d519190612d3a565b600060405180830381855af49150503d8060008114611d8c576040519150601f19603f3d011682016040523d82523d6000602084013e611d91565b606091505b5091509150611da286838387611ea8565b9695505050505050565b60035442620100009091046001600160401b03161180611ddd5750600354600160501b90046001600160401b031642115b1561112e5760405162b828c960e81b815260040160405180910390fd5b600060026001600160a01b038316600090815260076020526040902060069081015460ff1690811115611e2f57611e2f6122f4565b1492915050565b600554600090611e468385612854565b11159392505050565b6000806002611e5f846001612854565b611e699190612d56565b90508291505b81811015611ea257905080600281611e878186612d56565b611e919190612854565b611e9b9190612d56565b9050611e6f565b50919050565b60608315611f17578251600003611f10576001600160a01b0385163b611f105760405162461bcd60e51b815260206004820152601d60248201527f416464726573733a2063616c6c20746f206e6f6e2d636f6e74726163740000006044820152606401610c5d565b5081611f21565b611f218383611f29565b949350505050565b815115611f395781518083602001fd5b8060405162461bcd60e51b8152600401610c5d9190612d78565b6040518060e00160405280600015158152602001600015158152602001600081526020016000815260200160006001600160a01b03168152602001611fab604051806040016040528060008152602001606081525090565b81526020016000905290565b6001600160a01b0381168114610fd857600080fd5b600060208284031215611fde57600080fd5b8135611fe981611fb7565b9392505050565b634e487b7160e01b600052604160045260246000fd5b604080519081016001600160401b038111828210171561202857612028611ff0565b60405290565b60405160c081016001600160401b038111828210171561202857612028611ff0565b604051601f8201601f191681016001600160401b038111828210171561207857612078611ff0565b604052919050565b60006001600160401b0382111561209957612099611ff0565b5060051b60200190565b600082601f8301126120b457600080fd5b813560206120c96120c483612080565b612050565b82815260059290921b840181019181810190868411156120e857600080fd5b8286015b8481101561210c5780356120ff81611fb7565b83529183019183016120ec565b509695505050505050565b60006001600160401b0382111561213057612130611ff0565b50601f01601f191660200190565b600082601f83011261214f57600080fd5b813561215d6120c482612117565b81815284602083860101111561217257600080fd5b816020850160208301376000918101602001919091529392505050565b6000806000606084860312156121a457600080fd5b83356001600160401b03808211156121bb57600080fd5b6121c7878388016120a3565b945060208601359150808211156121dd57600080fd5b506121ea8682870161213e565b92505060408401356121fb81611fb7565b809150509250925092565b6000806040838503121561221957600080fd5b823561222481611fb7565b9150602083013561223481611fb7565b809150509250929050565b6000806040838503121561225257600080fd5b82356001600160401b0381111561226857600080fd5b6122748582860161213e565b925050602083013561223481611fb7565b60005b838110156122a0578181015183820152602001612288565b50506000910152565b600081518084526122c1816020860160208601612285565b601f01601f19169290920160200192915050565b805182526000602082015160406020850152611f2160408501826122a9565b634e487b7160e01b600052602160045260246000fd5b6007811061232857634e487b7160e01b600052602160045260246000fd5b9052565b6020815281511515602082015260208201511515604082015260408201516060820152606082015160808201526001600160a01b0360808301511660a0820152600060a083015160e060c08401526123886101008401826122d5565b905060c084015161239c60e085018261230a565b509392505050565b6001600160401b0381168114610fd857600080fd5b600080604083850312156123cc57600080fd5b82356123d7816123a4565b91506020830135612234816123a4565b6000602082840312156123f957600080fd5b81356001600160401b0381111561240f57600080fd5b611f21848285016120a3565b6000806020838503121561242e57600080fd5b82356001600160401b038082111561244557600080fd5b818501915085601f83011261245957600080fd5b81358181111561246857600080fd5b8660208260051b850101111561247d57600080fd5b60209290920196919550909350505050565b6000602080830181845280855180835260408601915060408160051b870101925083870160005b828110156124e457603f198886030184526124d28583516122a9565b945092850192908501906001016124b6565b5092979650505050505050565b6000806040838503121561250457600080fd5b82356001600160401b038082111561251b57600080fd5b612527868387016120a3565b935060209150818501358181111561253e57600080fd5b8501601f8101871361254f57600080fd5b803561255d6120c482612080565b81815260059190911b8201840190848101908983111561257c57600080fd5b8584015b838110156125b4578035868111156125985760008081fd5b6125a68c898389010161213e565b845250918601918601612580565b508096505050505050509250929050565b602080825282518282018190526000919060409081850190868401855b828110156126185761260884835180516001600160a01b03168252602090810151910152565b92840192908501906001016125e2565b5091979650505050505050565b6000602080838503121561263857600080fd5b82356001600160401b0381111561264e57600080fd5b8301601f8101851361265f57600080fd5b803561266d6120c482612080565b81815260069190911b8201830190838101908783111561268c57600080fd5b928401925b828410156126d857604084890312156126aa5760008081fd5b6126b2612006565b84356126bd81611fb7565b81528486013586820152825260409093019290840190612691565b979650505050505050565b60208101610900828461230a565b871515815286151560208201528560408201528460608201526001600160a01b038416608082015260e060a0820152600061272f60e08301856122d5565b905061273e60c083018461230a565b98975050505050505050565b6000806040838503121561275d57600080fd5b8235915060208301356001600160401b0381111561277a57600080fd5b6127868582860161213e565b9150509250929050565b6000602082840312156127a257600080fd5b5035919050565b6000602082840312156127bb57600080fd5b5051919050565b634e487b7160e01b600052603260045260246000fd5b6000808335601e198436030181126127ef57600080fd5b8301803591506001600160401b0382111561280957600080fd5b60200191503681900382131561281e57600080fd5b9250929050565b634e487b7160e01b600052601160045260246000fd5b60006001820161284d5761284d612825565b5060010190565b8082018082111561090057610900612825565b60408082528351828201819052600091906020906060850190828801855b828110156128bb576128ab84835180516001600160a01b03168252602090810151910152565b9285019290840190600101612885565b5050506001600160a01b0395909516930192909252509092915050565b600181811c908216806128ec57607f821691505b602082108103611ea257634e487b7160e01b600052602260045260246000fd5b8051801515811461291c57600080fd5b919050565b600060a0828403121561293357600080fd5b60405160a081018181106001600160401b038211171561295557612955611ff0565b6040526129618361290c565b815261296f6020840161290c565b60208201526040830151612982816123a4565b60408201526060830151612995816123a4565b60608201526080928301519281019290925250919050565b6000602082840312156129bf57600080fd5b8151611fe981611fb7565b828152604060208201526000611f2160408301846122a9565b6000602082840312156129f557600080fd5b6108fd8261290c565b600060408284031215612a1057600080fd5b612a18612006565b90508151815260208201516001600160401b03811115612a3757600080fd5b8201601f81018413612a4857600080fd5b8051612a566120c482612117565b818152856020838501011115612a6b57600080fd5b612a7c826020830160208601612285565b602084015250909392505050565b600060208284031215612a9c57600080fd5b81516001600160401b0380821115612ab357600080fd5b9083019060c08286031215612ac757600080fd5b612acf61202e565b825181526020830151612ae181611fb7565b60208201526040830151612af481611fb7565b6040820152606083015182811115612b0b57600080fd5b612b17878286016129fe565b6060830152506080830151608082015260a083015160a082015280935050505092915050565b60008060008060808587031215612b5357600080fd5b8451612b5e81611fb7565b6020860151909450612b6f81611fb7565b6040860151606087015191945092506001600160401b03811115612b9257600080fd5b612b9e878288016129fe565b91505092959194509250565b604081526000612bbd60408301856122a9565b90506001600160a01b03831660208301529392505050565b601f82111561082a57600081815260208120601f850160051c81016020861015612bfc5750805b601f850160051c820191505b81811015612c1b57828155600101612c08565b505050505050565b81516001600160401b03811115612c3c57612c3c611ff0565b612c5081612c4a84546128d8565b84612bd5565b602080601f831160018114612c855760008415612c6d5750858301515b600019600386901b1c1916600185901b178555612c1b565b600085815260208120601f198616915b82811015612cb457888601518255948401946001909101908401612c95565b5085821015612cd25787850151600019600388901b60f8161c191681555b5050505050600190811b01905550565b60008060408385031215612cf557600080fd5b8251612d0081611fb7565b6020939093015192949293505050565b808202811582820484141761090057610900612825565b8181038181111561090057610900612825565b60008251612d4c818460208701612285565b9190910192915050565b600082612d7357634e487b7160e01b600052601260045260246000fd5b500490565b6020815260006108fd60208301846122a956fe416464726573733a206c6f772d6c6576656c2064656c65676174652063616c6c206661696c6564a2646970667358221220f56d828d2aae1e841aacb5321ed099d42aad6709124ac8d7842164f7abcd48e664736f6c63430008130033",
  "linkReferences": {},
  "deployedLinkReferences": {}
}