{
  "_format": "hh-sol-artifact-1",
  "contractName": "QVImpactStreamStrategy",
  "sourceName": "contracts/strategies/_poc/qv-impact-stream/QVImpactStreamStrategy.sol",
  "abi": [
    {
      "inputs": [
        {
          "internalType": "address",
          "name": "_allo",
          "type": "address"
        },
        {
          "internalType": "string",
          "name": "_name",
          "type": "string"
        }
      ],
      "stateMutability": "nonpayable",
      "type": "constructor"
    },
    {
      "inputs": [],
      "name": "ALLOCATION_ACTIVE",
      "type": "error"
    },
    {
      "inputs": [],
      "name": "ALLOCATION_NOT_ACTIVE",
      "type": "error"
    },
    {
      "inputs": [],
      "name": "ALLOCATION_NOT_ENDED",
      "type": "error"
    },
    {
      "inputs": [],
      "name": "ALREADY_INITIALIZED",
      "type": "error"
    },
    {
      "inputs": [],
      "name": "AMOUNT_MISMATCH",
      "type": "error"
    },
    {
      "inputs": [],
      "name": "ANCHOR_ERROR",
      "type": "error"
    },
    {
      "inputs": [],
      "name": "ARRAY_MISMATCH",
      "type": "error"
    },
    {
      "inputs": [],
      "name": "INVALID",
      "type": "error"
    },
    {
      "inputs": [],
      "name": "INVALID_ADDRESS",
      "type": "error"
    },
    {
      "inputs": [],
      "name": "INVALID_FEE",
      "type": "error"
    },
    {
      "inputs": [],
      "name": "INVALID_METADATA",
      "type": "error"
    },
    {
      "inputs": [],
      "name": "INVALID_REGISTRATION",
      "type": "error"
    },
    {
      "inputs": [],
      "name": "IS_APPROVED_STRATEGY",
      "type": "error"
    },
    {
      "inputs": [],
      "name": "MISMATCH",
      "type": "error"
    },
    {
      "inputs": [],
      "name": "NONCE_NOT_AVAILABLE",
      "type": "error"
    },
    {
      "inputs": [],
      "name": "NOT_APPROVED_STRATEGY",
      "type": "error"
    },
    {
      "inputs": [],
      "name": "NOT_ENOUGH_FUNDS",
      "type": "error"
    },
    {
      "inputs": [],
      "name": "NOT_INITIALIZED",
      "type": "error"
    },
    {
      "inputs": [],
      "name": "NOT_PENDING_OWNER",
      "type": "error"
    },
    {
      "inputs": [],
      "name": "POOL_ACTIVE",
      "type": "error"
    },
    {
      "inputs": [],
      "name": "POOL_INACTIVE",
      "type": "error"
    },
    {
      "inputs": [],
      "name": "RECIPIENT_ALREADY_ACCEPTED",
      "type": "error"
    },
    {
      "inputs": [
        {
          "internalType": "address",
          "name": "recipientId",
          "type": "address"
        }
      ],
      "name": "RECIPIENT_ERROR",
      "type": "error"
    },
    {
      "inputs": [],
      "name": "RECIPIENT_NOT_ACCEPTED",
      "type": "error"
    },
    {
      "inputs": [],
      "name": "REGISTRATION_NOT_ACTIVE",
      "type": "error"
    },
    {
      "inputs": [],
      "name": "UNAUTHORIZED",
      "type": "error"
    },
    {
      "inputs": [],
      "name": "ZERO_ADDRESS",
      "type": "error"
    },
    {
      "anonymous": false,
      "inputs": [
        {
          "indexed": true,
          "internalType": "address",
          "name": "recipientId",
          "type": "address"
        },
        {
          "indexed": false,
          "internalType": "uint256",
          "name": "votes",
          "type": "uint256"
        },
        {
          "indexed": false,
          "internalType": "address",
          "name": "allocator",
          "type": "address"
        }
      ],
      "name": "Allocated",
      "type": "event"
    },
    {
      "anonymous": false,
      "inputs": [
        {
          "indexed": true,
          "internalType": "address",
          "name": "recipientId",
          "type": "address"
        },
        {
          "indexed": false,
          "internalType": "uint256",
          "name": "amount",
          "type": "uint256"
        },
        {
          "indexed": false,
          "internalType": "address",
          "name": "token",
          "type": "address"
        },
        {
          "indexed": false,
          "internalType": "address",
          "name": "sender",
          "type": "address"
        }
      ],
      "name": "Allocated",
      "type": "event"
    },
    {
      "anonymous": false,
      "inputs": [
        {
          "indexed": true,
          "internalType": "address",
          "name": "allocator",
          "type": "address"
        },
        {
          "indexed": false,
          "internalType": "address",
          "name": "sender",
          "type": "address"
        }
      ],
      "name": "AllocatorAdded",
      "type": "event"
    },
    {
      "anonymous": false,
      "inputs": [
        {
          "indexed": true,
          "internalType": "address",
          "name": "allocator",
          "type": "address"
        },
        {
          "indexed": false,
          "internalType": "address",
          "name": "sender",
          "type": "address"
        }
      ],
      "name": "AllocatorRemoved",
      "type": "event"
    },
    {
      "anonymous": false,
      "inputs": [
        {
          "indexed": true,
          "internalType": "address",
          "name": "recipientId",
          "type": "address"
        },
        {
          "indexed": false,
          "internalType": "address",
          "name": "recipientAddress",
          "type": "address"
        },
        {
          "indexed": false,
          "internalType": "uint256",
          "name": "amount",
          "type": "uint256"
        },
        {
          "indexed": false,
          "internalType": "address",
          "name": "sender",
          "type": "address"
        }
      ],
      "name": "Distributed",
      "type": "event"
    },
    {
      "anonymous": false,
      "inputs": [
        {
          "indexed": false,
          "internalType": "uint256",
          "name": "poolId",
          "type": "uint256"
        },
        {
          "indexed": false,
          "internalType": "bytes",
          "name": "data",
          "type": "bytes"
        }
      ],
      "name": "Initialized",
      "type": "event"
    },
    {
      "anonymous": false,
      "inputs": [
        {
          "components": [
            {
              "internalType": "address",
              "name": "recipientId",
              "type": "address"
            },
            {
              "internalType": "uint256",
              "name": "amount",
              "type": "uint256"
            }
          ],
          "indexed": false,
          "internalType": "struct QVImpactStreamStrategy.Payout[]",
          "name": "payouts",
          "type": "tuple[]"
        },
        {
          "indexed": false,
          "internalType": "address",
          "name": "sender",
          "type": "address"
        }
      ],
      "name": "PayoutSet",
      "type": "event"
    },
    {
      "anonymous": false,
      "inputs": [
        {
          "indexed": false,
          "internalType": "bool",
          "name": "active",
          "type": "bool"
        }
      ],
      "name": "PoolActive",
      "type": "event"
    },
    {
      "anonymous": false,
      "inputs": [
        {
          "indexed": true,
          "internalType": "address",
          "name": "recipientId",
          "type": "address"
        },
        {
          "indexed": false,
          "internalType": "bytes",
          "name": "data",
          "type": "bytes"
        },
        {
          "indexed": false,
          "internalType": "address",
          "name": "sender",
          "type": "address"
        }
      ],
      "name": "Registered",
      "type": "event"
    },
    {
      "anonymous": false,
      "inputs": [
        {
          "indexed": false,
          "internalType": "uint64",
          "name": "allocationStartTime",
          "type": "uint64"
        },
        {
          "indexed": false,
          "internalType": "uint64",
          "name": "allocationEndTime",
          "type": "uint64"
        },
        {
          "indexed": false,
          "internalType": "address",
          "name": "sender",
          "type": "address"
        }
      ],
      "name": "TimestampsUpdated",
      "type": "event"
    },
    {
      "anonymous": false,
      "inputs": [
        {
          "indexed": true,
          "internalType": "address",
          "name": "recipientId",
          "type": "address"
        },
        {
          "indexed": false,
          "internalType": "bytes",
          "name": "data",
          "type": "bytes"
        },
        {
          "indexed": false,
          "internalType": "address",
          "name": "sender",
          "type": "address"
        }
      ],
      "name": "UpdatedRegistration",
      "type": "event"
    },
    {
      "inputs": [],
      "name": "NATIVE",
      "outputs": [
        {
          "internalType": "address",
          "name": "",
          "type": "address"
        }
      ],
      "stateMutability": "view",
      "type": "function"
    },
    {
      "inputs": [
        {
          "internalType": "address",
          "name": "_allocator",
          "type": "address"
        }
      ],
      "name": "addAllocator",
      "outputs": [],
      "stateMutability": "nonpayable",
      "type": "function"
    },
    {
      "inputs": [
        {
          "internalType": "bytes",
          "name": "_data",
          "type": "bytes"
        },
        {
          "internalType": "address",
          "name": "_sender",
          "type": "address"
        }
      ],
      "name": "allocate",
      "outputs": [],
      "stateMutability": "payable",
      "type": "function"
    },
    {
      "inputs": [],
      "name": "allocationEndTime",
      "outputs": [
        {
          "internalType": "uint64",
          "name": "",
          "type": "uint64"
        }
      ],
      "stateMutability": "view",
      "type": "function"
    },
    {
      "inputs": [],
      "name": "allocationStartTime",
      "outputs": [
        {
          "internalType": "uint64",
          "name": "",
          "type": "uint64"
        }
      ],
      "stateMutability": "view",
      "type": "function"
    },
    {
      "inputs": [
        {
          "internalType": "address",
          "name": "",
          "type": "address"
        }
      ],
      "name": "allocators",
      "outputs": [
        {
          "internalType": "uint256",
          "name": "usedVoiceCredits",
          "type": "uint256"
        }
      ],
      "stateMutability": "view",
      "type": "function"
    },
    {
      "inputs": [
        {
          "internalType": "address",
          "name": "",
          "type": "address"
        }
      ],
      "name": "allowedAllocators",
      "outputs": [
        {
          "internalType": "bool",
          "name": "",
          "type": "bool"
        }
      ],
      "stateMutability": "view",
      "type": "function"
    },
    {
      "inputs": [
        {
          "internalType": "address[]",
          "name": "_allocators",
          "type": "address[]"
        }
      ],
      "name": "batchAddAllocator",
      "outputs": [],
      "stateMutability": "nonpayable",
      "type": "function"
    },
    {
      "inputs": [
        {
          "internalType": "address[]",
          "name": "_allocators",
          "type": "address[]"
        }
      ],
      "name": "batchRemoveAllocator",
      "outputs": [],
      "stateMutability": "nonpayable",
      "type": "function"
    },
    {
      "inputs": [
        {
          "internalType": "address[]",
          "name": "_recipientIds",
          "type": "address[]"
        },
        {
          "internalType": "bytes",
          "name": "_data",
          "type": "bytes"
        },
        {
          "internalType": "address",
          "name": "_sender",
          "type": "address"
        }
      ],
      "name": "distribute",
      "outputs": [],
      "stateMutability": "nonpayable",
      "type": "function"
    },
    {
      "inputs": [],
      "name": "getAllo",
      "outputs": [
        {
          "internalType": "contract IAllo",
          "name": "",
          "type": "address"
        }
      ],
      "stateMutability": "view",
      "type": "function"
    },
    {
      "inputs": [
        {
          "internalType": "address[]",
          "name": "_recipientIds",
          "type": "address[]"
        },
        {
          "internalType": "bytes[]",
          "name": "_data",
          "type": "bytes[]"
        }
      ],
      "name": "getPayouts",
      "outputs": [
        {
          "components": [
            {
              "internalType": "address",
              "name": "recipientAddress",
              "type": "address"
            },
            {
              "internalType": "uint256",
              "name": "amount",
              "type": "uint256"
            }
          ],
          "internalType": "struct IStrategy.PayoutSummary[]",
          "name": "",
          "type": "tuple[]"
        }
      ],
      "stateMutability": "view",
      "type": "function"
    },
    {
      "inputs": [],
      "name": "getPoolAmount",
      "outputs": [
        {
          "internalType": "uint256",
          "name": "",
          "type": "uint256"
        }
      ],
      "stateMutability": "view",
      "type": "function"
    },
    {
      "inputs": [],
      "name": "getPoolId",
      "outputs": [
        {
          "internalType": "uint256",
          "name": "",
          "type": "uint256"
        }
      ],
      "stateMutability": "view",
      "type": "function"
    },
    {
      "inputs": [
        {
          "internalType": "address",
          "name": "_recipientId",
          "type": "address"
        }
      ],
      "name": "getRecipient",
      "outputs": [
        {
          "components": [
            {
              "internalType": "bool",
              "name": "useRegistryAnchor",
              "type": "bool"
            },
            {
              "internalType": "bool",
              "name": "metadataRequired",
              "type": "bool"
            },
            {
              "internalType": "uint256",
              "name": "totalVotesReceived",
              "type": "uint256"
            },
            {
              "internalType": "uint256",
              "name": "requestedAmount",
              "type": "uint256"
            },
            {
              "internalType": "address",
              "name": "recipientAddress",
              "type": "address"
            },
            {
              "components": [
                {
                  "internalType": "uint256",
                  "name": "protocol",
                  "type": "uint256"
                },
                {
                  "internalType": "string",
                  "name": "pointer",
                  "type": "string"
                }
              ],
              "internalType": "struct Metadata",
              "name": "metadata",
              "type": "tuple"
            },
            {
              "internalType": "enum IStrategy.Status",
              "name": "recipientStatus",
              "type": "uint8"
            }
          ],
          "internalType": "struct QVImpactStreamStrategy.Recipient",
          "name": "",
          "type": "tuple"
        }
      ],
      "stateMutability": "view",
      "type": "function"
    },
    {
      "inputs": [
        {
          "internalType": "address",
          "name": "_recipientId",
          "type": "address"
        }
      ],
      "name": "getRecipientStatus",
      "outputs": [
        {
          "internalType": "enum IStrategy.Status",
          "name": "",
          "type": "uint8"
        }
      ],
      "stateMutability": "view",
      "type": "function"
    },
    {
      "inputs": [],
      "name": "getStrategyId",
      "outputs": [
        {
          "internalType": "bytes32",
          "name": "",
          "type": "bytes32"
        }
      ],
      "stateMutability": "view",
      "type": "function"
    },
    {
      "inputs": [
        {
          "internalType": "address",
          "name": "_allocator",
          "type": "address"
        }
      ],
      "name": "getVoiceCreditsCastByAllocator",
      "outputs": [
        {
          "internalType": "uint256",
          "name": "",
          "type": "uint256"
        }
      ],
      "stateMutability": "view",
      "type": "function"
    },
    {
      "inputs": [
        {
          "internalType": "address",
          "name": "_allocator",
          "type": "address"
        },
        {
          "internalType": "address",
          "name": "_recipientId",
          "type": "address"
        }
      ],
      "name": "getVoiceCreditsCastByAllocatorToRecipient",
      "outputs": [
        {
          "internalType": "uint256",
          "name": "",
          "type": "uint256"
        }
      ],
      "stateMutability": "view",
      "type": "function"
    },
    {
      "inputs": [
        {
          "internalType": "address",
          "name": "_allocator",
          "type": "address"
        },
        {
          "internalType": "address",
          "name": "_recipientId",
          "type": "address"
        }
      ],
      "name": "getVotesCastByAllocatorToRecipient",
      "outputs": [
        {
          "internalType": "uint256",
          "name": "",
          "type": "uint256"
        }
      ],
      "stateMutability": "view",
      "type": "function"
    },
    {
      "inputs": [
        {
          "internalType": "uint256",
          "name": "_amount",
          "type": "uint256"
        }
      ],
      "name": "increasePoolAmount",
      "outputs": [],
      "stateMutability": "nonpayable",
      "type": "function"
    },
    {
      "inputs": [
        {
          "internalType": "uint256",
          "name": "_poolId",
          "type": "uint256"
        },
        {
          "internalType": "bytes",
          "name": "_data",
          "type": "bytes"
        }
      ],
      "name": "initialize",
      "outputs": [],
      "stateMutability": "nonpayable",
      "type": "function"
    },
    {
      "inputs": [],
      "name": "isPoolActive",
      "outputs": [
        {
          "internalType": "bool",
          "name": "",
          "type": "bool"
        }
      ],
      "stateMutability": "view",
      "type": "function"
    },
    {
      "inputs": [
        {
          "internalType": "address",
          "name": "_allocator",
          "type": "address"
        }
      ],
      "name": "isValidAllocator",
      "outputs": [
        {
          "internalType": "bool",
          "name": "",
          "type": "bool"
        }
      ],
      "stateMutability": "view",
      "type": "function"
    },
    {
      "inputs": [],
      "name": "maxVoiceCreditsPerAllocator",
      "outputs": [
        {
          "internalType": "uint256",
          "name": "",
          "type": "uint256"
        }
      ],
      "stateMutability": "view",
      "type": "function"
    },
    {
      "inputs": [],
      "name": "metadataRequired",
      "outputs": [
        {
          "internalType": "bool",
          "name": "",
          "type": "bool"
        }
      ],
      "stateMutability": "view",
      "type": "function"
    },
    {
      "inputs": [
        {
          "internalType": "bytes[]",
          "name": "data",
          "type": "bytes[]"
        }
      ],
      "name": "multicall",
      "outputs": [
        {
          "internalType": "bytes[]",
          "name": "results",
          "type": "bytes[]"
        }
      ],
      "stateMutability": "nonpayable",
      "type": "function"
    },
    {
      "inputs": [],
      "name": "payoutSet",
      "outputs": [
        {
          "internalType": "bool",
          "name": "",
          "type": "bool"
        }
      ],
      "stateMutability": "view",
      "type": "function"
    },
    {
      "inputs": [
        {
          "internalType": "address",
          "name": "",
          "type": "address"
        }
      ],
      "name": "payouts",
      "outputs": [
        {
          "internalType": "uint256",
          "name": "",
          "type": "uint256"
        }
      ],
      "stateMutability": "view",
      "type": "function"
    },
    {
      "inputs": [
        {
          "internalType": "address",
          "name": "",
          "type": "address"
        }
      ],
      "name": "recipients",
      "outputs": [
        {
          "internalType": "bool",
          "name": "useRegistryAnchor",
          "type": "bool"
        },
        {
          "internalType": "bool",
          "name": "metadataRequired",
          "type": "bool"
        },
        {
          "internalType": "uint256",
          "name": "totalVotesReceived",
          "type": "uint256"
        },
        {
          "internalType": "uint256",
          "name": "requestedAmount",
          "type": "uint256"
        },
        {
          "internalType": "address",
          "name": "recipientAddress",
          "type": "address"
        },
        {
          "components": [
            {
              "internalType": "uint256",
              "name": "protocol",
              "type": "uint256"
            },
            {
              "internalType": "string",
              "name": "pointer",
              "type": "string"
            }
          ],
          "internalType": "struct Metadata",
          "name": "metadata",
          "type": "tuple"
        },
        {
          "internalType": "enum IStrategy.Status",
          "name": "recipientStatus",
          "type": "uint8"
        }
      ],
      "stateMutability": "view",
      "type": "function"
    },
    {
      "inputs": [
        {
          "internalType": "address",
          "name": "_token",
          "type": "address"
        },
        {
          "internalType": "address",
          "name": "_recipient",
          "type": "address"
        }
      ],
      "name": "recoverFunds",
      "outputs": [],
      "stateMutability": "nonpayable",
      "type": "function"
    },
    {
      "inputs": [
        {
          "internalType": "bytes",
          "name": "_data",
          "type": "bytes"
        },
        {
          "internalType": "address",
          "name": "_sender",
          "type": "address"
        }
      ],
      "name": "registerRecipient",
      "outputs": [
        {
          "internalType": "address",
          "name": "recipientId",
          "type": "address"
        }
      ],
      "stateMutability": "payable",
      "type": "function"
    },
    {
      "inputs": [
        {
          "internalType": "address",
          "name": "_allocator",
          "type": "address"
        }
      ],
      "name": "removeAllocator",
      "outputs": [],
      "stateMutability": "nonpayable",
      "type": "function"
    },
    {
      "inputs": [
        {
          "components": [
            {
              "internalType": "address",
              "name": "recipientId",
              "type": "address"
            },
            {
              "internalType": "uint256",
              "name": "amount",
              "type": "uint256"
            }
          ],
          "internalType": "struct QVImpactStreamStrategy.Payout[]",
          "name": "_payouts",
          "type": "tuple[]"
        }
      ],
      "name": "setPayouts",
      "outputs": [],
      "stateMutability": "nonpayable",
      "type": "function"
    },
    {
      "inputs": [
        {
          "internalType": "uint64",
          "name": "_allocationStartTime",
          "type": "uint64"
        },
        {
          "internalType": "uint64",
          "name": "_allocationEndTime",
          "type": "uint64"
        }
      ],
      "name": "updatePoolTimestamps",
      "outputs": [],
      "stateMutability": "nonpayable",
      "type": "function"
    },
    {
      "inputs": [],
      "name": "useRegistryAnchor",
      "outputs": [
        {
          "internalType": "bool",
          "name": "",
          "type": "bool"
        }
      ],
      "stateMutability": "view",
      "type": "function"
    },
    {
      "stateMutability": "payable",
      "type": "receive"
    }
  ],
  "bytecode": "0x60c06040523480156200001157600080fd5b50604051620031a8380380620031a88339810160408190526200003491620000ba565b6001600160a01b038216608052604051829082906200005890829060200162000195565b60408051601f19818403018152919052805160209091012060a05250620001ca92505050565b634e487b7160e01b600052604160045260246000fd5b60005b83811015620000b157818101518382015260200162000097565b50506000910152565b60008060408385031215620000ce57600080fd5b82516001600160a01b0381168114620000e657600080fd5b60208401519092506001600160401b03808211156200010457600080fd5b818501915085601f8301126200011957600080fd5b8151818111156200012e576200012e6200007e565b604051601f8201601f19908116603f011681019083821181831017156200015957620001596200007e565b816040528281528860208487010111156200017357600080fd5b6200018683602083016020880162000094565b80955050505050509250929050565b6020815260008251806020840152620001b681604085016020870162000094565b601f01601f19169190910160400192915050565b60805160a051612f9c6200020c60003960006103e90152600081816102b001528181610e5d01528181610fc1015281816110ac01526111340152612f9c6000f3fe6080604052600436106102135760003560e01c806375777aaa11610118578063d2e17f59116100a0578063eb11af931161006f578063eb11af9314610701578063eb8203121461072e578063edd146cc14610761578063ef2920fc14610781578063f5b0dfb71461079457600080fd5b8063d2e17f591461065c578063d3482b1114610682578063d348d5b4146106cc578063df868ed3146106ec57600080fd5b8063a447fc9d116100e7578063a447fc9d146105a3578063ac9650d8146105c3578063b2b878d0146105f0578063c1bebdf51461061d578063cb0e85a61461063d57600080fd5b806375777aaa1461050b5780637738c1ca1461052b5780638d54694314610545578063a0cf0aea1461057b57600080fd5b806341f441251161019b5780634ab4ba421161016a5780634ab4ba42146104625780634d31d08714610477578063570897391461049757806362812a39146104b157806365bcfbe7146104de57600080fd5b806341f44125146103ba57806342fda9c7146103da5780634533d6781461040d5780634a4f8e041461044c57600080fd5b806324ae6a27116101e257806324ae6a27146102e8578063259d6dde146103085780632bbe0cae14610348578063316505401461035b57806338fff2d0146103a557600080fd5b806307fca3811461021f578063084ea36e146102415780630a6f0ee91461028157806315cc481e146102a157600080fd5b3661021a57005b600080fd5b34801561022b57600080fd5b5061023f61023a3660046120a5565b6107b4565b005b34801561024d57600080fd5b5061026e61025c3660046120a5565b60086020526000908152604090205481565b6040519081526020015b60405180910390f35b34801561028d57600080fd5b5061023f61029c366004612268565b6107cb565b3480156102ad57600080fd5b507f00000000000000000000000000000000000000000000000000000000000000005b6040516001600160a01b039091168152602001610278565b3480156102f457600080fd5b5061023f6103033660046122df565b6107eb565b34801561031457600080fd5b506103386103233660046120a5565b60066020526000908152604090205460ff1681565b6040519015158152602001610278565b6102d0610356366004612318565b61089d565b34801561036757600080fd5b5061026e6103763660046122df565b6001600160a01b0391821660009081526008602090815260408083209390941682526002909201909152205490565b3480156103b157600080fd5b5060015461026e565b3480156103c657600080fd5b5061023f6103d53660046120a5565b6108c2565b3480156103e657600080fd5b507f000000000000000000000000000000000000000000000000000000000000000061026e565b34801561041957600080fd5b5060035461043490600160501b90046001600160401b031681565b6040516001600160401b039091168152602001610278565b34801561045857600080fd5b5061026e60055481565b34801561046e57600080fd5b5060025461026e565b34801561048357600080fd5b506103386104923660046120a5565b6108d5565b3480156104a357600080fd5b506003546103389060ff1681565b3480156104bd57600080fd5b506104d16104cc3660046120a5565b6108f6565b6040516102789190612405565b3480156104ea57600080fd5b5061026e6104f93660046120a5565b60096020526000908152604090205481565b34801561051757600080fd5b5061023f610526366004612492565b610907565b34801561053757600080fd5b50600a546103389060ff1681565b34801561055157600080fd5b5061026e6105603660046120a5565b6001600160a01b031660009081526008602052604090205490565b34801561058757600080fd5b506102d073eeeeeeeeeeeeeeeeeeeeeeeeeeeeeeeeeeeeeeee81565b3480156105af57600080fd5b5061023f6105be3660046124c0565b61091b565b3480156105cf57600080fd5b506105e36105de3660046124f4565b61095c565b6040516102789190612568565b3480156105fc57600080fd5b5061061061060b3660046125ca565b610a50565b604051610278919061269e565b34801561062957600080fd5b5061023f6106383660046126fe565b610b4e565b34801561064957600080fd5b5060035461033890610100900460ff1681565b34801561066857600080fd5b50600354610434906201000090046001600160401b031681565b34801561068e57600080fd5b5061026e61069d3660046122df565b6001600160a01b0391821660009081526008602090815260408083209390941682526001909201909152205490565b3480156106d857600080fd5b5061023f6106e73660046124c0565b610cba565b3480156106f857600080fd5b50610338610cfb565b34801561070d57600080fd5b5061072161071c3660046120a5565b610d0a565b60405161027891906127bc565b34801561073a57600080fd5b5061074e6107493660046120a5565b610d15565b60405161027897969594939291906127ca565b34801561076d57600080fd5b5061023f61077c366004612823565b610e08565b61023f61078f366004612318565b610f53565b3480156107a057600080fd5b5061023f6107af366004612869565b610f6d565b336107be81610f97565b6107c782611049565b5050565b6107d36110a1565b6107db6110ec565b6107e683838361110f565b505050565b336107f581610f97565b60006001600160a01b03841673eeeeeeeeeeeeeeeeeeeeeeeeeeeeeeeeeeeeeeee14610888576040516370a0823160e01b81523060048201526001600160a01b038516906370a0823190602401602060405180830381865afa15801561085f573d6000803e3d6000fd5b505050506040513d601f19601f820116820180604052508101906108839190612882565b61088a565b475b90506108978484836112cc565b50505050565b60006108a76110a1565b6108af6110ec565b6108b98383611306565b90505b92915050565b336108cc81610f97565b6107c782611562565b6001600160a01b03811660009081526006602052604081205460ff166108bc565b6108fe61202c565b6108bc826115b6565b3361091181610f97565b6107e68383611706565b3361092581610f97565b815160005b81811015610897576109548482815181106109475761094761289b565b6020026020010151611049565b60010161092a565b6060816001600160401b03811115610976576109766120c9565b6040519080825280602002602001820160405280156109a957816020015b60608152602001906001900390816109945790505b50905060005b82811015610a4957610a19308585848181106109cd576109cd61289b565b90506020028101906109df91906128b1565b8080601f0160208091040260200160405190810160405280939291908181526020018383808284376000920191909152506117ec92505050565b828281518110610a2b57610a2b61289b565b60200260200101819052508080610a4190612914565b9150506109af565b5092915050565b81518151606091908114610a7757604051633da4c02b60e11b815260040160405180910390fd5b6000816001600160401b03811115610a9157610a916120c9565b604051908082528060200260200182016040528015610ad657816020015b6040805180820190915260008082526020820152815260200190600190039081610aaf5790505b50905060005b82811015610b4557610b20868281518110610af957610af961289b565b6020026020010151868381518110610b1357610b1361289b565b6020026020010151611811565b828281518110610b3257610b3261289b565b6020908102919091010152600101610adc565b50949350505050565b33610b5881610f97565b610b606119a2565b600a5460ff1615610b8457604051637fcce2a960e01b815260040160405180910390fd5b600a805460ff191660011790558151600090815b81811015610c57576000858281518110610bb457610bb461289b565b60209081029190910181015190810151815191925090811580610bf157506002610bdd826119d5565b6006811115610bee57610bee6123cd565b14155b15610c2257825160405163f4a513b960e01b81526001600160a01b0390911660048201526024015b60405180910390fd5b6001600160a01b0381166000908152600960205260409020829055610c47828761292d565b9550836001019350505050610b98565b50600254821115610c7b57604051637fcce2a960e01b815260040160405180910390fd5b7fe07601c63ca06243ad2097d8c73579badb6cd3853a3a92f7552e5670d7ab61508433604051610cac929190612940565b60405180910390a150505050565b33610cc481610f97565b815160005b8181101561089757610cf3848281518110610ce657610ce661289b565b6020026020010151611562565b600101610cc9565b6000610d056119ea565b905090565b60006108bc826119d5565b60076020908152600091825260409182902080546001820154600283015460038401548651808801909752600485018054885260058601805460ff8088169a6101009098041698959794966001600160a01b039094169584019190610d79906129b1565b80601f0160208091040260200160405190810160405280929190818152602001828054610da5906129b1565b8015610df25780601f10610dc757610100808354040283529160200191610df2565b820191906000526020600020905b815481529060010190602001808311610dd557829003601f168201915b5050509190925250505060069091015460ff1687565b600081806020019051810190610e1e91906129fa565b6080810151600555805160038054602084015115156101000261ff00199315159390931661ffff19909116179190911790559050610e5b83611a32565b7f00000000000000000000000000000000000000000000000000000000000000006001600160a01b0316635ab1bd536040518163ffffffff1660e01b8152600401602060405180830381865afa158015610eb9573d6000803e3d6000fd5b505050506040513d601f19601f82011682018060405250810190610edd9190612a86565b600460006101000a8154816001600160a01b0302191690836001600160a01b03160217905550610f1581604001518260600151611706565b7f91efa3d50feccde0d0d202f8ae5c41ca0b2be614cebcb2bd2f4b019396e6568a8383604051610f46929190612aa3565b60405180910390a1505050565b610f5b6110a1565b610f636110ec565b6107c78282611a81565b610f756110a1565b8060026000828254610f87919061292d565b90915550610f9490508181565b50565b6001546040516329e40d4b60e01b815260048101919091526001600160a01b0382811660248301527f000000000000000000000000000000000000000000000000000000000000000016906329e40d4b90604401602060405180830381865afa158015611008573d6000803e3d6000fd5b505050506040513d601f19601f8201168201806040525081019061102c9190612abc565b610f945760405163075fd2b160e01b815260040160405180910390fd5b6001600160a01b038116600081815260066020908152604091829020805460ff1916905590513381527f4ddda4f889f9f60f81c0cccbc54ac7d1eb39b079ab7f29c2a1ceda4e0187085f91015b60405180910390a250565b336001600160a01b037f000000000000000000000000000000000000000000000000000000000000000016146110ea5760405163075fd2b160e01b815260040160405180910390fd5b565b6001546000036110ea57604051630f68fe6360e21b815260040160405180910390fd5b6111176119a2565b60015460405163068bcd8d60e01b81526000916001600160a01b037f0000000000000000000000000000000000000000000000000000000000000000169163068bcd8d9161116b9160040190815260200190565b600060405180830381865afa158015611188573d6000803e3d6000fd5b505050506040513d6000823e601f3d908101601f191682016040526111b09190810190612b78565b604081015185519192509060005b818110156112c35760008782815181106111da576111da61289b565b6020908102919091018101516001600160a01b03808216600090815260078452604080822060038101546009909652908220549395509390911691908190036112415760405163f4a513b960e01b81526001600160a01b0385166004820152602401610c19565b6001600160a01b0384166000908152600960205260408120556112658783836112cc565b604080516001600160a01b038481168252602082018490528b8116828401529151918616917fb5b51454adfa840bd593658325a60a50b0216f12eb5d2937efe6cea935675b7d9181900360600190a2846001019450505050506111be565b50505050505050565b73eeeeeeeeeeeeeeeeeeeeeeeeeeeeeeeeeeeeeeed196001600160a01b038416016112fb576107e68282611cb6565b6107e6838383611cd2565b60008161131281610f97565b600080600080611335604051806040016040528060008152602001606081525090565b888060200190518101906113499190612c2b565b600354929750929550935090915060ff168061136d57506001600160a01b03831615155b94508461137a578761137c565b825b965084801561139257506113908785611d21565b155b156113b05760405163075fd2b160e01b815260040160405180910390fd5b600354610100900460ff1680156113d3575060208101515115806113d357508051155b156113f15760405163c19e07c560e01b815260040160405180910390fd5b6001600160a01b0384166114235760405163f4a513b960e01b81526001600160a01b0388166004820152602401610c19565b6001600160a01b038088166000908152600760205260409020600381015490911661149057876001600160a01b03167fa197306e3dd5494a61a695381aa809a53b8e377a685e84e404a85d5a8da6cc628b8b604051611483929190612c98565b60405180910390a26114d4565b876001600160a01b03167faf5977db3aa7e6fc7d05e21c791ebd214afa76da27c8d8ddc8e4a9f742d7b2368b8b6040516114cb929190612c98565b60405180910390a25b60038101805473ffffffffffffffffffffffffffffffffffffffff19166001600160a01b0387161790558561150d57805460ff16611510565b60015b815460ff19169015151781558151600482019081556020830151839190600584019061153c9082612d11565b50505060068101805460ff19166002908117909155019190915550939695505050505050565b6001600160a01b038116600081815260066020908152604091829020805460ff1916600117905590513381527fc5137efba0dae412f1520f1f5633a45f7831a93f83d0db6c31d7fc2a877b88879101611096565b6115be61202c565b6001600160a01b03808316600090815260076020908152604091829020825160e081018452815460ff8082161515835261010090910416151581840152600182015481850152600282015460608201526003820154909416608085015282518084019093526004810180548452600582018054929460a087019490939084019190611648906129b1565b80601f0160208091040260200160405190810160405280929190818152602001828054611674906129b1565b80156116c15780601f10611696576101008083540402835291602001916116c1565b820191906000526020600020905b8154815290600101906020018083116116a457829003601f168201915b50505091909252505050815260068281015460209092019160ff16908111156116ec576116ec6123cd565b60068111156116fd576116fd6123cd565b90525092915050565b806001600160401b0316826001600160401b0316118061172e575042826001600160401b0316105b1561174c57604051637fcce2a960e01b815260040160405180910390fd5b6003805471ffffffffffffffffffffffffffffffff00001916620100006001600160401b03858116820271ffffffffffffffff00000000000000000000191692909217600160501b85841681029190911793849055604080519285048416835293049091166020820152338183015290517f70d34c8836b996cffd8970ba5edf940d83ca7c8f30f738ea4fd8566a37d93359916060908290030190a15050565b60606108b98383604051806060016040528060278152602001612f4060279139611e1a565b604080518082018252600080825260208083018290526001600160a01b03868116835260078252848320855160e081018752815460ff8082161515835261010090910416151581850152600182015481880152600282015460608201526003820154909216608083015285518087019096526004810180548752600582018054969795969395929460a087019490840191906118ac906129b1565b80601f01602080910402602001604051908101604052809291908181526020018280546118d8906129b1565b80156119255780601f106118fa57610100808354040283529160200191611925565b820191906000526020600020905b81548152906001019060200180831161190857829003601f168201915b50505091909252505050815260068281015460209092019160ff1690811115611950576119506123cd565b6006811115611961576119616123cd565b9052506001600160a01b0394851660009081526009602090815260409182902054825180840190935260809390930151909616815294850152509192915050565b600354600160501b90046001600160401b03164210156110ea57604051634543ced160e11b815260040160405180910390fd5b60006119e0826115b6565b60c0015192915050565b60035460009042620100009091046001600160401b031611801590611a215750600354600160501b90046001600160401b03164211155b15611a2c5750600190565b50600090565b611a3a6110a1565b60015415611a5b5760405163439a74c960e01b815260040160405180910390fd5b80600003611a7c57604051637fcce2a960e01b815260040160405180910390fd5b600155565b611a89611e92565b60008083806020019051810190611aa09190612dd0565b6001600160a01b0382811660009081526007602090815260408083209389168352600882528083206006909252909120549395509193509160ff16611af85760405163075fd2b160e01b815260040160405180910390fd5b611b0184611ee0565b611b295760405163f4a513b960e01b81526001600160a01b0385166004820152602401610c19565b611b37838260000154611f1c565b611b5457604051637fcce2a960e01b815260040160405180910390fd5b82600003611b7557604051637fcce2a960e01b815260040160405180910390fd5b82816000016000828254611b89919061292d565b90915550506001600160a01b0384166000908152600182016020908152604080832054600285019092528220549091611bc2838761292d565b90506000611be0611bdb83670de0b6b3a7640000612dfe565b611f35565b9050611bec8382612e15565b905080866001016000828254611c02919061292d565b90915550506001600160a01b038816600090815260018601602052604081208054899290611c3190849061292d565b90915550506001600160a01b038816600090815260028601602052604081208054839290611c6090849061292d565b9091555050604080518281526001600160a01b038b811660208301528a16917fe19137169fc4bceb2391a0921a61084851c12884df4897f569ec45a4ee46b7e3910160405180910390a250505050505050505050565b60008060008084865af16107c75763b12d13eb6000526004601cfd5b81601452806034526fa9059cbb00000000000000000000000060005260206000604460106000875af13d156001600051141716611d17576390b8ec186000526004601cfd5b6000603452505050565b6004805460405163dd93da4360e01b81526001600160a01b03858116938201939093526000928392169063dd93da4390602401600060405180830381865afa158015611d71573d6000803e3d6000fd5b505050506040513d6000823e601f3d908101601f19168201604052611d999190810190612e28565b600480548251604051635e8a791560e01b8152928301526001600160a01b0386811660248401529293509190911690635e8a791590604401602060405180830381865afa158015611dee573d6000803e3d6000fd5b505050506040513d601f19601f82011682018060405250810190611e129190612abc565b949350505050565b6060600080856001600160a01b031685604051611e379190612eee565b600060405180830381855af49150503d8060008114611e72576040519150601f19603f3d011682016040523d82523d6000602084013e611e77565b606091505b5091509150611e8886838387611f8e565b9695505050505050565b60035442620100009091046001600160401b03161180611ec35750600354600160501b90046001600160401b031642115b156110ea5760405162b828c960e81b815260040160405180910390fd5b600060026001600160a01b038316600090815260076020526040902060069081015460ff1690811115611f1557611f156123cd565b1492915050565b600554600090611f2c838561292d565b11159392505050565b6000806002611f4584600161292d565b611f4f9190612f0a565b90508291505b81811015611f8857905080600281611f6d8186612f0a565b611f77919061292d565b611f819190612f0a565b9050611f55565b50919050565b60608315611ffd578251600003611ff6576001600160a01b0385163b611ff65760405162461bcd60e51b815260206004820152601d60248201527f416464726573733a2063616c6c20746f206e6f6e2d636f6e74726163740000006044820152606401610c19565b5081611e12565b611e1283838151156120125781518083602001fd5b8060405162461bcd60e51b8152600401610c199190612f2c565b6040518060e00160405280600015158152602001600015158152602001600081526020016000815260200160006001600160a01b03168152602001612084604051806040016040528060008152602001606081525090565b81526020016000905290565b6001600160a01b0381168114610f9457600080fd5b6000602082840312156120b757600080fd5b81356120c281612090565b9392505050565b634e487b7160e01b600052604160045260246000fd5b604080519081016001600160401b0381118282101715612101576121016120c9565b60405290565b60405160c081016001600160401b0381118282101715612101576121016120c9565b604051601f8201601f191681016001600160401b0381118282101715612151576121516120c9565b604052919050565b60006001600160401b03821115612172576121726120c9565b5060051b60200190565b600082601f83011261218d57600080fd5b813560206121a261219d83612159565b612129565b82815260059290921b840181019181810190868411156121c157600080fd5b8286015b848110156121e55780356121d881612090565b83529183019183016121c5565b509695505050505050565b60006001600160401b03821115612209576122096120c9565b50601f01601f191660200190565b600082601f83011261222857600080fd5b813561223661219d826121f0565b81815284602083860101111561224b57600080fd5b816020850160208301376000918101602001919091529392505050565b60008060006060848603121561227d57600080fd5b83356001600160401b038082111561229457600080fd5b6122a08783880161217c565b945060208601359150808211156122b657600080fd5b506122c386828701612217565b92505060408401356122d481612090565b809150509250925092565b600080604083850312156122f257600080fd5b82356122fd81612090565b9150602083013561230d81612090565b809150509250929050565b6000806040838503121561232b57600080fd5b82356001600160401b0381111561234157600080fd5b61234d85828601612217565b925050602083013561230d81612090565b60005b83811015612379578181015183820152602001612361565b50506000910152565b6000815180845261239a81602086016020860161235e565b601f01601f19169290920160200192915050565b805182526000602082015160406020850152611e126040850182612382565b634e487b7160e01b600052602160045260246000fd5b6007811061240157634e487b7160e01b600052602160045260246000fd5b9052565b6020815281511515602082015260208201511515604082015260408201516060820152606082015160808201526001600160a01b0360808301511660a0820152600060a083015160e060c08401526124616101008401826123ae565b905060c084015161247560e08501826123e3565b509392505050565b6001600160401b0381168114610f9457600080fd5b600080604083850312156124a557600080fd5b82356124b08161247d565b9150602083013561230d8161247d565b6000602082840312156124d257600080fd5b81356001600160401b038111156124e857600080fd5b611e128482850161217c565b6000806020838503121561250757600080fd5b82356001600160401b038082111561251e57600080fd5b818501915085601f83011261253257600080fd5b81358181111561254157600080fd5b8660208260051b850101111561255657600080fd5b60209290920196919550909350505050565b6000602080830181845280855180835260408601915060408160051b870101925083870160005b828110156125bd57603f198886030184526125ab858351612382565b9450928501929085019060010161258f565b5092979650505050505050565b600080604083850312156125dd57600080fd5b82356001600160401b03808211156125f457600080fd5b6126008683870161217c565b935060209150818501358181111561261757600080fd5b8501601f8101871361262857600080fd5b803561263661219d82612159565b81815260059190911b8201840190848101908983111561265557600080fd5b8584015b8381101561268d578035868111156126715760008081fd5b61267f8c8983890101612217565b845250918601918601612659565b508096505050505050509250929050565b602080825282518282018190526000919060409081850190868401855b828110156126f1576126e184835180516001600160a01b03168252602090810151910152565b92840192908501906001016126bb565b5091979650505050505050565b6000602080838503121561271157600080fd5b82356001600160401b0381111561272757600080fd5b8301601f8101851361273857600080fd5b803561274661219d82612159565b81815260069190911b8201830190838101908783111561276557600080fd5b928401925b828410156127b157604084890312156127835760008081fd5b61278b6120df565b843561279681612090565b8152848601358682015282526040909301929084019061276a565b979650505050505050565b602081016108bc82846123e3565b871515815286151560208201528560408201528460608201526001600160a01b038416608082015260e060a0820152600061280860e08301856123ae565b905061281760c08301846123e3565b98975050505050505050565b6000806040838503121561283657600080fd5b8235915060208301356001600160401b0381111561285357600080fd5b61285f85828601612217565b9150509250929050565b60006020828403121561287b57600080fd5b5035919050565b60006020828403121561289457600080fd5b5051919050565b634e487b7160e01b600052603260045260246000fd5b6000808335601e198436030181126128c857600080fd5b8301803591506001600160401b038211156128e257600080fd5b6020019150368190038213156128f757600080fd5b9250929050565b634e487b7160e01b600052601160045260246000fd5b600060018201612926576129266128fe565b5060010190565b808201808211156108bc576108bc6128fe565b60408082528351828201819052600091906020906060850190828801855b828110156129945761298484835180516001600160a01b03168252602090810151910152565b928501929084019060010161295e565b5050506001600160a01b0395909516930192909252509092915050565b600181811c908216806129c557607f821691505b602082108103611f8857634e487b7160e01b600052602260045260246000fd5b805180151581146129f557600080fd5b919050565b600060a08284031215612a0c57600080fd5b60405160a081018181106001600160401b0382111715612a2e57612a2e6120c9565b604052612a3a836129e5565b8152612a48602084016129e5565b60208201526040830151612a5b8161247d565b60408201526060830151612a6e8161247d565b60608201526080928301519281019290925250919050565b600060208284031215612a9857600080fd5b81516120c281612090565b828152604060208201526000611e126040830184612382565b600060208284031215612ace57600080fd5b6108b9826129e5565b80516129f581612090565b600082601f830112612af357600080fd5b8151612b0161219d826121f0565b818152846020838601011115612b1657600080fd5b611e1282602083016020870161235e565b600060408284031215612b3957600080fd5b612b416120df565b90508151815260208201516001600160401b03811115612b6057600080fd5b612b6c84828501612ae2565b60208301525092915050565b600060208284031215612b8a57600080fd5b81516001600160401b0380821115612ba157600080fd5b9083019060c08286031215612bb557600080fd5b612bbd612107565b825181526020830151612bcf81612090565b60208201526040830151612be281612090565b6040820152606083015182811115612bf957600080fd5b612c0587828601612b27565b6060830152506080830151608082015260a083015160a082015280935050505092915050565b60008060008060808587031215612c4157600080fd5b8451612c4c81612090565b6020860151909450612c5d81612090565b6040860151606087015191945092506001600160401b03811115612c8057600080fd5b612c8c87828801612b27565b91505092959194509250565b604081526000612cab6040830185612382565b90506001600160a01b03831660208301529392505050565b601f8211156107e657600081815260208120601f850160051c81016020861015612cea5750805b601f850160051c820191505b81811015612d0957828155600101612cf6565b505050505050565b81516001600160401b03811115612d2a57612d2a6120c9565b612d3e81612d3884546129b1565b84612cc3565b602080601f831160018114612d735760008415612d5b5750858301515b600019600386901b1c1916600185901b178555612d09565b600085815260208120601f198616915b82811015612da257888601518255948401946001909101908401612d83565b5085821015612dc05787850151600019600388901b60f8161c191681555b5050505050600190811b01905550565b60008060408385031215612de357600080fd5b8251612dee81612090565b6020939093015192949293505050565b80820281158282048414176108bc576108bc6128fe565b818103818111156108bc576108bc6128fe565b600060208284031215612e3a57600080fd5b81516001600160401b0380821115612e5157600080fd5b9083019060c08286031215612e6557600080fd5b612e6d612107565b8251815260208301516020820152604083015182811115612e8d57600080fd5b612e9987828601612ae2565b604083015250606083015182811115612eb157600080fd5b612ebd87828601612b27565b606083015250612ecf60808401612ad7565b6080820152612ee060a08401612ad7565b60a082015295945050505050565b60008251612f0081846020870161235e565b9190910192915050565b600082612f2757634e487b7160e01b600052601260045260246000fd5b500490565b6020815260006108b9602083018461238256fe416464726573733a206c6f772d6c6576656c2064656c65676174652063616c6c206661696c6564a26469706673582212200413458505ad4436d4a247226bd319d0fee683a89f3a273c8d354945c66462ca64736f6c63430008130033",
  "linkReferences": {},
  "deployedLinkReferences": {}
}