{
  "_format": "hh-sol-artifact-1",
  "contractName": "QVImpactStreamStrategy",
  "sourceName": "contracts/strategies/_poc/qv-impact-stream/QVImpactStreamStrategy.sol",
  "abi": [
    {
      "inputs": [
        {
          "internalType": "address",
          "name": "_allo",
          "type": "address"
        },
        {
          "internalType": "string",
          "name": "_name",
          "type": "string"
        }
      ],
      "stateMutability": "nonpayable",
      "type": "constructor"
    },
    {
      "inputs": [],
      "name": "ALLOCATION_ACTIVE",
      "type": "error"
    },
    {
      "inputs": [],
      "name": "ALLOCATION_NOT_ACTIVE",
      "type": "error"
    },
    {
      "inputs": [],
      "name": "ALLOCATION_NOT_ENDED",
      "type": "error"
    },
    {
      "inputs": [],
      "name": "ALREADY_INITIALIZED",
      "type": "error"
    },
    {
      "inputs": [],
      "name": "AMOUNT_MISMATCH",
      "type": "error"
    },
    {
      "inputs": [],
      "name": "ANCHOR_ERROR",
      "type": "error"
    },
    {
      "inputs": [],
      "name": "ARRAY_MISMATCH",
      "type": "error"
    },
    {
      "inputs": [],
      "name": "INVALID",
      "type": "error"
    },
    {
      "inputs": [],
      "name": "INVALID_ADDRESS",
      "type": "error"
    },
    {
      "inputs": [],
      "name": "INVALID_FEE",
      "type": "error"
    },
    {
      "inputs": [],
      "name": "INVALID_METADATA",
      "type": "error"
    },
    {
      "inputs": [],
      "name": "INVALID_REGISTRATION",
      "type": "error"
    },
    {
      "inputs": [],
      "name": "IS_APPROVED_STRATEGY",
      "type": "error"
    },
    {
      "inputs": [],
      "name": "MISMATCH",
      "type": "error"
    },
    {
      "inputs": [],
      "name": "NONCE_NOT_AVAILABLE",
      "type": "error"
    },
    {
      "inputs": [],
      "name": "NOT_APPROVED_STRATEGY",
      "type": "error"
    },
    {
      "inputs": [],
      "name": "NOT_ENOUGH_FUNDS",
      "type": "error"
    },
    {
      "inputs": [],
      "name": "NOT_INITIALIZED",
      "type": "error"
    },
    {
      "inputs": [],
      "name": "NOT_PENDING_OWNER",
      "type": "error"
    },
    {
      "inputs": [],
      "name": "POOL_ACTIVE",
      "type": "error"
    },
    {
      "inputs": [],
      "name": "POOL_INACTIVE",
      "type": "error"
    },
    {
      "inputs": [],
      "name": "RECIPIENT_ALREADY_ACCEPTED",
      "type": "error"
    },
    {
      "inputs": [
        {
          "internalType": "address",
          "name": "recipientId",
          "type": "address"
        }
      ],
      "name": "RECIPIENT_ERROR",
      "type": "error"
    },
    {
      "inputs": [],
      "name": "RECIPIENT_NOT_ACCEPTED",
      "type": "error"
    },
    {
      "inputs": [],
      "name": "REGISTRATION_NOT_ACTIVE",
      "type": "error"
    },
    {
      "inputs": [],
      "name": "UNAUTHORIZED",
      "type": "error"
    },
    {
      "inputs": [],
      "name": "ZERO_ADDRESS",
      "type": "error"
    },
    {
      "anonymous": false,
      "inputs": [
        {
          "indexed": true,
          "internalType": "address",
          "name": "recipientId",
          "type": "address"
        },
        {
          "indexed": false,
          "internalType": "uint256",
          "name": "votes",
          "type": "uint256"
        },
        {
          "indexed": false,
          "internalType": "address",
          "name": "allocator",
          "type": "address"
        }
      ],
      "name": "Allocated",
      "type": "event"
    },
    {
      "anonymous": false,
      "inputs": [
        {
          "indexed": true,
          "internalType": "address",
          "name": "recipientId",
          "type": "address"
        },
        {
          "indexed": false,
          "internalType": "uint256",
          "name": "amount",
          "type": "uint256"
        },
        {
          "indexed": false,
          "internalType": "address",
          "name": "token",
          "type": "address"
        },
        {
          "indexed": false,
          "internalType": "address",
          "name": "sender",
          "type": "address"
        }
      ],
      "name": "Allocated",
      "type": "event"
    },
    {
      "anonymous": false,
      "inputs": [
        {
          "indexed": true,
          "internalType": "address",
          "name": "allocator",
          "type": "address"
        },
        {
          "indexed": false,
          "internalType": "address",
          "name": "sender",
          "type": "address"
        }
      ],
      "name": "AllocatorAdded",
      "type": "event"
    },
    {
      "anonymous": false,
      "inputs": [
        {
          "indexed": true,
          "internalType": "address",
          "name": "allocator",
          "type": "address"
        },
        {
          "indexed": false,
          "internalType": "address",
          "name": "sender",
          "type": "address"
        }
      ],
      "name": "AllocatorRemoved",
      "type": "event"
    },
    {
      "anonymous": false,
      "inputs": [
        {
          "indexed": true,
          "internalType": "address",
          "name": "recipientId",
          "type": "address"
        },
        {
          "indexed": false,
          "internalType": "address",
          "name": "recipientAddress",
          "type": "address"
        },
        {
          "indexed": false,
          "internalType": "uint256",
          "name": "amount",
          "type": "uint256"
        },
        {
          "indexed": false,
          "internalType": "address",
          "name": "sender",
          "type": "address"
        }
      ],
      "name": "Distributed",
      "type": "event"
    },
    {
      "anonymous": false,
      "inputs": [
        {
          "indexed": false,
          "internalType": "uint256",
          "name": "poolId",
          "type": "uint256"
        },
        {
          "indexed": false,
          "internalType": "bytes",
          "name": "data",
          "type": "bytes"
        }
      ],
      "name": "Initialized",
      "type": "event"
    },
    {
      "anonymous": false,
      "inputs": [
        {
          "components": [
            {
              "internalType": "address",
              "name": "recipientId",
              "type": "address"
            },
            {
              "internalType": "uint256",
              "name": "amount",
              "type": "uint256"
            }
          ],
          "indexed": false,
          "internalType": "struct QVImpactStreamStrategy.Payout[]",
          "name": "payouts",
          "type": "tuple[]"
        },
        {
          "indexed": false,
          "internalType": "address",
          "name": "sender",
          "type": "address"
        }
      ],
      "name": "PayoutSet",
      "type": "event"
    },
    {
      "anonymous": false,
      "inputs": [
        {
          "indexed": false,
          "internalType": "bool",
          "name": "active",
          "type": "bool"
        }
      ],
      "name": "PoolActive",
      "type": "event"
    },
    {
      "anonymous": false,
      "inputs": [
        {
          "indexed": true,
          "internalType": "address",
          "name": "recipientId",
          "type": "address"
        },
        {
          "indexed": false,
          "internalType": "bytes",
          "name": "data",
          "type": "bytes"
        },
        {
          "indexed": false,
          "internalType": "address",
          "name": "sender",
          "type": "address"
        }
      ],
      "name": "Registered",
      "type": "event"
    },
    {
      "anonymous": false,
      "inputs": [
        {
          "indexed": false,
          "internalType": "uint64",
          "name": "allocationStartTime",
          "type": "uint64"
        },
        {
          "indexed": false,
          "internalType": "uint64",
          "name": "allocationEndTime",
          "type": "uint64"
        },
        {
          "indexed": false,
          "internalType": "address",
          "name": "sender",
          "type": "address"
        }
      ],
      "name": "TimestampsUpdated",
      "type": "event"
    },
    {
      "anonymous": false,
      "inputs": [
        {
          "indexed": true,
          "internalType": "address",
          "name": "recipientId",
          "type": "address"
        },
        {
          "indexed": false,
          "internalType": "bytes",
          "name": "data",
          "type": "bytes"
        },
        {
          "indexed": false,
          "internalType": "address",
          "name": "sender",
          "type": "address"
        }
      ],
      "name": "UpdatedRegistration",
      "type": "event"
    },
    {
      "inputs": [],
      "name": "NATIVE",
      "outputs": [
        {
          "internalType": "address",
          "name": "",
          "type": "address"
        }
      ],
      "stateMutability": "view",
      "type": "function"
    },
    {
      "inputs": [
        {
          "internalType": "address",
          "name": "_allocator",
          "type": "address"
        }
      ],
      "name": "addAllocator",
      "outputs": [],
      "stateMutability": "nonpayable",
      "type": "function"
    },
    {
      "inputs": [
        {
          "internalType": "bytes",
          "name": "_data",
          "type": "bytes"
        },
        {
          "internalType": "address",
          "name": "_sender",
          "type": "address"
        }
      ],
      "name": "allocate",
      "outputs": [],
      "stateMutability": "payable",
      "type": "function"
    },
    {
      "inputs": [],
      "name": "allocationEndTime",
      "outputs": [
        {
          "internalType": "uint64",
          "name": "",
          "type": "uint64"
        }
      ],
      "stateMutability": "view",
      "type": "function"
    },
    {
      "inputs": [],
      "name": "allocationStartTime",
      "outputs": [
        {
          "internalType": "uint64",
          "name": "",
          "type": "uint64"
        }
      ],
      "stateMutability": "view",
      "type": "function"
    },
    {
      "inputs": [
        {
          "internalType": "address",
          "name": "",
          "type": "address"
        }
      ],
      "name": "allocators",
      "outputs": [
        {
          "internalType": "uint256",
          "name": "usedVoiceCredits",
          "type": "uint256"
        }
      ],
      "stateMutability": "view",
      "type": "function"
    },
    {
      "inputs": [
        {
          "internalType": "address",
          "name": "",
          "type": "address"
        }
      ],
      "name": "allowedAllocators",
      "outputs": [
        {
          "internalType": "bool",
          "name": "",
          "type": "bool"
        }
      ],
      "stateMutability": "view",
      "type": "function"
    },
    {
      "inputs": [
        {
          "internalType": "address[]",
          "name": "_allocators",
          "type": "address[]"
        }
      ],
      "name": "batchAddAllocator",
      "outputs": [],
      "stateMutability": "nonpayable",
      "type": "function"
    },
    {
      "inputs": [
        {
          "internalType": "address[]",
          "name": "_allocators",
          "type": "address[]"
        }
      ],
      "name": "batchRemoveAllocator",
      "outputs": [],
      "stateMutability": "nonpayable",
      "type": "function"
    },
    {
      "inputs": [
        {
          "internalType": "address[]",
          "name": "_recipientIds",
          "type": "address[]"
        },
        {
          "internalType": "bytes",
          "name": "_data",
          "type": "bytes"
        },
        {
          "internalType": "address",
          "name": "_sender",
          "type": "address"
        }
      ],
      "name": "distribute",
      "outputs": [],
      "stateMutability": "nonpayable",
      "type": "function"
    },
    {
      "inputs": [],
      "name": "getAllo",
      "outputs": [
        {
          "internalType": "contract IAllo",
          "name": "",
          "type": "address"
        }
      ],
      "stateMutability": "view",
      "type": "function"
    },
    {
      "inputs": [
        {
          "internalType": "address[]",
          "name": "_recipientIds",
          "type": "address[]"
        },
        {
          "internalType": "bytes[]",
          "name": "_data",
          "type": "bytes[]"
        }
      ],
      "name": "getPayouts",
      "outputs": [
        {
          "components": [
            {
              "internalType": "address",
              "name": "recipientAddress",
              "type": "address"
            },
            {
              "internalType": "uint256",
              "name": "amount",
              "type": "uint256"
            }
          ],
          "internalType": "struct IStrategy.PayoutSummary[]",
          "name": "",
          "type": "tuple[]"
        }
      ],
      "stateMutability": "view",
      "type": "function"
    },
    {
      "inputs": [],
      "name": "getPoolAmount",
      "outputs": [
        {
          "internalType": "uint256",
          "name": "",
          "type": "uint256"
        }
      ],
      "stateMutability": "view",
      "type": "function"
    },
    {
      "inputs": [],
      "name": "getPoolId",
      "outputs": [
        {
          "internalType": "uint256",
          "name": "",
          "type": "uint256"
        }
      ],
      "stateMutability": "view",
      "type": "function"
    },
    {
      "inputs": [
        {
          "internalType": "address",
          "name": "_recipientId",
          "type": "address"
        }
      ],
      "name": "getRecipient",
      "outputs": [
        {
          "components": [
            {
              "internalType": "bool",
              "name": "useRegistryAnchor",
              "type": "bool"
            },
            {
              "internalType": "bool",
              "name": "metadataRequired",
              "type": "bool"
            },
            {
              "internalType": "uint256",
              "name": "totalVotesReceived",
              "type": "uint256"
            },
            {
              "internalType": "uint256",
              "name": "requestedAmount",
              "type": "uint256"
            },
            {
              "internalType": "address",
              "name": "recipientAddress",
              "type": "address"
            },
            {
              "components": [
                {
                  "internalType": "uint256",
                  "name": "protocol",
                  "type": "uint256"
                },
                {
                  "internalType": "string",
                  "name": "pointer",
                  "type": "string"
                }
              ],
              "internalType": "struct Metadata",
              "name": "metadata",
              "type": "tuple"
            },
            {
              "internalType": "enum IStrategy.Status",
              "name": "recipientStatus",
              "type": "uint8"
            }
          ],
          "internalType": "struct QVImpactStreamStrategy.Recipient",
          "name": "",
          "type": "tuple"
        }
      ],
      "stateMutability": "view",
      "type": "function"
    },
    {
      "inputs": [
        {
          "internalType": "address",
          "name": "_recipientId",
          "type": "address"
        }
      ],
      "name": "getRecipientStatus",
      "outputs": [
        {
          "internalType": "enum IStrategy.Status",
          "name": "",
          "type": "uint8"
        }
      ],
      "stateMutability": "view",
      "type": "function"
    },
    {
      "inputs": [],
      "name": "getStrategyId",
      "outputs": [
        {
          "internalType": "bytes32",
          "name": "",
          "type": "bytes32"
        }
      ],
      "stateMutability": "view",
      "type": "function"
    },
    {
      "inputs": [
        {
          "internalType": "address",
          "name": "_allocator",
          "type": "address"
        }
      ],
      "name": "getVoiceCreditsCastByAllocator",
      "outputs": [
        {
          "internalType": "uint256",
          "name": "",
          "type": "uint256"
        }
      ],
      "stateMutability": "view",
      "type": "function"
    },
    {
      "inputs": [
        {
          "internalType": "address",
          "name": "_allocator",
          "type": "address"
        },
        {
          "internalType": "address",
          "name": "_recipientId",
          "type": "address"
        }
      ],
      "name": "getVoiceCreditsCastByAllocatorToRecipient",
      "outputs": [
        {
          "internalType": "uint256",
          "name": "",
          "type": "uint256"
        }
      ],
      "stateMutability": "view",
      "type": "function"
    },
    {
      "inputs": [
        {
          "internalType": "address",
          "name": "_allocator",
          "type": "address"
        },
        {
          "internalType": "address",
          "name": "_recipientId",
          "type": "address"
        }
      ],
      "name": "getVotesCastByAllocatorToRecipient",
      "outputs": [
        {
          "internalType": "uint256",
          "name": "",
          "type": "uint256"
        }
      ],
      "stateMutability": "view",
      "type": "function"
    },
    {
      "inputs": [
        {
          "internalType": "uint256",
          "name": "_amount",
          "type": "uint256"
        }
      ],
      "name": "increasePoolAmount",
      "outputs": [],
      "stateMutability": "nonpayable",
      "type": "function"
    },
    {
      "inputs": [
        {
          "internalType": "uint256",
          "name": "_poolId",
          "type": "uint256"
        },
        {
          "internalType": "bytes",
          "name": "_data",
          "type": "bytes"
        }
      ],
      "name": "initialize",
      "outputs": [],
      "stateMutability": "nonpayable",
      "type": "function"
    },
    {
      "inputs": [],
      "name": "isPoolActive",
      "outputs": [
        {
          "internalType": "bool",
          "name": "",
          "type": "bool"
        }
      ],
      "stateMutability": "view",
      "type": "function"
    },
    {
      "inputs": [
        {
          "internalType": "address",
          "name": "_allocator",
          "type": "address"
        }
      ],
      "name": "isValidAllocator",
      "outputs": [
        {
          "internalType": "bool",
          "name": "",
          "type": "bool"
        }
      ],
      "stateMutability": "view",
      "type": "function"
    },
    {
      "inputs": [],
      "name": "maxVoiceCreditsPerAllocator",
      "outputs": [
        {
          "internalType": "uint256",
          "name": "",
          "type": "uint256"
        }
      ],
      "stateMutability": "view",
      "type": "function"
    },
    {
      "inputs": [],
      "name": "metadataRequired",
      "outputs": [
        {
          "internalType": "bool",
          "name": "",
          "type": "bool"
        }
      ],
      "stateMutability": "view",
      "type": "function"
    },
    {
      "inputs": [
        {
          "internalType": "bytes[]",
          "name": "data",
          "type": "bytes[]"
        }
      ],
      "name": "multicall",
      "outputs": [
        {
          "internalType": "bytes[]",
          "name": "results",
          "type": "bytes[]"
        }
      ],
      "stateMutability": "nonpayable",
      "type": "function"
    },
    {
      "inputs": [],
      "name": "payoutSet",
      "outputs": [
        {
          "internalType": "bool",
          "name": "",
          "type": "bool"
        }
      ],
      "stateMutability": "view",
      "type": "function"
    },
    {
      "inputs": [
        {
          "internalType": "address",
          "name": "",
          "type": "address"
        }
      ],
      "name": "payouts",
      "outputs": [
        {
          "internalType": "uint256",
          "name": "",
          "type": "uint256"
        }
      ],
      "stateMutability": "view",
      "type": "function"
    },
    {
      "inputs": [
        {
          "internalType": "address",
          "name": "",
          "type": "address"
        }
      ],
      "name": "recipients",
      "outputs": [
        {
          "internalType": "bool",
          "name": "useRegistryAnchor",
          "type": "bool"
        },
        {
          "internalType": "bool",
          "name": "metadataRequired",
          "type": "bool"
        },
        {
          "internalType": "uint256",
          "name": "totalVotesReceived",
          "type": "uint256"
        },
        {
          "internalType": "uint256",
          "name": "requestedAmount",
          "type": "uint256"
        },
        {
          "internalType": "address",
          "name": "recipientAddress",
          "type": "address"
        },
        {
          "components": [
            {
              "internalType": "uint256",
              "name": "protocol",
              "type": "uint256"
            },
            {
              "internalType": "string",
              "name": "pointer",
              "type": "string"
            }
          ],
          "internalType": "struct Metadata",
          "name": "metadata",
          "type": "tuple"
        },
        {
          "internalType": "enum IStrategy.Status",
          "name": "recipientStatus",
          "type": "uint8"
        }
      ],
      "stateMutability": "view",
      "type": "function"
    },
    {
      "inputs": [
        {
          "internalType": "address",
          "name": "_token",
          "type": "address"
        },
        {
          "internalType": "address",
          "name": "_recipient",
          "type": "address"
        }
      ],
      "name": "recoverFunds",
      "outputs": [],
      "stateMutability": "nonpayable",
      "type": "function"
    },
    {
      "inputs": [
        {
          "internalType": "bytes",
          "name": "_data",
          "type": "bytes"
        },
        {
          "internalType": "address",
          "name": "_sender",
          "type": "address"
        }
      ],
      "name": "registerRecipient",
      "outputs": [
        {
          "internalType": "address",
          "name": "recipientId",
          "type": "address"
        }
      ],
      "stateMutability": "payable",
      "type": "function"
    },
    {
      "inputs": [
        {
          "internalType": "address",
          "name": "_allocator",
          "type": "address"
        }
      ],
      "name": "removeAllocator",
      "outputs": [],
      "stateMutability": "nonpayable",
      "type": "function"
    },
    {
      "inputs": [
        {
          "components": [
            {
              "internalType": "address",
              "name": "recipientId",
              "type": "address"
            },
            {
              "internalType": "uint256",
              "name": "amount",
              "type": "uint256"
            }
          ],
          "internalType": "struct QVImpactStreamStrategy.Payout[]",
          "name": "_payouts",
          "type": "tuple[]"
        }
      ],
      "name": "setPayouts",
      "outputs": [],
      "stateMutability": "nonpayable",
      "type": "function"
    },
    {
      "inputs": [
        {
          "internalType": "uint64",
          "name": "_allocationStartTime",
          "type": "uint64"
        },
        {
          "internalType": "uint64",
          "name": "_allocationEndTime",
          "type": "uint64"
        }
      ],
      "name": "updatePoolTimestamps",
      "outputs": [],
      "stateMutability": "nonpayable",
      "type": "function"
    },
    {
      "inputs": [],
      "name": "useRegistryAnchor",
      "outputs": [
        {
          "internalType": "bool",
          "name": "",
          "type": "bool"
        }
      ],
      "stateMutability": "view",
      "type": "function"
    },
    {
      "stateMutability": "payable",
      "type": "receive"
    }
  ],
  "bytecode": "0x60c06040523480156200001157600080fd5b5060405162002fb038038062002fb08339810160408190526200003491620000ba565b6001600160a01b038216608052604051829082906200005890829060200162000195565b60408051601f19818403018152919052805160209091012060a05250620001ca92505050565b634e487b7160e01b600052604160045260246000fd5b60005b83811015620000b157818101518382015260200162000097565b50506000910152565b60008060408385031215620000ce57600080fd5b82516001600160a01b0381168114620000e657600080fd5b60208401519092506001600160401b03808211156200010457600080fd5b818501915085601f8301126200011957600080fd5b8151818111156200012e576200012e6200007e565b604051601f8201601f19908116603f011681019083821181831017156200015957620001596200007e565b816040528281528860208487010111156200017357600080fd5b6200018683602083016020880162000094565b80955050505050509250929050565b6020815260008251806020840152620001b681604085016020870162000094565b601f01601f19169190910160400192915050565b60805160a051612da46200020c60003960006103e90152600081816102b001528181610e5d01528181610fc1015281816110ac01526111340152612da46000f3fe6080604052600436106102135760003560e01c806375777aaa11610118578063d2e17f59116100a0578063eb11af931161006f578063eb11af9314610701578063eb8203121461072e578063edd146cc14610761578063ef2920fc14610781578063f5b0dfb71461079457600080fd5b8063d2e17f591461065c578063d3482b1114610682578063d348d5b4146106cc578063df868ed3146106ec57600080fd5b8063a447fc9d116100e7578063a447fc9d146105a3578063ac9650d8146105c3578063b2b878d0146105f0578063c1bebdf51461061d578063cb0e85a61461063d57600080fd5b806375777aaa1461050b5780637738c1ca1461052b5780638d54694314610545578063a0cf0aea1461057b57600080fd5b806341f441251161019b5780634ab4ba421161016a5780634ab4ba42146104625780634d31d08714610477578063570897391461049757806362812a39146104b157806365bcfbe7146104de57600080fd5b806341f44125146103ba57806342fda9c7146103da5780634533d6781461040d5780634a4f8e041461044c57600080fd5b806324ae6a27116101e257806324ae6a27146102e8578063259d6dde146103085780632bbe0cae14610348578063316505401461035b57806338fff2d0146103a557600080fd5b806307fca3811461021f578063084ea36e146102415780630a6f0ee91461028157806315cc481e146102a157600080fd5b3661021a57005b600080fd5b34801561022b57600080fd5b5061023f61023a366004611f88565b6107b4565b005b34801561024d57600080fd5b5061026e61025c366004611f88565b60086020526000908152604090205481565b6040519081526020015b60405180910390f35b34801561028d57600080fd5b5061023f61029c36600461214b565b6107cb565b3480156102ad57600080fd5b507f00000000000000000000000000000000000000000000000000000000000000005b6040516001600160a01b039091168152602001610278565b3480156102f457600080fd5b5061023f6103033660046121c2565b6107eb565b34801561031457600080fd5b50610338610323366004611f88565b60066020526000908152604090205460ff1681565b6040519015158152602001610278565b6102d06103563660046121fb565b61089d565b34801561036757600080fd5b5061026e6103763660046121c2565b6001600160a01b0391821660009081526008602090815260408083209390941682526002909201909152205490565b3480156103b157600080fd5b5060015461026e565b3480156103c657600080fd5b5061023f6103d5366004611f88565b6108c2565b3480156103e657600080fd5b507f000000000000000000000000000000000000000000000000000000000000000061026e565b34801561041957600080fd5b5060035461043490600160501b90046001600160401b031681565b6040516001600160401b039091168152602001610278565b34801561045857600080fd5b5061026e60055481565b34801561046e57600080fd5b5060025461026e565b34801561048357600080fd5b50610338610492366004611f88565b6108d5565b3480156104a357600080fd5b506003546103389060ff1681565b3480156104bd57600080fd5b506104d16104cc366004611f88565b6108f6565b60405161027891906122e8565b3480156104ea57600080fd5b5061026e6104f9366004611f88565b60096020526000908152604090205481565b34801561051757600080fd5b5061023f610526366004612375565b610907565b34801561053757600080fd5b50600a546103389060ff1681565b34801561055157600080fd5b5061026e610560366004611f88565b6001600160a01b031660009081526008602052604090205490565b34801561058757600080fd5b506102d073eeeeeeeeeeeeeeeeeeeeeeeeeeeeeeeeeeeeeeee81565b3480156105af57600080fd5b5061023f6105be3660046123a3565b61091b565b3480156105cf57600080fd5b506105e36105de3660046123d7565b61095c565b604051610278919061244b565b3480156105fc57600080fd5b5061061061060b3660046124ad565b610a50565b6040516102789190612581565b34801561062957600080fd5b5061023f6106383660046125e1565b610b4e565b34801561064957600080fd5b5060035461033890610100900460ff1681565b34801561066857600080fd5b50600354610434906201000090046001600160401b031681565b34801561068e57600080fd5b5061026e61069d3660046121c2565b6001600160a01b0391821660009081526008602090815260408083209390941682526001909201909152205490565b3480156106d857600080fd5b5061023f6106e73660046123a3565b610cba565b3480156106f857600080fd5b50610338610cfb565b34801561070d57600080fd5b5061072161071c366004611f88565b610d0a565b604051610278919061269f565b34801561073a57600080fd5b5061074e610749366004611f88565b610d15565b60405161027897969594939291906126ad565b34801561076d57600080fd5b5061023f61077c366004612706565b610e08565b61023f61078f3660046121fb565b610f53565b3480156107a057600080fd5b5061023f6107af36600461274c565b610f6d565b336107be81610f97565b6107c782611049565b5050565b6107d36110a1565b6107db6110ec565b6107e683838361110f565b505050565b336107f581610f97565b60006001600160a01b03841673eeeeeeeeeeeeeeeeeeeeeeeeeeeeeeeeeeeeeeee14610888576040516370a0823160e01b81523060048201526001600160a01b038516906370a0823190602401602060405180830381865afa15801561085f573d6000803e3d6000fd5b505050506040513d601f19601f820116820180604052508101906108839190612765565b61088a565b475b90506108978484836112cc565b50505050565b60006108a76110a1565b6108af6110ec565b6108b98383611306565b90505b92915050565b336108cc81610f97565b6107c782611531565b6001600160a01b03811660009081526006602052604081205460ff166108bc565b6108fe611f0f565b6108bc82611585565b3361091181610f97565b6107e683836116d5565b3361092581610f97565b815160005b81811015610897576109548482815181106109475761094761277e565b6020026020010151611049565b60010161092a565b6060816001600160401b0381111561097657610976611fac565b6040519080825280602002602001820160405280156109a957816020015b60608152602001906001900390816109945790505b50905060005b82811015610a4957610a19308585848181106109cd576109cd61277e565b90506020028101906109df9190612794565b8080601f0160208091040260200160405190810160405280939291908181526020018383808284376000920191909152506117bb92505050565b828281518110610a2b57610a2b61277e565b60200260200101819052508080610a41906127f7565b9150506109af565b5092915050565b81518151606091908114610a7757604051633da4c02b60e11b815260040160405180910390fd5b6000816001600160401b03811115610a9157610a91611fac565b604051908082528060200260200182016040528015610ad657816020015b6040805180820190915260008082526020820152815260200190600190039081610aaf5790505b50905060005b82811015610b4557610b20868281518110610af957610af961277e565b6020026020010151868381518110610b1357610b1361277e565b60200260200101516117e0565b828281518110610b3257610b3261277e565b6020908102919091010152600101610adc565b50949350505050565b33610b5881610f97565b610b60611971565b600a5460ff1615610b8457604051637fcce2a960e01b815260040160405180910390fd5b600a805460ff191660011790558151600090815b81811015610c57576000858281518110610bb457610bb461277e565b60209081029190910181015190810151815191925090811580610bf157506002610bdd826119a4565b6006811115610bee57610bee6122b0565b14155b15610c2257825160405163f4a513b960e01b81526001600160a01b0390911660048201526024015b60405180910390fd5b6001600160a01b0381166000908152600960205260409020829055610c478287612810565b9550836001019350505050610b98565b50600254821115610c7b57604051637fcce2a960e01b815260040160405180910390fd5b7fe07601c63ca06243ad2097d8c73579badb6cd3853a3a92f7552e5670d7ab61508433604051610cac929190612823565b60405180910390a150505050565b33610cc481610f97565b815160005b8181101561089757610cf3848281518110610ce657610ce661277e565b6020026020010151611531565b600101610cc9565b6000610d056119b9565b905090565b60006108bc826119a4565b60076020908152600091825260409182902080546001820154600283015460038401548651808801909752600485018054885260058601805460ff8088169a6101009098041698959794966001600160a01b039094169584019190610d7990612894565b80601f0160208091040260200160405190810160405280929190818152602001828054610da590612894565b8015610df25780601f10610dc757610100808354040283529160200191610df2565b820191906000526020600020905b815481529060010190602001808311610dd557829003601f168201915b5050509190925250505060069091015460ff1687565b600081806020019051810190610e1e91906128dd565b6080810151600555805160038054602084015115156101000261ff00199315159390931661ffff19909116179190911790559050610e5b83611a01565b7f00000000000000000000000000000000000000000000000000000000000000006001600160a01b0316635ab1bd536040518163ffffffff1660e01b8152600401602060405180830381865afa158015610eb9573d6000803e3d6000fd5b505050506040513d601f19601f82011682018060405250810190610edd9190612969565b600460006101000a8154816001600160a01b0302191690836001600160a01b03160217905550610f15816040015182606001516116d5565b7f91efa3d50feccde0d0d202f8ae5c41ca0b2be614cebcb2bd2f4b019396e6568a8383604051610f46929190612986565b60405180910390a1505050565b610f5b6110a1565b610f636110ec565b6107c78282611a50565b610f756110a1565b8060026000828254610f879190612810565b90915550610f9490508181565b50565b6001546040516329e40d4b60e01b815260048101919091526001600160a01b0382811660248301527f000000000000000000000000000000000000000000000000000000000000000016906329e40d4b90604401602060405180830381865afa158015611008573d6000803e3d6000fd5b505050506040513d601f19601f8201168201806040525081019061102c919061299f565b610f945760405163075fd2b160e01b815260040160405180910390fd5b6001600160a01b038116600081815260066020908152604091829020805460ff1916905590513381527f4ddda4f889f9f60f81c0cccbc54ac7d1eb39b079ab7f29c2a1ceda4e0187085f91015b60405180910390a250565b336001600160a01b037f000000000000000000000000000000000000000000000000000000000000000016146110ea5760405163075fd2b160e01b815260040160405180910390fd5b565b6001546000036110ea57604051630f68fe6360e21b815260040160405180910390fd5b611117611971565b60015460405163068bcd8d60e01b81526000916001600160a01b037f0000000000000000000000000000000000000000000000000000000000000000169163068bcd8d9161116b9160040190815260200190565b600060405180830381865afa158015611188573d6000803e3d6000fd5b505050506040513d6000823e601f3d908101601f191682016040526111b09190810190612a46565b604081015185519192509060005b818110156112c35760008782815181106111da576111da61277e565b6020908102919091018101516001600160a01b03808216600090815260078452604080822060038101546009909652908220549395509390911691908190036112415760405163f4a513b960e01b81526001600160a01b0385166004820152602401610c19565b6001600160a01b0384166000908152600960205260408120556112658783836112cc565b604080516001600160a01b038481168252602082018490528b8116828401529151918616917fb5b51454adfa840bd593658325a60a50b0216f12eb5d2937efe6cea935675b7d9181900360600190a2846001019450505050506111be565b50505050505050565b73eeeeeeeeeeeeeeeeeeeeeeeeeeeeeeeeeeeeeeed196001600160a01b038416016112fb576107e68282611c85565b6107e6838383611ca1565b60008161131281610f97565b600080600080611335604051806040016040528060008152602001606081525090565b888060200190518101906113499190612af9565b600354929750929550935090915060ff168061136d57506001600160a01b03831615155b94508461137a578761137c565b825b600354909750610100900460ff1680156113a2575060208101515115806113a257508051155b156113c05760405163c19e07c560e01b815260040160405180910390fd5b6001600160a01b0384166113f25760405163f4a513b960e01b81526001600160a01b0388166004820152602401610c19565b6001600160a01b038088166000908152600760205260409020600381015490911661145f57876001600160a01b03167fa197306e3dd5494a61a695381aa809a53b8e377a685e84e404a85d5a8da6cc628b8b604051611452929190612b66565b60405180910390a26114a3565b876001600160a01b03167faf5977db3aa7e6fc7d05e21c791ebd214afa76da27c8d8ddc8e4a9f742d7b2368b8b60405161149a929190612b66565b60405180910390a25b60038101805473ffffffffffffffffffffffffffffffffffffffff19166001600160a01b038716179055856114dc57805460ff166114df565b60015b815460ff19169015151781558151600482019081556020830151839190600584019061150b9082612bdf565b50505060068101805460ff19166002908117909155019190915550939695505050505050565b6001600160a01b038116600081815260066020908152604091829020805460ff1916600117905590513381527fc5137efba0dae412f1520f1f5633a45f7831a93f83d0db6c31d7fc2a877b88879101611096565b61158d611f0f565b6001600160a01b03808316600090815260076020908152604091829020825160e081018452815460ff8082161515835261010090910416151581840152600182015481850152600282015460608201526003820154909416608085015282518084019093526004810180548452600582018054929460a08701949093908401919061161790612894565b80601f016020809104026020016040519081016040528092919081815260200182805461164390612894565b80156116905780601f1061166557610100808354040283529160200191611690565b820191906000526020600020905b81548152906001019060200180831161167357829003601f168201915b50505091909252505050815260068281015460209092019160ff16908111156116bb576116bb6122b0565b60068111156116cc576116cc6122b0565b90525092915050565b806001600160401b0316826001600160401b031611806116fd575042826001600160401b0316105b1561171b57604051637fcce2a960e01b815260040160405180910390fd5b6003805471ffffffffffffffffffffffffffffffff00001916620100006001600160401b03858116820271ffffffffffffffff00000000000000000000191692909217600160501b85841681029190911793849055604080519285048416835293049091166020820152338183015290517f70d34c8836b996cffd8970ba5edf940d83ca7c8f30f738ea4fd8566a37d93359916060908290030190a15050565b60606108b98383604051806060016040528060278152602001612d4860279139611cf0565b604080518082018252600080825260208083018290526001600160a01b03868116835260078252848320855160e081018752815460ff8082161515835261010090910416151581850152600182015481880152600282015460608201526003820154909216608083015285518087019096526004810180548752600582018054969795969395929460a0870194908401919061187b90612894565b80601f01602080910402602001604051908101604052809291908181526020018280546118a790612894565b80156118f45780601f106118c9576101008083540402835291602001916118f4565b820191906000526020600020905b8154815290600101906020018083116118d757829003601f168201915b50505091909252505050815260068281015460209092019160ff169081111561191f5761191f6122b0565b6006811115611930576119306122b0565b9052506001600160a01b0394851660009081526009602090815260409182902054825180840190935260809390930151909616815294850152509192915050565b600354600160501b90046001600160401b03164210156110ea57604051634543ced160e11b815260040160405180910390fd5b60006119af82611585565b60c0015192915050565b60035460009042620100009091046001600160401b0316118015906119f05750600354600160501b90046001600160401b03164211155b156119fb5750600190565b50600090565b611a096110a1565b60015415611a2a5760405163439a74c960e01b815260040160405180910390fd5b80600003611a4b57604051637fcce2a960e01b815260040160405180910390fd5b600155565b611a58611d68565b60008083806020019051810190611a6f9190612c9e565b6001600160a01b0382811660009081526007602090815260408083209389168352600882528083206006909252909120549395509193509160ff16611ac75760405163075fd2b160e01b815260040160405180910390fd5b611ad084611db6565b611af85760405163f4a513b960e01b81526001600160a01b0385166004820152602401610c19565b611b06838260000154611df2565b611b2357604051637fcce2a960e01b815260040160405180910390fd5b82600003611b4457604051637fcce2a960e01b815260040160405180910390fd5b82816000016000828254611b589190612810565b90915550506001600160a01b0384166000908152600182016020908152604080832054600285019092528220549091611b918387612810565b90506000611baf611baa83670de0b6b3a7640000612ccc565b611e0b565b9050611bbb8382612ce3565b905080866001016000828254611bd19190612810565b90915550506001600160a01b038816600090815260018601602052604081208054899290611c00908490612810565b90915550506001600160a01b038816600090815260028601602052604081208054839290611c2f908490612810565b9091555050604080518281526001600160a01b038b811660208301528a16917fe19137169fc4bceb2391a0921a61084851c12884df4897f569ec45a4ee46b7e3910160405180910390a250505050505050505050565b60008060008084865af16107c75763b12d13eb6000526004601cfd5b81601452806034526fa9059cbb00000000000000000000000060005260206000604460106000875af13d156001600051141716611ce6576390b8ec186000526004601cfd5b6000603452505050565b6060600080856001600160a01b031685604051611d0d9190612cf6565b600060405180830381855af49150503d8060008114611d48576040519150601f19603f3d011682016040523d82523d6000602084013e611d4d565b606091505b5091509150611d5e86838387611e64565b9695505050505050565b60035442620100009091046001600160401b03161180611d995750600354600160501b90046001600160401b031642115b156110ea5760405162b828c960e81b815260040160405180910390fd5b600060026001600160a01b038316600090815260076020526040902060069081015460ff1690811115611deb57611deb6122b0565b1492915050565b600554600090611e028385612810565b11159392505050565b6000806002611e1b846001612810565b611e259190612d12565b90508291505b81811015611e5e57905080600281611e438186612d12565b611e4d9190612810565b611e579190612d12565b9050611e2b565b50919050565b60608315611ed3578251600003611ecc576001600160a01b0385163b611ecc5760405162461bcd60e51b815260206004820152601d60248201527f416464726573733a2063616c6c20746f206e6f6e2d636f6e74726163740000006044820152606401610c19565b5081611edd565b611edd8383611ee5565b949350505050565b815115611ef55781518083602001fd5b8060405162461bcd60e51b8152600401610c199190612d34565b6040518060e00160405280600015158152602001600015158152602001600081526020016000815260200160006001600160a01b03168152602001611f67604051806040016040528060008152602001606081525090565b81526020016000905290565b6001600160a01b0381168114610f9457600080fd5b600060208284031215611f9a57600080fd5b8135611fa581611f73565b9392505050565b634e487b7160e01b600052604160045260246000fd5b604080519081016001600160401b0381118282101715611fe457611fe4611fac565b60405290565b60405160c081016001600160401b0381118282101715611fe457611fe4611fac565b604051601f8201601f191681016001600160401b038111828210171561203457612034611fac565b604052919050565b60006001600160401b0382111561205557612055611fac565b5060051b60200190565b600082601f83011261207057600080fd5b813560206120856120808361203c565b61200c565b82815260059290921b840181019181810190868411156120a457600080fd5b8286015b848110156120c85780356120bb81611f73565b83529183019183016120a8565b509695505050505050565b60006001600160401b038211156120ec576120ec611fac565b50601f01601f191660200190565b600082601f83011261210b57600080fd5b8135612119612080826120d3565b81815284602083860101111561212e57600080fd5b816020850160208301376000918101602001919091529392505050565b60008060006060848603121561216057600080fd5b83356001600160401b038082111561217757600080fd5b6121838783880161205f565b9450602086013591508082111561219957600080fd5b506121a6868287016120fa565b92505060408401356121b781611f73565b809150509250925092565b600080604083850312156121d557600080fd5b82356121e081611f73565b915060208301356121f081611f73565b809150509250929050565b6000806040838503121561220e57600080fd5b82356001600160401b0381111561222457600080fd5b612230858286016120fa565b92505060208301356121f081611f73565b60005b8381101561225c578181015183820152602001612244565b50506000910152565b6000815180845261227d816020860160208601612241565b601f01601f19169290920160200192915050565b805182526000602082015160406020850152611edd6040850182612265565b634e487b7160e01b600052602160045260246000fd5b600781106122e457634e487b7160e01b600052602160045260246000fd5b9052565b6020815281511515602082015260208201511515604082015260408201516060820152606082015160808201526001600160a01b0360808301511660a0820152600060a083015160e060c0840152612344610100840182612291565b905060c084015161235860e08501826122c6565b509392505050565b6001600160401b0381168114610f9457600080fd5b6000806040838503121561238857600080fd5b823561239381612360565b915060208301356121f081612360565b6000602082840312156123b557600080fd5b81356001600160401b038111156123cb57600080fd5b611edd8482850161205f565b600080602083850312156123ea57600080fd5b82356001600160401b038082111561240157600080fd5b818501915085601f83011261241557600080fd5b81358181111561242457600080fd5b8660208260051b850101111561243957600080fd5b60209290920196919550909350505050565b6000602080830181845280855180835260408601915060408160051b870101925083870160005b828110156124a057603f1988860301845261248e858351612265565b94509285019290850190600101612472565b5092979650505050505050565b600080604083850312156124c057600080fd5b82356001600160401b03808211156124d757600080fd5b6124e38683870161205f565b93506020915081850135818111156124fa57600080fd5b8501601f8101871361250b57600080fd5b80356125196120808261203c565b81815260059190911b8201840190848101908983111561253857600080fd5b8584015b83811015612570578035868111156125545760008081fd5b6125628c89838901016120fa565b84525091860191860161253c565b508096505050505050509250929050565b602080825282518282018190526000919060409081850190868401855b828110156125d4576125c484835180516001600160a01b03168252602090810151910152565b928401929085019060010161259e565b5091979650505050505050565b600060208083850312156125f457600080fd5b82356001600160401b0381111561260a57600080fd5b8301601f8101851361261b57600080fd5b80356126296120808261203c565b81815260069190911b8201830190838101908783111561264857600080fd5b928401925b8284101561269457604084890312156126665760008081fd5b61266e611fc2565b843561267981611f73565b8152848601358682015282526040909301929084019061264d565b979650505050505050565b602081016108bc82846122c6565b871515815286151560208201528560408201528460608201526001600160a01b038416608082015260e060a082015260006126eb60e0830185612291565b90506126fa60c08301846122c6565b98975050505050505050565b6000806040838503121561271957600080fd5b8235915060208301356001600160401b0381111561273657600080fd5b612742858286016120fa565b9150509250929050565b60006020828403121561275e57600080fd5b5035919050565b60006020828403121561277757600080fd5b5051919050565b634e487b7160e01b600052603260045260246000fd5b6000808335601e198436030181126127ab57600080fd5b8301803591506001600160401b038211156127c557600080fd5b6020019150368190038213156127da57600080fd5b9250929050565b634e487b7160e01b600052601160045260246000fd5b600060018201612809576128096127e1565b5060010190565b808201808211156108bc576108bc6127e1565b60408082528351828201819052600091906020906060850190828801855b828110156128775761286784835180516001600160a01b03168252602090810151910152565b9285019290840190600101612841565b5050506001600160a01b0395909516930192909252509092915050565b600181811c908216806128a857607f821691505b602082108103611e5e57634e487b7160e01b600052602260045260246000fd5b805180151581146128d857600080fd5b919050565b600060a082840312156128ef57600080fd5b60405160a081018181106001600160401b038211171561291157612911611fac565b60405261291d836128c8565b815261292b602084016128c8565b6020820152604083015161293e81612360565b6040820152606083015161295181612360565b60608201526080928301519281019290925250919050565b60006020828403121561297b57600080fd5b8151611fa581611f73565b828152604060208201526000611edd6040830184612265565b6000602082840312156129b157600080fd5b6108b9826128c8565b6000604082840312156129cc57600080fd5b6129d4611fc2565b90508151815260208201516001600160401b038111156129f357600080fd5b8201601f81018413612a0457600080fd5b8051612a12612080826120d3565b818152856020838501011115612a2757600080fd5b612a38826020830160208601612241565b602084015250909392505050565b600060208284031215612a5857600080fd5b81516001600160401b0380821115612a6f57600080fd5b9083019060c08286031215612a8357600080fd5b612a8b611fea565b825181526020830151612a9d81611f73565b60208201526040830151612ab081611f73565b6040820152606083015182811115612ac757600080fd5b612ad3878286016129ba565b6060830152506080830151608082015260a083015160a082015280935050505092915050565b60008060008060808587031215612b0f57600080fd5b8451612b1a81611f73565b6020860151909450612b2b81611f73565b6040860151606087015191945092506001600160401b03811115612b4e57600080fd5b612b5a878288016129ba565b91505092959194509250565b604081526000612b796040830185612265565b90506001600160a01b03831660208301529392505050565b601f8211156107e657600081815260208120601f850160051c81016020861015612bb85750805b601f850160051c820191505b81811015612bd757828155600101612bc4565b505050505050565b81516001600160401b03811115612bf857612bf8611fac565b612c0c81612c068454612894565b84612b91565b602080601f831160018114612c415760008415612c295750858301515b600019600386901b1c1916600185901b178555612bd7565b600085815260208120601f198616915b82811015612c7057888601518255948401946001909101908401612c51565b5085821015612c8e5787850151600019600388901b60f8161c191681555b5050505050600190811b01905550565b60008060408385031215612cb157600080fd5b8251612cbc81611f73565b6020939093015192949293505050565b80820281158282048414176108bc576108bc6127e1565b818103818111156108bc576108bc6127e1565b60008251612d08818460208701612241565b9190910192915050565b600082612d2f57634e487b7160e01b600052601260045260246000fd5b500490565b6020815260006108b9602083018461226556fe416464726573733a206c6f772d6c6576656c2064656c65676174652063616c6c206661696c6564a264697066735822122003cdd59bb572e2387b1b1cada2471f109051e7d8092357b2c6eed319ef2e7a2664736f6c63430008130033",
  "linkReferences": {},
  "deployedLinkReferences": {}
}