{
  "abi": [
    {
      "inputs": [
        {
          "internalType": "address",
          "name": "_allo",
          "type": "address"
        },
        {
          "internalType": "string",
          "name": "_name",
          "type": "string"
        }
      ],
      "stateMutability": "nonpayable",
      "type": "constructor"
    },
    {
      "inputs": [],
      "name": "ALLOCATION_ACTIVE",
      "type": "error"
    },
    {
      "inputs": [],
      "name": "ALLOCATION_NOT_ACTIVE",
      "type": "error"
    },
    {
      "inputs": [],
      "name": "ALLOCATION_NOT_ENDED",
      "type": "error"
    },
    {
      "inputs": [],
      "name": "ALREADY_INITIALIZED",
      "type": "error"
    },
    {
      "inputs": [],
      "name": "AMOUNT_MISMATCH",
      "type": "error"
    },
    {
      "inputs": [],
      "name": "ANCHOR_ERROR",
      "type": "error"
    },
    {
      "inputs": [],
      "name": "ARRAY_MISMATCH",
      "type": "error"
    },
    {
      "inputs": [],
      "name": "INVALID",
      "type": "error"
    },
    {
      "inputs": [],
      "name": "INVALID_ADDRESS",
      "type": "error"
    },
    {
      "inputs": [],
      "name": "INVALID_FEE",
      "type": "error"
    },
    {
      "inputs": [],
      "name": "INVALID_METADATA",
      "type": "error"
    },
    {
      "inputs": [],
      "name": "INVALID_REGISTRATION",
      "type": "error"
    },
    {
      "inputs": [],
      "name": "IS_APPROVED_STRATEGY",
      "type": "error"
    },
    {
      "inputs": [],
      "name": "MISMATCH",
      "type": "error"
    },
    {
      "inputs": [],
      "name": "NONCE_NOT_AVAILABLE",
      "type": "error"
    },
    {
      "inputs": [],
      "name": "NOT_APPROVED_STRATEGY",
      "type": "error"
    },
    {
      "inputs": [],
      "name": "NOT_ENOUGH_FUNDS",
      "type": "error"
    },
    {
      "inputs": [],
      "name": "NOT_INITIALIZED",
      "type": "error"
    },
    {
      "inputs": [],
      "name": "NOT_PENDING_OWNER",
      "type": "error"
    },
    {
      "inputs": [],
      "name": "POOL_ACTIVE",
      "type": "error"
    },
    {
      "inputs": [],
      "name": "POOL_INACTIVE",
      "type": "error"
    },
    {
      "inputs": [],
      "name": "RECIPIENT_ALREADY_ACCEPTED",
      "type": "error"
    },
    {
      "inputs": [
        {
          "internalType": "address",
          "name": "recipientId",
          "type": "address"
        }
      ],
      "name": "RECIPIENT_ERROR",
      "type": "error"
    },
    {
      "inputs": [],
      "name": "RECIPIENT_NOT_ACCEPTED",
      "type": "error"
    },
    {
      "inputs": [],
      "name": "REGISTRATION_NOT_ACTIVE",
      "type": "error"
    },
    {
      "inputs": [],
      "name": "UNAUTHORIZED",
      "type": "error"
    },
    {
      "inputs": [],
      "name": "ZERO_ADDRESS",
      "type": "error"
    },
    {
      "anonymous": false,
      "inputs": [
        {
          "indexed": true,
          "internalType": "address",
          "name": "recipientId",
          "type": "address"
        },
        {
          "indexed": false,
          "internalType": "uint256",
          "name": "votes",
          "type": "uint256"
        },
        {
          "indexed": false,
          "internalType": "address",
          "name": "allocator",
          "type": "address"
        }
      ],
      "name": "Allocated",
      "type": "event"
    },
    {
      "anonymous": false,
      "inputs": [
        {
          "indexed": true,
          "internalType": "address",
          "name": "recipientId",
          "type": "address"
        },
        {
          "indexed": false,
          "internalType": "uint256",
          "name": "amount",
          "type": "uint256"
        },
        {
          "indexed": false,
          "internalType": "address",
          "name": "token",
          "type": "address"
        },
        {
          "indexed": false,
          "internalType": "address",
          "name": "sender",
          "type": "address"
        }
      ],
      "name": "Allocated",
      "type": "event"
    },
    {
      "anonymous": false,
      "inputs": [
        {
          "indexed": true,
          "internalType": "address",
          "name": "allocator",
          "type": "address"
        },
        {
          "indexed": false,
          "internalType": "address",
          "name": "sender",
          "type": "address"
        }
      ],
      "name": "AllocatorAdded",
      "type": "event"
    },
    {
      "anonymous": false,
      "inputs": [
        {
          "indexed": true,
          "internalType": "address",
          "name": "allocator",
          "type": "address"
        },
        {
          "indexed": false,
          "internalType": "address",
          "name": "sender",
          "type": "address"
        }
      ],
      "name": "AllocatorRemoved",
      "type": "event"
    },
    {
      "anonymous": false,
      "inputs": [
        {
          "indexed": true,
          "internalType": "address",
          "name": "recipientId",
          "type": "address"
        },
        {
          "indexed": false,
          "internalType": "address",
          "name": "recipientAddress",
          "type": "address"
        },
        {
          "indexed": false,
          "internalType": "uint256",
          "name": "amount",
          "type": "uint256"
        },
        {
          "indexed": false,
          "internalType": "address",
          "name": "sender",
          "type": "address"
        }
      ],
      "name": "Distributed",
      "type": "event"
    },
    {
      "anonymous": false,
      "inputs": [
        {
          "indexed": false,
          "internalType": "uint256",
          "name": "poolId",
          "type": "uint256"
        },
        {
          "indexed": false,
          "internalType": "bytes",
          "name": "data",
          "type": "bytes"
        }
      ],
      "name": "Initialized",
      "type": "event"
    },
    {
      "anonymous": false,
      "inputs": [
        {
          "components": [
            {
              "internalType": "address",
              "name": "recipientId",
              "type": "address"
            },
            {
              "internalType": "uint256",
              "name": "amount",
              "type": "uint256"
            }
          ],
          "indexed": false,
          "internalType": "struct QVImpactStreamStrategy.Payout[]",
          "name": "payouts",
          "type": "tuple[]"
        },
        {
          "indexed": false,
          "internalType": "address",
          "name": "sender",
          "type": "address"
        }
      ],
      "name": "PayoutSet",
      "type": "event"
    },
    {
      "anonymous": false,
      "inputs": [
        {
          "indexed": false,
          "internalType": "bool",
          "name": "active",
          "type": "bool"
        }
      ],
      "name": "PoolActive",
      "type": "event"
    },
    {
      "anonymous": false,
      "inputs": [
        {
          "indexed": true,
          "internalType": "address",
          "name": "recipientId",
          "type": "address"
        },
        {
          "indexed": false,
          "internalType": "bytes",
          "name": "data",
          "type": "bytes"
        },
        {
          "indexed": false,
          "internalType": "address",
          "name": "sender",
          "type": "address"
        }
      ],
      "name": "Registered",
      "type": "event"
    },
    {
      "anonymous": false,
      "inputs": [
        {
          "indexed": false,
          "internalType": "uint64",
          "name": "allocationStartTime",
          "type": "uint64"
        },
        {
          "indexed": false,
          "internalType": "uint64",
          "name": "allocationEndTime",
          "type": "uint64"
        },
        {
          "indexed": false,
          "internalType": "address",
          "name": "sender",
          "type": "address"
        }
      ],
      "name": "TimestampsUpdated",
      "type": "event"
    },
    {
      "anonymous": false,
      "inputs": [
        {
          "indexed": true,
          "internalType": "address",
          "name": "recipientId",
          "type": "address"
        },
        {
          "indexed": false,
          "internalType": "bytes",
          "name": "data",
          "type": "bytes"
        },
        {
          "indexed": false,
          "internalType": "address",
          "name": "sender",
          "type": "address"
        }
      ],
      "name": "UpdatedRegistration",
      "type": "event"
    },
    {
      "inputs": [],
      "name": "NATIVE",
      "outputs": [
        {
          "internalType": "address",
          "name": "",
          "type": "address"
        }
      ],
      "stateMutability": "view",
      "type": "function"
    },
    {
      "inputs": [
        {
          "internalType": "address",
          "name": "_allocator",
          "type": "address"
        }
      ],
      "name": "addAllocator",
      "outputs": [],
      "stateMutability": "nonpayable",
      "type": "function"
    },
    {
      "inputs": [
        {
          "internalType": "bytes",
          "name": "_data",
          "type": "bytes"
        },
        {
          "internalType": "address",
          "name": "_sender",
          "type": "address"
        }
      ],
      "name": "allocate",
      "outputs": [],
      "stateMutability": "payable",
      "type": "function"
    },
    {
      "inputs": [],
      "name": "allocationEndTime",
      "outputs": [
        {
          "internalType": "uint64",
          "name": "",
          "type": "uint64"
        }
      ],
      "stateMutability": "view",
      "type": "function"
    },
    {
      "inputs": [],
      "name": "allocationStartTime",
      "outputs": [
        {
          "internalType": "uint64",
          "name": "",
          "type": "uint64"
        }
      ],
      "stateMutability": "view",
      "type": "function"
    },
    {
      "inputs": [
        {
          "internalType": "address",
          "name": "",
          "type": "address"
        }
      ],
      "name": "allocators",
      "outputs": [
        {
          "internalType": "uint256",
          "name": "voiceCredits",
          "type": "uint256"
        }
      ],
      "stateMutability": "view",
      "type": "function"
    },
    {
      "inputs": [
        {
          "internalType": "address",
          "name": "",
          "type": "address"
        }
      ],
      "name": "allowedAllocators",
      "outputs": [
        {
          "internalType": "bool",
          "name": "",
          "type": "bool"
        }
      ],
      "stateMutability": "view",
      "type": "function"
    },
    {
      "inputs": [
        {
          "internalType": "address[]",
          "name": "_allocators",
          "type": "address[]"
        }
      ],
      "name": "batchAddAllocator",
      "outputs": [],
      "stateMutability": "nonpayable",
      "type": "function"
    },
    {
      "inputs": [
        {
          "internalType": "address[]",
          "name": "_allocators",
          "type": "address[]"
        }
      ],
      "name": "batchRemoveAllocator",
      "outputs": [],
      "stateMutability": "nonpayable",
      "type": "function"
    },
    {
      "inputs": [
        {
          "internalType": "address[]",
          "name": "_recipientIds",
          "type": "address[]"
        },
        {
          "internalType": "bytes",
          "name": "_data",
          "type": "bytes"
        },
        {
          "internalType": "address",
          "name": "_sender",
          "type": "address"
        }
      ],
      "name": "distribute",
      "outputs": [],
      "stateMutability": "nonpayable",
      "type": "function"
    },
    {
      "inputs": [],
      "name": "getAllo",
      "outputs": [
        {
          "internalType": "contract IAllo",
          "name": "",
          "type": "address"
        }
      ],
      "stateMutability": "view",
      "type": "function"
    },
    {
      "inputs": [
        {
          "internalType": "address",
          "name": "_allocator",
          "type": "address"
        }
      ],
      "name": "getAllocatorVoiceCredits",
      "outputs": [
        {
          "internalType": "uint256",
          "name": "",
          "type": "uint256"
        }
      ],
      "stateMutability": "view",
      "type": "function"
    },
    {
      "inputs": [
        {
          "internalType": "address",
          "name": "_allocator",
          "type": "address"
        },
        {
          "internalType": "address",
          "name": "_recipientId",
          "type": "address"
        }
      ],
      "name": "getAllocatorVoiceCreditsCastToRecipient",
      "outputs": [
        {
          "internalType": "uint256",
          "name": "",
          "type": "uint256"
        }
      ],
      "stateMutability": "view",
      "type": "function"
    },
    {
      "inputs": [
        {
          "internalType": "address",
          "name": "_allocator",
          "type": "address"
        },
        {
          "internalType": "address",
          "name": "_recipientId",
          "type": "address"
        }
      ],
      "name": "getAllocatorVotesCastToRecipient",
      "outputs": [
        {
          "internalType": "uint256",
          "name": "",
          "type": "uint256"
        }
      ],
      "stateMutability": "view",
      "type": "function"
    },
    {
      "inputs": [
        {
          "internalType": "address[]",
          "name": "_recipientIds",
          "type": "address[]"
        },
        {
          "internalType": "bytes[]",
          "name": "_data",
          "type": "bytes[]"
        }
      ],
      "name": "getPayouts",
      "outputs": [
        {
          "components": [
            {
              "internalType": "address",
              "name": "recipientAddress",
              "type": "address"
            },
            {
              "internalType": "uint256",
              "name": "amount",
              "type": "uint256"
            }
          ],
          "internalType": "struct IStrategy.PayoutSummary[]",
          "name": "",
          "type": "tuple[]"
        }
      ],
      "stateMutability": "view",
      "type": "function"
    },
    {
      "inputs": [],
      "name": "getPoolAmount",
      "outputs": [
        {
          "internalType": "uint256",
          "name": "",
          "type": "uint256"
        }
      ],
      "stateMutability": "view",
      "type": "function"
    },
    {
      "inputs": [],
      "name": "getPoolId",
      "outputs": [
        {
          "internalType": "uint256",
          "name": "",
          "type": "uint256"
        }
      ],
      "stateMutability": "view",
      "type": "function"
    },
    {
      "inputs": [
        {
          "internalType": "address",
          "name": "_recipientId",
          "type": "address"
        }
      ],
      "name": "getRecipient",
      "outputs": [
        {
          "components": [
            {
              "internalType": "uint256",
              "name": "totalVotesReceived",
              "type": "uint256"
            },
            {
              "internalType": "uint256",
              "name": "requestedAmount",
              "type": "uint256"
            },
            {
              "internalType": "address",
              "name": "recipientAddress",
              "type": "address"
            },
            {
              "components": [
                {
                  "internalType": "uint256",
                  "name": "protocol",
                  "type": "uint256"
                },
                {
                  "internalType": "string",
                  "name": "pointer",
                  "type": "string"
                }
              ],
              "internalType": "struct Metadata",
              "name": "metadata",
              "type": "tuple"
            },
            {
              "internalType": "enum IStrategy.Status",
              "name": "recipientStatus",
              "type": "uint8"
            }
          ],
          "internalType": "struct QVImpactStreamStrategy.Recipient",
          "name": "",
          "type": "tuple"
        }
      ],
      "stateMutability": "view",
      "type": "function"
    },
    {
      "inputs": [
        {
          "internalType": "address",
          "name": "_recipientId",
          "type": "address"
        }
      ],
      "name": "getRecipientStatus",
      "outputs": [
        {
          "internalType": "enum IStrategy.Status",
          "name": "",
          "type": "uint8"
        }
      ],
      "stateMutability": "view",
      "type": "function"
    },
    {
      "inputs": [],
      "name": "getStrategyId",
      "outputs": [
        {
          "internalType": "bytes32",
          "name": "",
          "type": "bytes32"
        }
      ],
      "stateMutability": "view",
      "type": "function"
    },
    {
      "inputs": [
        {
          "internalType": "uint256",
          "name": "_amount",
          "type": "uint256"
        }
      ],
      "name": "increasePoolAmount",
      "outputs": [],
      "stateMutability": "nonpayable",
      "type": "function"
    },
    {
      "inputs": [
        {
          "internalType": "uint256",
          "name": "_poolId",
          "type": "uint256"
        },
        {
          "internalType": "bytes",
          "name": "_data",
          "type": "bytes"
        }
      ],
      "name": "initialize",
      "outputs": [],
      "stateMutability": "nonpayable",
      "type": "function"
    },
    {
      "inputs": [],
      "name": "isPoolActive",
      "outputs": [
        {
          "internalType": "bool",
          "name": "",
          "type": "bool"
        }
      ],
      "stateMutability": "view",
      "type": "function"
    },
    {
      "inputs": [
        {
          "internalType": "address",
          "name": "_allocator",
          "type": "address"
        }
      ],
      "name": "isValidAllocator",
      "outputs": [
        {
          "internalType": "bool",
          "name": "",
          "type": "bool"
        }
      ],
      "stateMutability": "view",
      "type": "function"
    },
    {
      "inputs": [],
      "name": "maxVoiceCreditsPerAllocator",
      "outputs": [
        {
          "internalType": "uint256",
          "name": "",
          "type": "uint256"
        }
      ],
      "stateMutability": "view",
      "type": "function"
    },
    {
      "inputs": [
        {
          "internalType": "bytes[]",
          "name": "data",
          "type": "bytes[]"
        }
      ],
      "name": "multicall",
      "outputs": [
        {
          "internalType": "bytes[]",
          "name": "results",
          "type": "bytes[]"
        }
      ],
      "stateMutability": "nonpayable",
      "type": "function"
    },
    {
      "inputs": [],
      "name": "payoutSet",
      "outputs": [
        {
          "internalType": "bool",
          "name": "",
          "type": "bool"
        }
      ],
      "stateMutability": "view",
      "type": "function"
    },
    {
      "inputs": [
        {
          "internalType": "address",
          "name": "",
          "type": "address"
        }
      ],
      "name": "payouts",
      "outputs": [
        {
          "internalType": "uint256",
          "name": "",
          "type": "uint256"
        }
      ],
      "stateMutability": "view",
      "type": "function"
    },
    {
      "inputs": [
        {
          "internalType": "address",
          "name": "",
          "type": "address"
        }
      ],
      "name": "recipients",
      "outputs": [
        {
          "internalType": "uint256",
          "name": "totalVotesReceived",
          "type": "uint256"
        },
        {
          "internalType": "uint256",
          "name": "requestedAmount",
          "type": "uint256"
        },
        {
          "internalType": "address",
          "name": "recipientAddress",
          "type": "address"
        },
        {
          "components": [
            {
              "internalType": "uint256",
              "name": "protocol",
              "type": "uint256"
            },
            {
              "internalType": "string",
              "name": "pointer",
              "type": "string"
            }
          ],
          "internalType": "struct Metadata",
          "name": "metadata",
          "type": "tuple"
        },
        {
          "internalType": "enum IStrategy.Status",
          "name": "recipientStatus",
          "type": "uint8"
        }
      ],
      "stateMutability": "view",
      "type": "function"
    },
    {
      "inputs": [
        {
          "internalType": "address",
          "name": "_token",
          "type": "address"
        },
        {
          "internalType": "address",
          "name": "_recipient",
          "type": "address"
        }
      ],
      "name": "recoverFunds",
      "outputs": [],
      "stateMutability": "nonpayable",
      "type": "function"
    },
    {
      "inputs": [
        {
          "internalType": "bytes",
          "name": "_data",
          "type": "bytes"
        },
        {
          "internalType": "address",
          "name": "_sender",
          "type": "address"
        }
      ],
      "name": "registerRecipient",
      "outputs": [
        {
          "internalType": "address",
          "name": "recipientId",
          "type": "address"
        }
      ],
      "stateMutability": "payable",
      "type": "function"
    },
    {
      "inputs": [
        {
          "internalType": "address",
          "name": "_allocator",
          "type": "address"
        }
      ],
      "name": "removeAllocator",
      "outputs": [],
      "stateMutability": "nonpayable",
      "type": "function"
    },
    {
      "inputs": [
        {
          "components": [
            {
              "internalType": "address",
              "name": "recipientId",
              "type": "address"
            },
            {
              "internalType": "uint256",
              "name": "amount",
              "type": "uint256"
            }
          ],
          "internalType": "struct QVImpactStreamStrategy.Payout[]",
          "name": "_payouts",
          "type": "tuple[]"
        }
      ],
      "name": "setPayouts",
      "outputs": [],
      "stateMutability": "nonpayable",
      "type": "function"
    },
    {
      "inputs": [
        {
          "internalType": "uint64",
          "name": "_allocationStartTime",
          "type": "uint64"
        },
        {
          "internalType": "uint64",
          "name": "_allocationEndTime",
          "type": "uint64"
        }
      ],
      "name": "updatePoolTimestamps",
      "outputs": [],
      "stateMutability": "nonpayable",
      "type": "function"
    },
    {
      "stateMutability": "payable",
      "type": "receive"
    }
  ],
  "bytecode": {
    "object": "0x60c06040523480156200001157600080fd5b506040516200307b3803806200307b8339810160408190526200003491620000ba565b6001600160a01b038216608052604051829082906200005890829060200162000195565b60408051601f19818403018152919052805160209091012060a05250620001ca92505050565b634e487b7160e01b600052604160045260246000fd5b60005b83811015620000b157818101518382015260200162000097565b50506000910152565b60008060408385031215620000ce57600080fd5b82516001600160a01b0381168114620000e657600080fd5b60208401519092506001600160401b03808211156200010457600080fd5b818501915085601f8301126200011957600080fd5b8151818111156200012e576200012e6200007e565b604051601f8201601f19908116603f011681019083821181831017156200015957620001596200007e565b816040528281528860208487010111156200017357600080fd5b6200018683602083016020880162000094565b80955050505050509250929050565b6020815260008251806020840152620001b681604085016020870162000094565b601f01601f19169190910160400192915050565b60805160a051612e6f6200020c60003960006103ff0152600081816102ba01528181610e2c01528181610faf0152818161109a01526111540152612e6f6000f3fe60806040526004361061021d5760003560e01c806365bcfbe71161011d578063c1bebdf5116100b0578063eb11af931161007f578063edd146cc11610064578063edd146cc14610708578063ef2920fc14610728578063f5b0dfb71461073b57600080fd5b8063eb11af93146106aa578063eb820312146106d757600080fd5b8063c1bebdf514610634578063d2e17f5914610654578063d348d5b414610675578063df868ed31461069557600080fd5b8063a447fc9d116100ec578063a447fc9d14610570578063ac9650d814610590578063b1c5076d146105bd578063b2b878d01461060757600080fd5b806365bcfbe7146104e157806375777aaa1461050e5780637738c1ca1461052e578063a0cf0aea1461054857600080fd5b80632bbe0cae116101b05780634533d6781161017f5780634ab4ba42116101645780634ab4ba421461047f5780634d31d0871461049457806362812a39146104b457600080fd5b80634533d678146104235780634a4f8e041461046957600080fd5b80632bbe0cae146103a857806338fff2d0146103bb57806341f44125146103d057806342fda9c7146103f057600080fd5b80631ddb45e9116101ec5780631ddb45e9146102f257806322683e4d1461032857806324ae6a2714610348578063259d6dde1461036857600080fd5b806307fca38114610229578063084ea36e1461024b5780630a6f0ee91461028b57806315cc481e146102ab57600080fd5b3661022457005b600080fd5b34801561023557600080fd5b50610249610244366004611fcb565b61075b565b005b34801561025757600080fd5b50610278610266366004611fcb565b60086020526000908152604090205481565b6040519081526020015b60405180910390f35b34801561029757600080fd5b506102496102a636600461218c565b610772565b3480156102b757600080fd5b507f00000000000000000000000000000000000000000000000000000000000000005b6040516001600160a01b039091168152602001610282565b3480156102fe57600080fd5b5061027861030d366004611fcb565b6001600160a01b031660009081526008602052604090205490565b34801561033457600080fd5b50610278610343366004612204565b610792565b34801561035457600080fd5b50610249610363366004612204565b6107c3565b34801561037457600080fd5b50610398610383366004611fcb565b60066020526000908152604090205460ff1681565b6040519015158152602001610282565b6102da6103b636600461223d565b61088e565b3480156103c757600080fd5b50600154610278565b3480156103dc57600080fd5b506102496103eb366004611fcb565b6108b1565b3480156103fc57600080fd5b507f0000000000000000000000000000000000000000000000000000000000000000610278565b34801561042f57600080fd5b506003546104509068010000000000000000900467ffffffffffffffff1681565b60405167ffffffffffffffff9091168152602001610282565b34801561047557600080fd5b5061027860055481565b34801561048b57600080fd5b50600254610278565b3480156104a057600080fd5b506103986104af366004611fcb565b6108c4565b3480156104c057600080fd5b506104d46104cf366004611fcb565b6108e5565b604051610282919061232b565b3480156104ed57600080fd5b506102786104fc366004611fcb565b60096020526000908152604090205481565b34801561051a57600080fd5b506102496105293660046123a0565b6108f6565b34801561053a57600080fd5b50600a546103989060ff1681565b34801561055457600080fd5b506102da73eeeeeeeeeeeeeeeeeeeeeeeeeeeeeeeeeeeeeeee81565b34801561057c57600080fd5b5061024961058b3660046123ce565b61090a565b34801561059c57600080fd5b506105b06105ab366004612403565b61094b565b6040516102829190612478565b3480156105c957600080fd5b506102786105d8366004612204565b6001600160a01b0391821660009081526008602090815260408083209390941682526001909201909152205490565b34801561061357600080fd5b506106276106223660046124da565b610a40565b60405161028291906125af565b34801561064057600080fd5b5061024961064f36600461260f565b610b58565b34801561066057600080fd5b506003546104509067ffffffffffffffff1681565b34801561068157600080fd5b506102496106903660046123ce565b610cc4565b3480156106a157600080fd5b50610398610d05565b3480156106b657600080fd5b506106ca6106c5366004611fcb565b610d14565b60405161028291906126ce565b3480156106e357600080fd5b506106f76106f2366004611fcb565b610d1f565b6040516102829594939291906126dc565b34801561071457600080fd5b50610249610723366004612719565b610e01565b61024961073636600461223d565b610f28565b34801561074757600080fd5b50610249610756366004612760565b610f42565b3361076581610f6c565b61076e82611037565b5050565b61077a61108f565b6107826110da565b61078d838383611116565b505050565b6001600160a01b03808316600090815260086020908152604080832093851683526002909301905220545b92915050565b336107cd81610f6c565b60006001600160a01b03841673eeeeeeeeeeeeeeeeeeeeeeeeeeeeeeeeeeeeeeee14610879576040517f70a082310000000000000000000000000000000000000000000000000000000081523060048201526001600160a01b038516906370a0823190602401602060405180830381865afa158015610850573d6000803e3d6000fd5b505050506040513d601f19601f820116820180604052508101906108749190612779565b61087b565b475b90506108888484836112ec565b50505050565b600061089861108f565b6108a06110da565b6108aa8383611331565b90506107bd565b336108bb81610f6c565b61076e8261156c565b6001600160a01b03811660009081526006602052604081205460ff166107bd565b6108ed611f64565b6107bd826115c0565b3361090081610f6c565b61078d83836116f1565b3361091481610f6c565b815160005b818110156108885761094384828151811061093657610936612792565b6020026020010151611037565b600101610919565b60608167ffffffffffffffff81111561096657610966611fe8565b60405190808252806020026020018201604052801561099957816020015b60608152602001906001900390816109845790505b50905060005b82811015610a3957610a09308585848181106109bd576109bd612792565b90506020028101906109cf91906127a8565b8080601f0160208091040260200160405190810160405280939291908181526020018383808284376000920191909152506117d392505050565b828281518110610a1b57610a1b612792565b60200260200101819052508080610a319061280c565b91505061099f565b5092915050565b81518151606091908114610a80576040517f7b49805600000000000000000000000000000000000000000000000000000000815260040160405180910390fd5b60008167ffffffffffffffff811115610a9b57610a9b611fe8565b604051908082528060200260200182016040528015610ae057816020015b6040805180820190915260008082526020820152815260200190600190039081610ab95790505b50905060005b82811015610b4f57610b2a868281518110610b0357610b03612792565b6020026020010151868381518110610b1d57610b1d612792565b60200260200101516117ff565b828281518110610b3c57610b3c612792565b6020908102919091010152600101610ae6565b50949350505050565b33610b6281610f6c565b610b6a611971565b600a5460ff1615610b8e57604051637fcce2a960e01b815260040160405180910390fd5b600a805460ff191660011790558151600090815b81811015610c61576000858281518110610bbe57610bbe612792565b60209081029190910181015190810151815191925090811580610bfb57506002610be7826119c3565b6006811115610bf857610bf86122f3565b14155b15610c2c57825160405163f4a513b960e01b81526001600160a01b0390911660048201526024015b60405180910390fd5b6001600160a01b0381166000908152600960205260409020829055610c518287612825565b9550836001019350505050610ba2565b50600254821115610c8557604051637fcce2a960e01b815260040160405180910390fd5b7fe07601c63ca06243ad2097d8c73579badb6cd3853a3a92f7552e5670d7ab61508433604051610cb6929190612838565b60405180910390a150505050565b33610cce81610f6c565b815160005b8181101561088857610cfd848281518110610cf057610cf0612792565b602002602001015161156c565b600101610cd3565b6000610d0f6119d8565b905090565b60006107bd826119c3565b60076020908152600091825260409182902080546001820154600283015485518087019096526003840180548752600485018054949793966001600160a01b0390931695949192840191610d72906128a9565b80601f0160208091040260200160405190810160405280929190818152602001828054610d9e906128a9565b8015610deb5780601f10610dc057610100808354040283529160200191610deb565b820191906000526020600020905b815481529060010190602001808311610dce57829003601f168201915b5050509190925250505060059091015460ff1685565b600081806020019051810190610e1791906128dd565b60408101516005559050610e2a83611a22565b7f00000000000000000000000000000000000000000000000000000000000000006001600160a01b0316635ab1bd536040518163ffffffff1660e01b8152600401602060405180830381865afa158015610e88573d6000803e3d6000fd5b505050506040513d601f19601f82011682018060405250810190610eac9190612948565b6004805473ffffffffffffffffffffffffffffffffffffffff19166001600160a01b039290921691909117905580516020820151610eea91906116f1565b7f91efa3d50feccde0d0d202f8ae5c41ca0b2be614cebcb2bd2f4b019396e6568a8383604051610f1b929190612965565b60405180910390a1505050565b610f3061108f565b610f386110da565b61076e8282611a8a565b610f4a61108f565b8060026000828254610f5c9190612825565b90915550610f6990508181565b50565b6001546040517f29e40d4b00000000000000000000000000000000000000000000000000000000815260048101919091526001600160a01b0382811660248301527f000000000000000000000000000000000000000000000000000000000000000016906329e40d4b90604401602060405180830381865afa158015610ff6573d6000803e3d6000fd5b505050506040513d601f19601f8201168201806040525081019061101a919061297e565b610f695760405163075fd2b160e01b815260040160405180910390fd5b6001600160a01b038116600081815260066020908152604091829020805460ff1916905590513381527f4ddda4f889f9f60f81c0cccbc54ac7d1eb39b079ab7f29c2a1ceda4e0187085f91015b60405180910390a250565b336001600160a01b037f000000000000000000000000000000000000000000000000000000000000000016146110d85760405163075fd2b160e01b815260040160405180910390fd5b565b6001546000036110d8576040517f3da3f98c00000000000000000000000000000000000000000000000000000000815260040160405180910390fd5b61111e611971565b6001546040517f068bcd8d0000000000000000000000000000000000000000000000000000000081526000916001600160a01b037f0000000000000000000000000000000000000000000000000000000000000000169163068bcd8d9161118b9160040190815260200190565b600060405180830381865afa1580156111a8573d6000803e3d6000fd5b505050506040513d6000823e601f3d908101601f191682016040526111d09190810190612a47565b604081015185519192509060005b818110156112e35760008782815181106111fa576111fa612792565b6020908102919091018101516001600160a01b03808216600090815260078452604080822060028101546009909652908220549395509390911691908190036112615760405163f4a513b960e01b81526001600160a01b0385166004820152602401610c23565b6001600160a01b0384166000908152600960205260408120556112858783836112ec565b604080516001600160a01b038481168252602082018490528b8116828401529151918616917fb5b51454adfa840bd593658325a60a50b0216f12eb5d2937efe6cea935675b7d9181900360600190a2846001019450505050506111de565b50505050505050565b7fffffffffffffffffffffffff11111111111111111111111111111111111111126001600160a01b038416016113265761078d8282611cbf565b61078d838383611cdb565b60008161133d81610f6c565b60008061135d604051806040016040528060008152602001606081525090565b868060200190518101906113719190612afb565b600480546040517fdd93da430000000000000000000000000000000000000000000000000000000081526001600160a01b0380881693820193909352959a50939750919550935060009291169063dd93da4390602401600060405180830381865afa1580156113e4573d6000803e3d6000fd5b505050506040513d6000823e601f3d908101601f1916820160405261140c9190810190612b69565b8051909150158061142457506001600160a01b038416155b1561144d5760405163f4a513b960e01b81526001600160a01b0387166004820152602401610c23565b6001600160a01b03808716600090815260076020526040902060028101549091166114ba57866001600160a01b03167fa197306e3dd5494a61a695381aa809a53b8e377a685e84e404a85d5a8da6cc628a8a6040516114ad929190612c30565b60405180910390a26114fe565b866001600160a01b03167faf5977db3aa7e6fc7d05e21c791ebd214afa76da27c8d8ddc8e4a9f742d7b2368a8a6040516114f5929190612c30565b60405180910390a25b60028101805473ffffffffffffffffffffffffffffffffffffffff19166001600160a01b038716179055825160038201908155602084015184919060048401906115489082612ca9565b50505060058101805460ff1916600217905560010192909255509295945050505050565b6001600160a01b038116600081815260066020908152604091829020805460ff1916600117905590513381527fc5137efba0dae412f1520f1f5633a45f7831a93f83d0db6c31d7fc2a877b88879101611084565b6115c8611f64565b6001600160a01b03808316600090815260076020908152604091829020825160a08101845281548152600182015481840152600282015490941684840152825180840190935260038101805484526004820180549294606087019490939084019190611633906128a9565b80601f016020809104026020016040519081016040528092919081815260200182805461165f906128a9565b80156116ac5780601f10611681576101008083540402835291602001916116ac565b820191906000526020600020905b81548152906001019060200180831161168f57829003601f168201915b505050919092525050508152600582015460209091019060ff1660068111156116d7576116d76122f3565b60068111156116e8576116e86122f3565b90525092915050565b8067ffffffffffffffff168267ffffffffffffffff16118061171c5750428267ffffffffffffffff16105b1561173a57604051637fcce2a960e01b815260040160405180910390fd5b6003805467ffffffffffffffff838116680100000000000000009081027fffffffffffffffffffffffffffffffff000000000000000000000000000000009093168683161792909217928390556040805184831681529290930416602082015233918101919091527f70d34c8836b996cffd8970ba5edf940d83ca7c8f30f738ea4fd8566a37d933599060600160405180910390a15050565b60606117f88383604051806060016040528060278152602001612e1360279139611d2a565b9392505050565b604080518082018252600080825260208083018290526001600160a01b03868116835260078252848320855160a081018752815481526001820154818501526002820154909216828701528551808701909652600381018054875260048201805496979596939592946060870194908401919061187b906128a9565b80601f01602080910402602001604051908101604052809291908181526020018280546118a7906128a9565b80156118f45780601f106118c9576101008083540402835291602001916118f4565b820191906000526020600020905b8154815290600101906020018083116118d757829003601f168201915b505050919092525050508152600582015460209091019060ff16600681111561191f5761191f6122f3565b6006811115611930576119306122f3565b9052506001600160a01b0394851660009081526009602090815260409182902054825180840184529390920151909616825294810194909452509192915050565b60035468010000000000000000900467ffffffffffffffff164210156110d8576040517f8a879da200000000000000000000000000000000000000000000000000000000815260040160405180910390fd5b60006119ce826115c0565b6080015192915050565b6003546000904267ffffffffffffffff90911611801590611a11575060035468010000000000000000900467ffffffffffffffff164211155b15611a1c5750600190565b50600090565b611a2a61108f565b60015415611a64576040517f439a74c900000000000000000000000000000000000000000000000000000000815260040160405180910390fd5b80600003611a8557604051637fcce2a960e01b815260040160405180910390fd5b600155565b611a92611da2565b60008083806020019051810190611aa99190612d69565b6001600160a01b0382811660009081526007602090815260408083209389168352600882528083206006909252909120549395509193509160ff16611b015760405163075fd2b160e01b815260040160405180910390fd5b611b0a84611e0c565b611b325760405163f4a513b960e01b81526001600160a01b0385166004820152602401610c23565b611b40838260000154611e47565b611b5d57604051637fcce2a960e01b815260040160405180910390fd5b82600003611b7e57604051637fcce2a960e01b815260040160405180910390fd5b82816000016000828254611b929190612825565b90915550506001600160a01b0384166000908152600182016020908152604080832054600285019092528220549091611bcb8387612825565b90506000611be9611be483670de0b6b3a7640000612d97565b611e60565b9050611bf58382612dae565b905080866000016000828254611c0b9190612825565b90915550506001600160a01b038816600090815260018601602052604081208054899290611c3a908490612825565b90915550506001600160a01b038816600090815260028601602052604081208054839290611c69908490612825565b9091555050604080518281526001600160a01b038b811660208301528a16917fe19137169fc4bceb2391a0921a61084851c12884df4897f569ec45a4ee46b7e3910160405180910390a250505050505050505050565b60008060008084865af161076e5763b12d13eb6000526004601cfd5b81601452806034526fa9059cbb00000000000000000000000060005260206000604460106000875af13d156001600051141716611d20576390b8ec186000526004601cfd5b6000603452505050565b6060600080856001600160a01b031685604051611d479190612dc1565b600060405180830381855af49150503d8060008114611d82576040519150601f19603f3d011682016040523d82523d6000602084013e611d87565b606091505b5091509150611d9886838387611eb9565b9695505050505050565b6003544267ffffffffffffffff9091161180611dd5575060035468010000000000000000900467ffffffffffffffff1642115b156110d8576040517fb828c90000000000000000000000000000000000000000000000000000000000815260040160405180910390fd5b600060026001600160a01b03831660009081526007602052604090206005015460ff166006811115611e4057611e406122f3565b1492915050565b600554600090611e578385612825565b11159392505050565b6000806002611e70846001612825565b611e7a9190612ddd565b90508291505b81811015611eb357905080600281611e988186612ddd565b611ea29190612825565b611eac9190612ddd565b9050611e80565b50919050565b60608315611f28578251600003611f21576001600160a01b0385163b611f215760405162461bcd60e51b815260206004820152601d60248201527f416464726573733a2063616c6c20746f206e6f6e2d636f6e74726163740000006044820152606401610c23565b5081611f32565b611f328383611f3a565b949350505050565b815115611f4a5781518083602001fd5b8060405162461bcd60e51b8152600401610c239190612dff565b6040518060a00160405280600081526020016000815260200160006001600160a01b03168152602001611faa604051806040016040528060008152602001606081525090565b81526020016000905290565b6001600160a01b0381168114610f6957600080fd5b600060208284031215611fdd57600080fd5b81356117f881611fb6565b634e487b7160e01b600052604160045260246000fd5b6040805190810167ffffffffffffffff8111828210171561202157612021611fe8565b60405290565b60405160c0810167ffffffffffffffff8111828210171561202157612021611fe8565b604051601f8201601f1916810167ffffffffffffffff8111828210171561207357612073611fe8565b604052919050565b600067ffffffffffffffff82111561209557612095611fe8565b5060051b60200190565b600082601f8301126120b057600080fd5b813560206120c56120c08361207b565b61204a565b82815260059290921b840181019181810190868411156120e457600080fd5b8286015b848110156121085780356120fb81611fb6565b83529183019183016120e8565b509695505050505050565b600067ffffffffffffffff82111561212d5761212d611fe8565b50601f01601f191660200190565b600082601f83011261214c57600080fd5b813561215a6120c082612113565b81815284602083860101111561216f57600080fd5b816020850160208301376000918101602001919091529392505050565b6000806000606084860312156121a157600080fd5b833567ffffffffffffffff808211156121b957600080fd5b6121c58783880161209f565b945060208601359150808211156121db57600080fd5b506121e88682870161213b565b92505060408401356121f981611fb6565b809150509250925092565b6000806040838503121561221757600080fd5b823561222281611fb6565b9150602083013561223281611fb6565b809150509250929050565b6000806040838503121561225057600080fd5b823567ffffffffffffffff81111561226757600080fd5b6122738582860161213b565b925050602083013561223281611fb6565b60005b8381101561229f578181015183820152602001612287565b50506000910152565b600081518084526122c0816020860160208601612284565b601f01601f19169290920160200192915050565b805182526000602082015160406020850152611f3260408501826122a8565b634e487b7160e01b600052602160045260246000fd5b6007811061232757634e487b7160e01b600052602160045260246000fd5b9052565b6020815281516020820152602082015160408201526001600160a01b0360408301511660608201526000606083015160a0608084015261236e60c08401826122d4565b9050608084015161238260a0850182612309565b509392505050565b67ffffffffffffffff81168114610f6957600080fd5b600080604083850312156123b357600080fd5b82356123be8161238a565b915060208301356122328161238a565b6000602082840312156123e057600080fd5b813567ffffffffffffffff8111156123f757600080fd5b611f328482850161209f565b6000806020838503121561241657600080fd5b823567ffffffffffffffff8082111561242e57600080fd5b818501915085601f83011261244257600080fd5b81358181111561245157600080fd5b8660208260051b850101111561246657600080fd5b60209290920196919550909350505050565b6000602080830181845280855180835260408601915060408160051b870101925083870160005b828110156124cd57603f198886030184526124bb8583516122a8565b9450928501929085019060010161249f565b5092979650505050505050565b600080604083850312156124ed57600080fd5b823567ffffffffffffffff8082111561250557600080fd5b6125118683870161209f565b935060209150818501358181111561252857600080fd5b8501601f8101871361253957600080fd5b80356125476120c08261207b565b81815260059190911b8201840190848101908983111561256657600080fd5b8584015b8381101561259e578035868111156125825760008081fd5b6125908c898389010161213b565b84525091860191860161256a565b508096505050505050509250929050565b602080825282518282018190526000919060409081850190868401855b82811015612602576125f284835180516001600160a01b03168252602090810151910152565b92840192908501906001016125cc565b5091979650505050505050565b6000602080838503121561262257600080fd5b823567ffffffffffffffff81111561263957600080fd5b8301601f8101851361264a57600080fd5b80356126586120c08261207b565b81815260069190911b8201830190838101908783111561267757600080fd5b928401925b828410156126c357604084890312156126955760008081fd5b61269d611ffe565b84356126a881611fb6565b8152848601358682015282526040909301929084019061267c565b979650505050505050565b602081016107bd8284612309565b8581528460208201526001600160a01b038416604082015260a06060820152600061270a60a08301856122d4565b9050611d986080830184612309565b6000806040838503121561272c57600080fd5b82359150602083013567ffffffffffffffff81111561274a57600080fd5b6127568582860161213b565b9150509250929050565b60006020828403121561277257600080fd5b5035919050565b60006020828403121561278b57600080fd5b5051919050565b634e487b7160e01b600052603260045260246000fd5b6000808335601e198436030181126127bf57600080fd5b83018035915067ffffffffffffffff8211156127da57600080fd5b6020019150368190038213156127ef57600080fd5b9250929050565b634e487b7160e01b600052601160045260246000fd5b60006001820161281e5761281e6127f6565b5060010190565b808201808211156107bd576107bd6127f6565b60408082528351828201819052600091906020906060850190828801855b8281101561288c5761287c84835180516001600160a01b03168252602090810151910152565b9285019290840190600101612856565b5050506001600160a01b0395909516930192909252509092915050565b600181811c908216806128bd57607f821691505b602082108103611eb357634e487b7160e01b600052602260045260246000fd5b6000606082840312156128ef57600080fd5b6040516060810181811067ffffffffffffffff8211171561291257612912611fe8565b60405282516129208161238a565b815260208301516129308161238a565b60208201526040928301519281019290925250919050565b60006020828403121561295a57600080fd5b81516117f881611fb6565b828152604060208201526000611f3260408301846122a8565b60006020828403121561299057600080fd5b815180151581146117f857600080fd5b80516129ab81611fb6565b919050565b600082601f8301126129c157600080fd5b81516129cf6120c082612113565b8181528460208386010111156129e457600080fd5b611f32826020830160208701612284565b600060408284031215612a0757600080fd5b612a0f611ffe565b905081518152602082015167ffffffffffffffff811115612a2f57600080fd5b612a3b848285016129b0565b60208301525092915050565b600060208284031215612a5957600080fd5b815167ffffffffffffffff80821115612a7157600080fd5b9083019060c08286031215612a8557600080fd5b612a8d612027565b825181526020830151612a9f81611fb6565b60208201526040830151612ab281611fb6565b6040820152606083015182811115612ac957600080fd5b612ad5878286016129f5565b6060830152506080830151608082015260a083015160a082015280935050505092915050565b60008060008060808587031215612b1157600080fd5b8451612b1c81611fb6565b6020860151909450612b2d81611fb6565b60408601516060870151919450925067ffffffffffffffff811115612b5157600080fd5b612b5d878288016129f5565b91505092959194509250565b600060208284031215612b7b57600080fd5b815167ffffffffffffffff80821115612b9357600080fd5b9083019060c08286031215612ba757600080fd5b612baf612027565b8251815260208301516020820152604083015182811115612bcf57600080fd5b612bdb878286016129b0565b604083015250606083015182811115612bf357600080fd5b612bff878286016129f5565b606083015250612c11608084016129a0565b6080820152612c2260a084016129a0565b60a082015295945050505050565b604081526000612c4360408301856122a8565b90506001600160a01b03831660208301529392505050565b601f82111561078d57600081815260208120601f850160051c81016020861015612c825750805b601f850160051c820191505b81811015612ca157828155600101612c8e565b505050505050565b815167ffffffffffffffff811115612cc357612cc3611fe8565b612cd781612cd184546128a9565b84612c5b565b602080601f831160018114612d0c5760008415612cf45750858301515b600019600386901b1c1916600185901b178555612ca1565b600085815260208120601f198616915b82811015612d3b57888601518255948401946001909101908401612d1c565b5085821015612d595787850151600019600388901b60f8161c191681555b5050505050600190811b01905550565b60008060408385031215612d7c57600080fd5b8251612d8781611fb6565b6020939093015192949293505050565b80820281158282048414176107bd576107bd6127f6565b818103818111156107bd576107bd6127f6565b60008251612dd3818460208701612284565b9190910192915050565b600082612dfa57634e487b7160e01b600052601260045260246000fd5b500490565b6020815260006117f860208301846122a856fe416464726573733a206c6f772d6c6576656c2064656c65676174652063616c6c206661696c6564a26469706673582212201257c288f771d19f385aacb9eb8f2b6b38a41ff5e9ebe41da6c503028554445064736f6c63430008130033",
    "linkReferences": {}
  },
  "methodIdentifiers": {
    "NATIVE()": "a0cf0aea",
    "addAllocator(address)": "41f44125",
    "allocate(bytes,address)": "ef2920fc",
    "allocationEndTime()": "4533d678",
    "allocationStartTime()": "d2e17f59",
    "allocators(address)": "084ea36e",
    "allowedAllocators(address)": "259d6dde",
    "batchAddAllocator(address[])": "d348d5b4",
    "batchRemoveAllocator(address[])": "a447fc9d",
    "distribute(address[],bytes,address)": "0a6f0ee9",
    "getAllo()": "15cc481e",
    "getAllocatorVoiceCredits(address)": "1ddb45e9",
    "getAllocatorVoiceCreditsCastToRecipient(address,address)": "b1c5076d",
    "getAllocatorVotesCastToRecipient(address,address)": "22683e4d",
    "getPayouts(address[],bytes[])": "b2b878d0",
    "getPoolAmount()": "4ab4ba42",
    "getPoolId()": "38fff2d0",
    "getRecipient(address)": "62812a39",
    "getRecipientStatus(address)": "eb11af93",
    "getStrategyId()": "42fda9c7",
    "increasePoolAmount(uint256)": "f5b0dfb7",
    "initialize(uint256,bytes)": "edd146cc",
    "isPoolActive()": "df868ed3",
    "isValidAllocator(address)": "4d31d087",
    "maxVoiceCreditsPerAllocator()": "4a4f8e04",
    "multicall(bytes[])": "ac9650d8",
    "payoutSet()": "7738c1ca",
    "payouts(address)": "65bcfbe7",
    "recipients(address)": "eb820312",
    "recoverFunds(address,address)": "24ae6a27",
    "registerRecipient(bytes,address)": "2bbe0cae",
    "removeAllocator(address)": "07fca381",
    "setPayouts((address,uint256)[])": "c1bebdf5",
    "updatePoolTimestamps(uint64,uint64)": "75777aaa"
  },
  "storageLayout": {
    "storage": [
      {
        "astId": 3263,
        "contract": "contracts/strategies/_poc/qv-impact-stream/QVImpactStreamStrategy.sol:QVImpactStreamStrategy",
        "label": "poolActive",
        "offset": 0,
        "slot": "0",
        "type": "t_bool"
      },
      {
        "astId": 3265,
        "contract": "contracts/strategies/_poc/qv-impact-stream/QVImpactStreamStrategy.sol:QVImpactStreamStrategy",
        "label": "poolId",
        "offset": 0,
        "slot": "1",
        "type": "t_uint256"
      },
      {
        "astId": 3267,
        "contract": "contracts/strategies/_poc/qv-impact-stream/QVImpactStreamStrategy.sol:QVImpactStreamStrategy",
        "label": "poolAmount",
        "offset": 0,
        "slot": "2",
        "type": "t_uint256"
      },
      {
        "astId": 9197,
        "contract": "contracts/strategies/_poc/qv-impact-stream/QVImpactStreamStrategy.sol:QVImpactStreamStrategy",
        "label": "allocationStartTime",
        "offset": 0,
        "slot": "3",
        "type": "t_uint64"
      },
      {
        "astId": 9199,
        "contract": "contracts/strategies/_poc/qv-impact-stream/QVImpactStreamStrategy.sol:QVImpactStreamStrategy",
        "label": "allocationEndTime",
        "offset": 8,
        "slot": "3",
        "type": "t_uint64"
      },
      {
        "astId": 9203,
        "contract": "contracts/strategies/_poc/qv-impact-stream/QVImpactStreamStrategy.sol:QVImpactStreamStrategy",
        "label": "_registry",
        "offset": 0,
        "slot": "4",
        "type": "t_contract(IRegistry)2625"
      },
      {
        "astId": 9206,
        "contract": "contracts/strategies/_poc/qv-impact-stream/QVImpactStreamStrategy.sol:QVImpactStreamStrategy",
        "label": "maxVoiceCreditsPerAllocator",
        "offset": 0,
        "slot": "5",
        "type": "t_uint256"
      },
      {
        "astId": 9211,
        "contract": "contracts/strategies/_poc/qv-impact-stream/QVImpactStreamStrategy.sol:QVImpactStreamStrategy",
        "label": "allowedAllocators",
        "offset": 0,
        "slot": "6",
        "type": "t_mapping(t_address,t_bool)"
      },
      {
        "astId": 9217,
        "contract": "contracts/strategies/_poc/qv-impact-stream/QVImpactStreamStrategy.sol:QVImpactStreamStrategy",
        "label": "recipients",
        "offset": 0,
        "slot": "7",
        "type": "t_mapping(t_address,t_struct(Recipient)9250_storage)"
      },
      {
        "astId": 9223,
        "contract": "contracts/strategies/_poc/qv-impact-stream/QVImpactStreamStrategy.sol:QVImpactStreamStrategy",
        "label": "allocators",
        "offset": 0,
        "slot": "8",
        "type": "t_mapping(t_address,t_struct(Allocator)9261_storage)"
      },
      {
        "astId": 9228,
        "contract": "contracts/strategies/_poc/qv-impact-stream/QVImpactStreamStrategy.sol:QVImpactStreamStrategy",
        "label": "payouts",
        "offset": 0,
        "slot": "9",
        "type": "t_mapping(t_address,t_uint256)"
      },
      {
        "astId": 9230,
        "contract": "contracts/strategies/_poc/qv-impact-stream/QVImpactStreamStrategy.sol:QVImpactStreamStrategy",
        "label": "payoutSet",
        "offset": 0,
        "slot": "10",
        "type": "t_bool"
      }
    ],
    "types": {
      "t_address": {
        "encoding": "inplace",
        "label": "address",
        "numberOfBytes": "20"
      },
      "t_bool": {
        "encoding": "inplace",
        "label": "bool",
        "numberOfBytes": "1"
      },
      "t_contract(IRegistry)2625": {
        "encoding": "inplace",
        "label": "contract IRegistry",
        "numberOfBytes": "20"
      },
      "t_enum(Status)2638": {
        "encoding": "inplace",
        "label": "enum IStrategy.Status",
        "numberOfBytes": "1"
      },
      "t_mapping(t_address,t_bool)": {
        "encoding": "mapping",
        "key": "t_address",
        "label": "mapping(address => bool)",
        "numberOfBytes": "32",
        "value": "t_bool"
      },
      "t_mapping(t_address,t_struct(Allocator)9261_storage)": {
        "encoding": "mapping",
        "key": "t_address",
        "label": "mapping(address => struct QVImpactStreamStrategy.Allocator)",
        "numberOfBytes": "32",
        "value": "t_struct(Allocator)9261_storage"
      },
      "t_mapping(t_address,t_struct(Recipient)9250_storage)": {
        "encoding": "mapping",
        "key": "t_address",
        "label": "mapping(address => struct QVImpactStreamStrategy.Recipient)",
        "numberOfBytes": "32",
        "value": "t_struct(Recipient)9250_storage"
      },
      "t_mapping(t_address,t_uint256)": {
        "encoding": "mapping",
        "key": "t_address",
        "label": "mapping(address => uint256)",
        "numberOfBytes": "32",
        "value": "t_uint256"
      },
      "t_string_storage": {
        "encoding": "bytes",
        "label": "string",
        "numberOfBytes": "32"
      },
      "t_struct(Allocator)9261_storage": {
        "encoding": "inplace",
        "label": "struct QVImpactStreamStrategy.Allocator",
        "numberOfBytes": "96",
        "members": [
          {
            "astId": 9252,
            "contract": "contracts/strategies/_poc/qv-impact-stream/QVImpactStreamStrategy.sol:QVImpactStreamStrategy",
            "label": "voiceCredits",
            "offset": 0,
            "slot": "0",
            "type": "t_uint256"
          },
          {
            "astId": 9256,
            "contract": "contracts/strategies/_poc/qv-impact-stream/QVImpactStreamStrategy.sol:QVImpactStreamStrategy",
            "label": "voiceCreditsCastToRecipient",
            "offset": 0,
            "slot": "1",
            "type": "t_mapping(t_address,t_uint256)"
          },
          {
            "astId": 9260,
            "contract": "contracts/strategies/_poc/qv-impact-stream/QVImpactStreamStrategy.sol:QVImpactStreamStrategy",
            "label": "votesCastToRecipient",
            "offset": 0,
            "slot": "2",
            "type": "t_mapping(t_address,t_uint256)"
          }
        ]
      },
      "t_struct(Metadata)2918_storage": {
        "encoding": "inplace",
        "label": "struct Metadata",
        "numberOfBytes": "64",
        "members": [
          {
            "astId": 2914,
            "contract": "contracts/strategies/_poc/qv-impact-stream/QVImpactStreamStrategy.sol:QVImpactStreamStrategy",
            "label": "protocol",
            "offset": 0,
            "slot": "0",
            "type": "t_uint256"
          },
          {
            "astId": 2917,
            "contract": "contracts/strategies/_poc/qv-impact-stream/QVImpactStreamStrategy.sol:QVImpactStreamStrategy",
            "label": "pointer",
            "offset": 0,
            "slot": "1",
            "type": "t_string_storage"
          }
        ]
      },
      "t_struct(Recipient)9250_storage": {
        "encoding": "inplace",
        "label": "struct QVImpactStreamStrategy.Recipient",
        "numberOfBytes": "192",
        "members": [
          {
            "astId": 9239,
            "contract": "contracts/strategies/_poc/qv-impact-stream/QVImpactStreamStrategy.sol:QVImpactStreamStrategy",
            "label": "totalVotesReceived",
            "offset": 0,
            "slot": "0",
            "type": "t_uint256"
          },
          {
            "astId": 9241,
            "contract": "contracts/strategies/_poc/qv-impact-stream/QVImpactStreamStrategy.sol:QVImpactStreamStrategy",
            "label": "requestedAmount",
            "offset": 0,
            "slot": "1",
            "type": "t_uint256"
          },
          {
            "astId": 9243,
            "contract": "contracts/strategies/_poc/qv-impact-stream/QVImpactStreamStrategy.sol:QVImpactStreamStrategy",
            "label": "recipientAddress",
            "offset": 0,
            "slot": "2",
            "type": "t_address"
          },
          {
            "astId": 9246,
            "contract": "contracts/strategies/_poc/qv-impact-stream/QVImpactStreamStrategy.sol:QVImpactStreamStrategy",
            "label": "metadata",
            "offset": 0,
            "slot": "3",
            "type": "t_struct(Metadata)2918_storage"
          },
          {
            "astId": 9249,
            "contract": "contracts/strategies/_poc/qv-impact-stream/QVImpactStreamStrategy.sol:QVImpactStreamStrategy",
            "label": "recipientStatus",
            "offset": 0,
            "slot": "5",
            "type": "t_enum(Status)2638"
          }
        ]
      },
      "t_uint256": {
        "encoding": "inplace",
        "label": "uint256",
        "numberOfBytes": "32"
      },
      "t_uint64": {
        "encoding": "inplace",
        "label": "uint64",
        "numberOfBytes": "8"
      }
    }
  },
  "id": 21
}