{
  "abi": [
    {
      "inputs": [],
      "name": "ALLOCATION_ACTIVE",
      "type": "error"
    },
    {
      "inputs": [],
      "name": "ALLOCATION_NOT_ACTIVE",
      "type": "error"
    },
    {
      "inputs": [],
      "name": "ALLOCATION_NOT_ENDED",
      "type": "error"
    },
    {
      "inputs": [],
      "name": "ALREADY_INITIALIZED",
      "type": "error"
    },
    {
      "inputs": [],
      "name": "AMOUNT_MISMATCH",
      "type": "error"
    },
    {
      "inputs": [],
      "name": "ANCHOR_ERROR",
      "type": "error"
    },
    {
      "inputs": [],
      "name": "ARRAY_MISMATCH",
      "type": "error"
    },
    {
      "inputs": [],
      "name": "INVALID",
      "type": "error"
    },
    {
      "inputs": [],
      "name": "INVALID_ADDRESS",
      "type": "error"
    },
    {
      "inputs": [],
      "name": "INVALID_FEE",
      "type": "error"
    },
    {
      "inputs": [],
      "name": "INVALID_METADATA",
      "type": "error"
    },
    {
      "inputs": [],
      "name": "INVALID_REGISTRATION",
      "type": "error"
    },
    {
      "inputs": [],
      "name": "IS_APPROVED_STRATEGY",
      "type": "error"
    },
    {
      "inputs": [],
      "name": "MISMATCH",
      "type": "error"
    },
    {
      "inputs": [],
      "name": "NONCE_NOT_AVAILABLE",
      "type": "error"
    },
    {
      "inputs": [],
      "name": "NOT_APPROVED_STRATEGY",
      "type": "error"
    },
    {
      "inputs": [],
      "name": "NOT_ENOUGH_FUNDS",
      "type": "error"
    },
    {
      "inputs": [],
      "name": "NOT_INITIALIZED",
      "type": "error"
    },
    {
      "inputs": [],
      "name": "NOT_PENDING_OWNER",
      "type": "error"
    },
    {
      "inputs": [],
      "name": "POOL_ACTIVE",
      "type": "error"
    },
    {
      "inputs": [],
      "name": "POOL_INACTIVE",
      "type": "error"
    },
    {
      "inputs": [],
      "name": "RECIPIENT_ALREADY_ACCEPTED",
      "type": "error"
    },
    {
      "inputs": [
        {
          "internalType": "address",
          "name": "recipientId",
          "type": "address"
        }
      ],
      "name": "RECIPIENT_ERROR",
      "type": "error"
    },
    {
      "inputs": [],
      "name": "RECIPIENT_NOT_ACCEPTED",
      "type": "error"
    },
    {
      "inputs": [],
      "name": "REGISTRATION_NOT_ACTIVE",
      "type": "error"
    },
    {
      "inputs": [],
      "name": "UNAUTHORIZED",
      "type": "error"
    },
    {
      "inputs": [],
      "name": "ZERO_ADDRESS",
      "type": "error"
    },
    {
      "anonymous": false,
      "inputs": [
        {
          "indexed": false,
          "internalType": "uint8",
          "name": "version",
          "type": "uint8"
        }
      ],
      "name": "Initialized",
      "type": "event"
    },
    {
      "anonymous": false,
      "inputs": [
        {
          "indexed": true,
          "internalType": "bytes32",
          "name": "profileId",
          "type": "bytes32"
        },
        {
          "indexed": false,
          "internalType": "uint256",
          "name": "nonce",
          "type": "uint256"
        },
        {
          "indexed": false,
          "internalType": "string",
          "name": "name",
          "type": "string"
        },
        {
          "components": [
            {
              "internalType": "uint256",
              "name": "protocol",
              "type": "uint256"
            },
            {
              "internalType": "string",
              "name": "pointer",
              "type": "string"
            }
          ],
          "indexed": false,
          "internalType": "struct Metadata",
          "name": "metadata",
          "type": "tuple"
        },
        {
          "indexed": false,
          "internalType": "address",
          "name": "owner",
          "type": "address"
        },
        {
          "indexed": false,
          "internalType": "address",
          "name": "anchor",
          "type": "address"
        }
      ],
      "name": "ProfileCreated",
      "type": "event"
    },
    {
      "anonymous": false,
      "inputs": [
        {
          "indexed": true,
          "internalType": "bytes32",
          "name": "profileId",
          "type": "bytes32"
        },
        {
          "components": [
            {
              "internalType": "uint256",
              "name": "protocol",
              "type": "uint256"
            },
            {
              "internalType": "string",
              "name": "pointer",
              "type": "string"
            }
          ],
          "indexed": false,
          "internalType": "struct Metadata",
          "name": "metadata",
          "type": "tuple"
        }
      ],
      "name": "ProfileMetadataUpdated",
      "type": "event"
    },
    {
      "anonymous": false,
      "inputs": [
        {
          "indexed": true,
          "internalType": "bytes32",
          "name": "profileId",
          "type": "bytes32"
        },
        {
          "indexed": false,
          "internalType": "string",
          "name": "name",
          "type": "string"
        },
        {
          "indexed": false,
          "internalType": "address",
          "name": "anchor",
          "type": "address"
        }
      ],
      "name": "ProfileNameUpdated",
      "type": "event"
    },
    {
      "anonymous": false,
      "inputs": [
        {
          "indexed": true,
          "internalType": "bytes32",
          "name": "profileId",
          "type": "bytes32"
        },
        {
          "indexed": false,
          "internalType": "address",
          "name": "owner",
          "type": "address"
        }
      ],
      "name": "ProfileOwnerUpdated",
      "type": "event"
    },
    {
      "anonymous": false,
      "inputs": [
        {
          "indexed": true,
          "internalType": "bytes32",
          "name": "profileId",
          "type": "bytes32"
        },
        {
          "indexed": false,
          "internalType": "address",
          "name": "pendingOwner",
          "type": "address"
        }
      ],
      "name": "ProfilePendingOwnerUpdated",
      "type": "event"
    },
    {
      "anonymous": false,
      "inputs": [
        {
          "indexed": true,
          "internalType": "bytes32",
          "name": "role",
          "type": "bytes32"
        },
        {
          "indexed": true,
          "internalType": "bytes32",
          "name": "previousAdminRole",
          "type": "bytes32"
        },
        {
          "indexed": true,
          "internalType": "bytes32",
          "name": "newAdminRole",
          "type": "bytes32"
        }
      ],
      "name": "RoleAdminChanged",
      "type": "event"
    },
    {
      "anonymous": false,
      "inputs": [
        {
          "indexed": true,
          "internalType": "bytes32",
          "name": "role",
          "type": "bytes32"
        },
        {
          "indexed": true,
          "internalType": "address",
          "name": "account",
          "type": "address"
        },
        {
          "indexed": true,
          "internalType": "address",
          "name": "sender",
          "type": "address"
        }
      ],
      "name": "RoleGranted",
      "type": "event"
    },
    {
      "anonymous": false,
      "inputs": [
        {
          "indexed": true,
          "internalType": "bytes32",
          "name": "role",
          "type": "bytes32"
        },
        {
          "indexed": true,
          "internalType": "address",
          "name": "account",
          "type": "address"
        },
        {
          "indexed": true,
          "internalType": "address",
          "name": "sender",
          "type": "address"
        }
      ],
      "name": "RoleRevoked",
      "type": "event"
    },
    {
      "inputs": [],
      "name": "ALLO_OWNER",
      "outputs": [
        {
          "internalType": "bytes32",
          "name": "",
          "type": "bytes32"
        }
      ],
      "stateMutability": "view",
      "type": "function"
    },
    {
      "inputs": [],
      "name": "DEFAULT_ADMIN_ROLE",
      "outputs": [
        {
          "internalType": "bytes32",
          "name": "",
          "type": "bytes32"
        }
      ],
      "stateMutability": "view",
      "type": "function"
    },
    {
      "inputs": [],
      "name": "NATIVE",
      "outputs": [
        {
          "internalType": "address",
          "name": "",
          "type": "address"
        }
      ],
      "stateMutability": "view",
      "type": "function"
    },
    {
      "inputs": [
        {
          "internalType": "bytes32",
          "name": "_profileId",
          "type": "bytes32"
        }
      ],
      "name": "acceptProfileOwnership",
      "outputs": [],
      "stateMutability": "nonpayable",
      "type": "function"
    },
    {
      "inputs": [
        {
          "internalType": "bytes32",
          "name": "_profileId",
          "type": "bytes32"
        },
        {
          "internalType": "address[]",
          "name": "_members",
          "type": "address[]"
        }
      ],
      "name": "addMembers",
      "outputs": [],
      "stateMutability": "nonpayable",
      "type": "function"
    },
    {
      "inputs": [
        {
          "internalType": "address",
          "name": "",
          "type": "address"
        }
      ],
      "name": "anchorToProfileId",
      "outputs": [
        {
          "internalType": "bytes32",
          "name": "",
          "type": "bytes32"
        }
      ],
      "stateMutability": "view",
      "type": "function"
    },
    {
      "inputs": [
        {
          "internalType": "uint256",
          "name": "_nonce",
          "type": "uint256"
        },
        {
          "internalType": "string",
          "name": "_name",
          "type": "string"
        },
        {
          "components": [
            {
              "internalType": "uint256",
              "name": "protocol",
              "type": "uint256"
            },
            {
              "internalType": "string",
              "name": "pointer",
              "type": "string"
            }
          ],
          "internalType": "struct Metadata",
          "name": "_metadata",
          "type": "tuple"
        },
        {
          "internalType": "address",
          "name": "_owner",
          "type": "address"
        },
        {
          "internalType": "address[]",
          "name": "_members",
          "type": "address[]"
        }
      ],
      "name": "createProfile",
      "outputs": [
        {
          "internalType": "bytes32",
          "name": "",
          "type": "bytes32"
        }
      ],
      "stateMutability": "nonpayable",
      "type": "function"
    },
    {
      "inputs": [
        {
          "internalType": "address",
          "name": "_anchor",
          "type": "address"
        }
      ],
      "name": "getProfileByAnchor",
      "outputs": [
        {
          "components": [
            {
              "internalType": "bytes32",
              "name": "id",
              "type": "bytes32"
            },
            {
              "internalType": "uint256",
              "name": "nonce",
              "type": "uint256"
            },
            {
              "internalType": "string",
              "name": "name",
              "type": "string"
            },
            {
              "components": [
                {
                  "internalType": "uint256",
                  "name": "protocol",
                  "type": "uint256"
                },
                {
                  "internalType": "string",
                  "name": "pointer",
                  "type": "string"
                }
              ],
              "internalType": "struct Metadata",
              "name": "metadata",
              "type": "tuple"
            },
            {
              "internalType": "address",
              "name": "owner",
              "type": "address"
            },
            {
              "internalType": "address",
              "name": "anchor",
              "type": "address"
            }
          ],
          "internalType": "struct IRegistry.Profile",
          "name": "",
          "type": "tuple"
        }
      ],
      "stateMutability": "view",
      "type": "function"
    },
    {
      "inputs": [
        {
          "internalType": "bytes32",
          "name": "_profileId",
          "type": "bytes32"
        }
      ],
      "name": "getProfileById",
      "outputs": [
        {
          "components": [
            {
              "internalType": "bytes32",
              "name": "id",
              "type": "bytes32"
            },
            {
              "internalType": "uint256",
              "name": "nonce",
              "type": "uint256"
            },
            {
              "internalType": "string",
              "name": "name",
              "type": "string"
            },
            {
              "components": [
                {
                  "internalType": "uint256",
                  "name": "protocol",
                  "type": "uint256"
                },
                {
                  "internalType": "string",
                  "name": "pointer",
                  "type": "string"
                }
              ],
              "internalType": "struct Metadata",
              "name": "metadata",
              "type": "tuple"
            },
            {
              "internalType": "address",
              "name": "owner",
              "type": "address"
            },
            {
              "internalType": "address",
              "name": "anchor",
              "type": "address"
            }
          ],
          "internalType": "struct IRegistry.Profile",
          "name": "",
          "type": "tuple"
        }
      ],
      "stateMutability": "view",
      "type": "function"
    },
    {
      "inputs": [
        {
          "internalType": "bytes32",
          "name": "role",
          "type": "bytes32"
        }
      ],
      "name": "getRoleAdmin",
      "outputs": [
        {
          "internalType": "bytes32",
          "name": "",
          "type": "bytes32"
        }
      ],
      "stateMutability": "view",
      "type": "function"
    },
    {
      "inputs": [
        {
          "internalType": "bytes32",
          "name": "role",
          "type": "bytes32"
        },
        {
          "internalType": "address",
          "name": "account",
          "type": "address"
        }
      ],
      "name": "grantRole",
      "outputs": [],
      "stateMutability": "nonpayable",
      "type": "function"
    },
    {
      "inputs": [
        {
          "internalType": "bytes32",
          "name": "role",
          "type": "bytes32"
        },
        {
          "internalType": "address",
          "name": "account",
          "type": "address"
        }
      ],
      "name": "hasRole",
      "outputs": [
        {
          "internalType": "bool",
          "name": "",
          "type": "bool"
        }
      ],
      "stateMutability": "view",
      "type": "function"
    },
    {
      "inputs": [
        {
          "internalType": "address",
          "name": "_owner",
          "type": "address"
        }
      ],
      "name": "initialize",
      "outputs": [],
      "stateMutability": "nonpayable",
      "type": "function"
    },
    {
      "inputs": [
        {
          "internalType": "bytes32",
          "name": "_profileId",
          "type": "bytes32"
        },
        {
          "internalType": "address",
          "name": "_member",
          "type": "address"
        }
      ],
      "name": "isMemberOfProfile",
      "outputs": [
        {
          "internalType": "bool",
          "name": "",
          "type": "bool"
        }
      ],
      "stateMutability": "view",
      "type": "function"
    },
    {
      "inputs": [
        {
          "internalType": "bytes32",
          "name": "_profileId",
          "type": "bytes32"
        },
        {
          "internalType": "address",
          "name": "_owner",
          "type": "address"
        }
      ],
      "name": "isOwnerOfProfile",
      "outputs": [
        {
          "internalType": "bool",
          "name": "",
          "type": "bool"
        }
      ],
      "stateMutability": "view",
      "type": "function"
    },
    {
      "inputs": [
        {
          "internalType": "bytes32",
          "name": "_profileId",
          "type": "bytes32"
        },
        {
          "internalType": "address",
          "name": "_account",
          "type": "address"
        }
      ],
      "name": "isOwnerOrMemberOfProfile",
      "outputs": [
        {
          "internalType": "bool",
          "name": "",
          "type": "bool"
        }
      ],
      "stateMutability": "view",
      "type": "function"
    },
    {
      "inputs": [
        {
          "internalType": "bytes32",
          "name": "",
          "type": "bytes32"
        }
      ],
      "name": "profileIdToPendingOwner",
      "outputs": [
        {
          "internalType": "address",
          "name": "",
          "type": "address"
        }
      ],
      "stateMutability": "view",
      "type": "function"
    },
    {
      "inputs": [
        {
          "internalType": "bytes32",
          "name": "",
          "type": "bytes32"
        }
      ],
      "name": "profilesById",
      "outputs": [
        {
          "internalType": "bytes32",
          "name": "id",
          "type": "bytes32"
        },
        {
          "internalType": "uint256",
          "name": "nonce",
          "type": "uint256"
        },
        {
          "internalType": "string",
          "name": "name",
          "type": "string"
        },
        {
          "components": [
            {
              "internalType": "uint256",
              "name": "protocol",
              "type": "uint256"
            },
            {
              "internalType": "string",
              "name": "pointer",
              "type": "string"
            }
          ],
          "internalType": "struct Metadata",
          "name": "metadata",
          "type": "tuple"
        },
        {
          "internalType": "address",
          "name": "owner",
          "type": "address"
        },
        {
          "internalType": "address",
          "name": "anchor",
          "type": "address"
        }
      ],
      "stateMutability": "view",
      "type": "function"
    },
    {
      "inputs": [
        {
          "internalType": "address",
          "name": "_token",
          "type": "address"
        },
        {
          "internalType": "address",
          "name": "_recipient",
          "type": "address"
        }
      ],
      "name": "recoverFunds",
      "outputs": [],
      "stateMutability": "nonpayable",
      "type": "function"
    },
    {
      "inputs": [
        {
          "internalType": "bytes32",
          "name": "_profileId",
          "type": "bytes32"
        },
        {
          "internalType": "address[]",
          "name": "_members",
          "type": "address[]"
        }
      ],
      "name": "removeMembers",
      "outputs": [],
      "stateMutability": "nonpayable",
      "type": "function"
    },
    {
      "inputs": [
        {
          "internalType": "bytes32",
          "name": "role",
          "type": "bytes32"
        },
        {
          "internalType": "address",
          "name": "account",
          "type": "address"
        }
      ],
      "name": "renounceRole",
      "outputs": [],
      "stateMutability": "nonpayable",
      "type": "function"
    },
    {
      "inputs": [
        {
          "internalType": "bytes32",
          "name": "role",
          "type": "bytes32"
        },
        {
          "internalType": "address",
          "name": "account",
          "type": "address"
        }
      ],
      "name": "revokeRole",
      "outputs": [],
      "stateMutability": "nonpayable",
      "type": "function"
    },
    {
      "inputs": [
        {
          "internalType": "bytes4",
          "name": "interfaceId",
          "type": "bytes4"
        }
      ],
      "name": "supportsInterface",
      "outputs": [
        {
          "internalType": "bool",
          "name": "",
          "type": "bool"
        }
      ],
      "stateMutability": "view",
      "type": "function"
    },
    {
      "inputs": [
        {
          "internalType": "bytes32",
          "name": "_profileId",
          "type": "bytes32"
        },
        {
          "components": [
            {
              "internalType": "uint256",
              "name": "protocol",
              "type": "uint256"
            },
            {
              "internalType": "string",
              "name": "pointer",
              "type": "string"
            }
          ],
          "internalType": "struct Metadata",
          "name": "_metadata",
          "type": "tuple"
        }
      ],
      "name": "updateProfileMetadata",
      "outputs": [],
      "stateMutability": "nonpayable",
      "type": "function"
    },
    {
      "inputs": [
        {
          "internalType": "bytes32",
          "name": "_profileId",
          "type": "bytes32"
        },
        {
          "internalType": "string",
          "name": "_name",
          "type": "string"
        }
      ],
      "name": "updateProfileName",
      "outputs": [
        {
          "internalType": "address",
          "name": "anchor",
          "type": "address"
        }
      ],
      "stateMutability": "nonpayable",
      "type": "function"
    },
    {
      "inputs": [
        {
          "internalType": "bytes32",
          "name": "_profileId",
          "type": "bytes32"
        },
        {
          "internalType": "address",
          "name": "_pendingOwner",
          "type": "address"
        }
      ],
      "name": "updateProfilePendingOwner",
      "outputs": [],
      "stateMutability": "nonpayable",
      "type": "function"
    }
  ],
  "bytecode": {
    "object": "0x608060405234801561001057600080fd5b50612883806100206000396000f3fe608060405234801561001057600080fd5b50600436106101ae5760003560e01c806350d005e0116100ee578063c4d66de811610097578063d547741f11610071578063d547741f1461040b578063dd93da431461041e578063e0cf1e4c14610431578063ee8881961461044457600080fd5b8063c4d66de8146103be578063cf189ff2146103d1578063cfda7e0a146103e457600080fd5b8063a0cf0aea116100c8578063a0cf0aea14610388578063a217fddf146103a3578063ac402839146103ab57600080fd5b806350d005e0146102fd5780635e8a79151461033e57806391d148541461035157600080fd5b80632f2ff15d1161015b5780633a92f65f116101355780633a92f65f146102a45780633b66dacd146102b75780634756487f146102ca5780635063f361146102ea57600080fd5b80632f2ff15d1461026b57806336568abe1461027e57806339b86b8c1461029157600080fd5b8063248a9ca31161018c578063248a9ca3146102125780632497f3c61461024357806324ae6a271461025857600080fd5b80630114cf0a146101b357806301ffc9a7146101dc5780630ec1fbac146101ff575b600080fd5b6101c66101c1366004611aae565b610469565b6040516101d39190611b3e565b60405180910390f35b6101ef6101ea366004611bbb565b61060e565b60405190151581526020016101d3565b6101ef61020d366004611c19565b6106a7565b610235610220366004611aae565b60009081526020819052604090206001015490565b6040519081526020016101d3565b610256610251366004611aae565b6106ba565b005b610256610266366004611c45565b610798565b610256610279366004611c19565b6108aa565b61025661028c366004611c19565b6108d4565b6101ef61029f366004611c19565b610965565b6102356102b2366004611e1c565b61098a565b6102566102c5366004611c19565b610bed565b6102356102d8366004611ebf565b60026020526000908152604090205481565b6102566102f8366004611eda565b610c61565b61032661030b366004611aae565b6004602052600090815260409020546001600160a01b031681565b6040516001600160a01b0390911681526020016101d3565b6101ef61034c366004611c19565b610ce3565b6101ef61035f366004611c19565b6000918252602082815260408084206001600160a01b0393909316845291905290205460ff1690565b61032673eeeeeeeeeeeeeeeeeeeeeeeeeeeeeeeeeeeeeeee81565b610235600081565b6102566103b9366004611f21565b610d13565b6102566103cc366004611ebf565b610d7e565b6103266103df366004611f5e565b610eba565b6102357f815b5a78dc333d344c7df9da23c04dbd432015cc701876ddb9ffe850e688274781565b610256610419366004611c19565b610f80565b6101c661042c366004611ebf565b610fa5565b61025661043f366004611eda565b61115d565b610457610452366004611aae565b61119f565b6040516101d396959493929190611f9b565b610471611a4d565b600360008381526020019081526020016000206040518060c001604052908160008201548152602001600182015481526020016002820180546104b390611ff3565b80601f01602080910402602001604051908101604052809291908181526020018280546104df90611ff3565b801561052c5780601f106105015761010080835404028352916020019161052c565b820191906000526020600020905b81548152906001019060200180831161050f57829003601f168201915b50505050508152602001600382016040518060400160405290816000820154815260200160018201805461055f90611ff3565b80601f016020809104026020016040519081016040528092919081815260200182805461058b90611ff3565b80156105d85780601f106105ad576101008083540402835291602001916105d8565b820191906000526020600020905b8154815290600101906020018083116105bb57829003601f168201915b50505091909252505050815260058201546001600160a01b03908116602083015260069092015490911660409091015292915050565b60007fffffffff0000000000000000000000000000000000000000000000000000000082167f7965db0b0000000000000000000000000000000000000000000000000000000014806106a157507f01ffc9a7000000000000000000000000000000000000000000000000000000007fffffffff000000000000000000000000000000000000000000000000000000008316145b92915050565b60006106b3838361130f565b9392505050565b60008181526003602090815260408083206004909252909120546001600160a01b0316338114610716576040517fb4d48c1000000000000000000000000000000000000000000000000000000000815260040160405180910390fd5b6005820180546001600160a01b0383811673ffffffffffffffffffffffffffffffffffffffff199283161783556000868152600460209081526040918290208054909416909355925492519216825284917ffd9ad63830df7bdf1586c8293dc88a30864cb43e9037e7afdb2c7210facf217d91015b60405180910390a2505050565b7f815b5a78dc333d344c7df9da23c04dbd432015cc701876ddb9ffe850e68827476107c281611338565b6001600160a01b0382166107e95760405163538ba4f960e01b815260040160405180910390fd5b60006001600160a01b03841673eeeeeeeeeeeeeeeeeeeeeeeeeeeeeeeeeeeeeeee14610895576040517f70a082310000000000000000000000000000000000000000000000000000000081523060048201526001600160a01b038516906370a0823190602401602060405180830381865afa15801561086c573d6000803e3d6000fd5b505050506040513d601f19601f82011682018060405250810190610890919061202d565b610897565b475b90506108a4848483611345565b50505050565b6000828152602081905260409020600101546108c581611338565b6108cf838361138a565b505050565b6001600160a01b03811633146109575760405162461bcd60e51b815260206004820152602f60248201527f416363657373436f6e74726f6c3a2063616e206f6e6c792072656e6f756e636560448201527f20726f6c657320666f722073656c66000000000000000000000000000000000060648201526084015b60405180910390fd5b6109618282611428565b5050565b6000828152600360205260408120600501546001600160a01b038381169116146106b3565b600080610996876114a7565b6000818152600360205260409020600601549091506001600160a01b0316156109eb576040517f527e059000000000000000000000000000000000000000000000000000000000815260040160405180910390fd5b6001600160a01b038416610a125760405163538ba4f960e01b815260040160405180910390fd5b60006040518060c00160405280838152602001898152602001888152602001878152602001866001600160a01b03168152602001610a50848a6114f4565b6001600160a01b03169052600083815260036020908152604091829020835181559083015160018201559082015191925082916002820190610a929082612094565b50606082015180516003830190815560208201516004840190610ab59082612094565b505050608082015160058201805473ffffffffffffffffffffffffffffffffffffffff199081166001600160a01b039384161790915560a0938401516006909301805490911692821692909217909155908201511660009081526002602052604081208390558451905b81811015610b8b576000868281518110610b3b57610b3b612154565b6020026020010151905060006001600160a01b0316816001600160a01b031603610b785760405163538ba4f960e01b815260040160405180910390fd5b610b82858261138a565b50600101610b1f565b50827f1e28352ff00d67474b59b87e6817d6ba65daa0130446266db8640214d8b8060983602001518460400151856060015186608001518760a00151604051610bd895949392919061216a565b60405180910390a25090979650505050505050565b81610bf781611657565b600083815260046020908152604091829020805473ffffffffffffffffffffffffffffffffffffffff19166001600160a01b038616908117909155915191825284917f21fe5cd61055ef88f636a264885b927f3ec2b380b6053a6b4a7495a6336a95c8910161078b565b81610c6b81611657565b815160005b81811015610cdc576000848281518110610c8c57610c8c612154565b6020026020010151905060006001600160a01b0316816001600160a01b031603610cc95760405163538ba4f960e01b815260040160405180910390fd5b610cd3868261138a565b50600101610c70565b5050505050565b6000828152600360205260408120600501546001600160a01b03838116911614806106b357506106b3838361130f565b81610d1d81611657565b6000838152600360208181526040909220845191810191825591840151849260040190610d4a9082612094565b50905050827fa366054a574e4f861cb295fd23b5440c5119c1ba329c36f5dfeb5643537cb0f38360405161078b91906121bb565b60018054610100900460ff16158015610d9e575060015460ff8083169116105b610e105760405162461bcd60e51b815260206004820152602e60248201527f496e697469616c697a61626c653a20636f6e747261637420697320616c72656160448201527f647920696e697469616c697a6564000000000000000000000000000000000000606482015260840161094e565b6001805461ffff191660ff8316176101001790556001600160a01b038216610e4b5760405163538ba4f960e01b815260040160405180910390fd5b610e757f815b5a78dc333d344c7df9da23c04dbd432015cc701876ddb9ffe850e68827478361138a565b6001805461ff001916905560405160ff821681527f7f26b83ff96e1f2b6a682f133852f6798a09c465da95921460cefb38474024989060200160405180910390a15050565b600082610ec681611657565b610ed084846114f4565b600085815260036020526040902090925060028101610eef8582612094565b506006810180546001600160a01b03908116600090815260026020526040808220829055835473ffffffffffffffffffffffffffffffffffffffff19169287169283179093559081528190208690555185907f54cd733148631b9ff1cb945f2d0dcd33c0692e154763bfa2f35e2d10a76c432f90610f7090879087906121ce565b60405180910390a2505092915050565b600082815260208190526040902060010154610f9b81611338565b6108cf8383611428565b610fad611a4d565b6001600160a01b0382166000908152600260208181526040808420548085526003835293819020815160c0810183528154815260018201549381019390935292830180549293929184019161100190611ff3565b80601f016020809104026020016040519081016040528092919081815260200182805461102d90611ff3565b801561107a5780601f1061104f5761010080835404028352916020019161107a565b820191906000526020600020905b81548152906001019060200180831161105d57829003601f168201915b5050505050815260200160038201604051806040016040529081600082015481526020016001820180546110ad90611ff3565b80601f01602080910402602001604051908101604052809291908181526020018280546110d990611ff3565b80156111265780601f106110fb57610100808354040283529160200191611126565b820191906000526020600020905b81548152906001019060200180831161110957829003601f168201915b50505091909252505050815260058201546001600160a01b0390811660208301526006909201549091166040909101529392505050565b8161116781611657565b815160005b81811015610cdc576111978585838151811061118a5761118a612154565b6020026020010151611428565b60010161116c565b600360205260009081526040902080546001820154600283018054929391926111c790611ff3565b80601f01602080910402602001604051908101604052809291908181526020018280546111f390611ff3565b80156112405780601f1061121557610100808354040283529160200191611240565b820191906000526020600020905b81548152906001019060200180831161122357829003601f168201915b505050505090806003016040518060400160405290816000820154815260200160018201805461126f90611ff3565b80601f016020809104026020016040519081016040528092919081815260200182805461129b90611ff3565b80156112e85780601f106112bd576101008083540402835291602001916112e8565b820191906000526020600020905b8154815290600101906020018083116112cb57829003601f168201915b50505091909252505050600582015460069092015490916001600160a01b03908116911686565b6000828152602081815260408083206001600160a01b038516845290915281205460ff166106b3565b61134281336116aa565b50565b7fffffffffffffffffffffffff11111111111111111111111111111111111111126001600160a01b0384160161137f576108cf828261171d565b6108cf838383611739565b6000828152602081815260408083206001600160a01b038516845290915290205460ff16610961576000828152602081815260408083206001600160a01b03851684529091529020805460ff191660011790556113e43390565b6001600160a01b0316816001600160a01b0316837f2f8788117e7eff1d82e926ec794901d17c78024a50270940304540a733656f0d60405160405180910390a45050565b6000828152602081815260408083206001600160a01b038516845290915290205460ff1615610961576000828152602081815260408083206001600160a01b0385168085529252808320805460ff1916905551339285917ff6391f5c32d9c69d2a47ea670b442974b53935d1edc7fd64eb21e047a839171b9190a45050565b600081336040516020016114d792919091825260601b6bffffffffffffffffffffffff1916602082015260340190565b604051602081830303815290604052805190602001209050919050565b600080838360405160200161150a9291906121f9565b604051602081830303815290604052805190602001209050600061152d82611788565b90506001600160a01b0381163b156115e15784816001600160a01b03166308386eba6040518163ffffffff1660e01b8152600401602060405180830381865afa15801561157e573d6000803e3d6000fd5b505050506040513d601f19601f820116820180604052508101906115a2919061202d565b146115d9576040517f113b81f000000000000000000000000000000000000000000000000000000000815260040160405180910390fd5b80925061164f565b6000604051806020016115f390611aa1565b601f1982820381018352601f909101166040818152602082018990520160408051601f198184030181529082905261162e929160200161221f565b604051602081830303815290604052905061164b838260006117e0565b9350505b505092915050565b6000818152600360205260409020600501546001600160a01b03163314611342576040517f075fd2b100000000000000000000000000000000000000000000000000000000815260040160405180910390fd5b6000828152602081815260408083206001600160a01b038516845290915290205460ff16610961576116db8161185a565b6116e683602061186c565b6040516020016116f792919061224e565b60408051601f198184030181529082905262461bcd60e51b825261094e916004016122cf565b60008060008084865af16109615763b12d13eb6000526004601cfd5b81601452806034526fa9059cbb00000000000000000000000060005260206000604460106000875af13d15600160005114171661177e576390b8ec186000526004601cfd5b6000603452505050565b60006040513060005260ff600b53826020527f21c35dbe1b344a2488cf3321d6ce542f8e9f305544ff09e4993a62319a497c1f6040526055600b20601452806040525061d694600052600160345350506017601e2090565b60006f67363d3d37363d34f03d5260086018f3600052836010806000f5806118105763301164256000526004601cfd5b8060145261d69460005260016034536017601e20915060008085516020870186855af1611845576319b991a86000526004601cfd5b50803b6106b3576319b991a86000526004601cfd5b60606106a16001600160a01b03831660145b6060600061187b8360026122f8565b61188690600261230f565b67ffffffffffffffff81111561189e5761189e611c6f565b6040519080825280601f01601f1916602001820160405280156118c8576020820181803683370190505b5090507f3000000000000000000000000000000000000000000000000000000000000000816000815181106118ff576118ff612154565b60200101906001600160f81b031916908160001a9053507f78000000000000000000000000000000000000000000000000000000000000008160018151811061194a5761194a612154565b60200101906001600160f81b031916908160001a905350600061196e8460026122f8565b61197990600161230f565b90505b60018111156119fe577f303132333435363738396162636465660000000000000000000000000000000085600f16601081106119ba576119ba612154565b1a60f81b8282815181106119d0576119d0612154565b60200101906001600160f81b031916908160001a90535060049490941c936119f781612322565b905061197c565b5083156106b35760405162461bcd60e51b815260206004820181905260248201527f537472696e67733a20686578206c656e67746820696e73756666696369656e74604482015260640161094e565b6040518060c00160405280600080191681526020016000815260200160608152602001611a8d604051806040016040528060008152602001606081525090565b815260006020820181905260409091015290565b6105148061233a83390190565b600060208284031215611ac057600080fd5b5035919050565b60005b83811015611ae2578181015183820152602001611aca565b50506000910152565b60008151808452611b03816020860160208601611ac7565b601f01601f19169290920160200192915050565b805182526000602082015160406020850152611b366040850182611aeb565b949350505050565b6020815281516020820152602082015160408201526000604083015160c06060840152611b6e60e0840182611aeb565b90506060840151601f19848303016080850152611b8b8282611b17565b91505060808401516001600160a01b0380821660a08601528060a08701511660c086015250508091505092915050565b600060208284031215611bcd57600080fd5b81357fffffffff00000000000000000000000000000000000000000000000000000000811681146106b357600080fd5b80356001600160a01b0381168114611c1457600080fd5b919050565b60008060408385031215611c2c57600080fd5b82359150611c3c60208401611bfd565b90509250929050565b60008060408385031215611c5857600080fd5b611c6183611bfd565b9150611c3c60208401611bfd565b634e487b7160e01b600052604160045260246000fd5b604051601f8201601f1916810167ffffffffffffffff81118282101715611cae57611cae611c6f565b604052919050565b600082601f830112611cc757600080fd5b813567ffffffffffffffff811115611ce157611ce1611c6f565b611cf4601f8201601f1916602001611c85565b818152846020838601011115611d0957600080fd5b816020850160208301376000918101602001919091529392505050565b600060408284031215611d3857600080fd5b6040516040810167ffffffffffffffff8282108183111715611d5c57611d5c611c6f565b81604052829350843583526020850135915080821115611d7b57600080fd5b50611d8885828601611cb6565b6020830152505092915050565b600082601f830112611da657600080fd5b8135602067ffffffffffffffff821115611dc257611dc2611c6f565b8160051b611dd1828201611c85565b9283528481018201928281019087851115611deb57600080fd5b83870192505b84831015611e1157611e0283611bfd565b82529183019190830190611df1565b979650505050505050565b600080600080600060a08688031215611e3457600080fd5b85359450602086013567ffffffffffffffff80821115611e5357600080fd5b611e5f89838a01611cb6565b95506040880135915080821115611e7557600080fd5b611e8189838a01611d26565b9450611e8f60608901611bfd565b93506080880135915080821115611ea557600080fd5b50611eb288828901611d95565b9150509295509295909350565b600060208284031215611ed157600080fd5b6106b382611bfd565b60008060408385031215611eed57600080fd5b82359150602083013567ffffffffffffffff811115611f0b57600080fd5b611f1785828601611d95565b9150509250929050565b60008060408385031215611f3457600080fd5b82359150602083013567ffffffffffffffff811115611f5257600080fd5b611f1785828601611d26565b60008060408385031215611f7157600080fd5b82359150602083013567ffffffffffffffff811115611f8f57600080fd5b611f1785828601611cb6565b86815285602082015260c060408201526000611fba60c0830187611aeb565b8281036060840152611fcc8187611b17565b9150506001600160a01b03808516608084015280841660a084015250979650505050505050565b600181811c9082168061200757607f821691505b60208210810361202757634e487b7160e01b600052602260045260246000fd5b50919050565b60006020828403121561203f57600080fd5b5051919050565b601f8211156108cf57600081815260208120601f850160051c8101602086101561206d5750805b601f850160051c820191505b8181101561208c57828155600101612079565b505050505050565b815167ffffffffffffffff8111156120ae576120ae611c6f565b6120c2816120bc8454611ff3565b84612046565b602080601f8311600181146120f757600084156120df5750858301515b600019600386901b1c1916600185901b17855561208c565b600085815260208120601f198616915b8281101561212657888601518255948401946001909101908401612107565b50858210156121445787850151600019600388901b60f8161c191681555b5050505050600190811b01905550565b634e487b7160e01b600052603260045260246000fd5b85815260a06020820152600061218360a0830187611aeb565b82810360408401526121958187611b17565b9150506001600160a01b0380851660608401528084166080840152509695505050505050565b6020815260006106b36020830184611b17565b6040815260006121e16040830185611aeb565b90506001600160a01b03831660208301529392505050565b82815260008251612211816020850160208701611ac7565b919091016020019392505050565b60008351612231818460208801611ac7565b835190830190612245818360208801611ac7565b01949350505050565b7f416363657373436f6e74726f6c3a206163636f756e7420000000000000000000815260008351612286816017850160208801611ac7565b7f206973206d697373696e6720726f6c652000000000000000000000000000000060179184019182015283516122c3816028840160208801611ac7565b01602801949350505050565b6020815260006106b36020830184611aeb565b634e487b7160e01b600052601160045260246000fd5b80820281158282048414176106a1576106a16122e2565b808201808211156106a1576106a16122e2565b600081612331576123316122e2565b50600019019056fe60c060405234801561001057600080fd5b5060405161051438038061051483398101604081905261002f9161003b565b3360805260a052610054565b60006020828403121561004d57600080fd5b5051919050565b60805160a05161048f610085600039600081816056015261012c015260008181609d015261015b015261048f6000f3fe6080604052600436106100385760003560e01c806308386eba146100445780637b1039991461008b578063b61d27f6146100d757600080fd5b3661003f57005b600080fd5b34801561005057600080fd5b506100787f000000000000000000000000000000000000000000000000000000000000000081565b6040519081526020015b60405180910390f35b34801561009757600080fd5b506100bf7f000000000000000000000000000000000000000000000000000000000000000081565b6040516001600160a01b039091168152602001610082565b3480156100e357600080fd5b506100f76100f23660046102e4565b610104565b60405161008291906103e1565b6040517f39b86b8c0000000000000000000000000000000000000000000000000000000081527f000000000000000000000000000000000000000000000000000000000000000060048201523360248201526060907f00000000000000000000000000000000000000000000000000000000000000006001600160a01b0316906339b86b8c90604401602060405180830381865afa1580156101aa573d6000803e3d6000fd5b505050506040513d601f19601f820116820180604052508101906101ce9190610414565b610204576040517f075fd2b100000000000000000000000000000000000000000000000000000000815260040160405180910390fd5b6001600160a01b03841661022b576040516384aed38d60e01b815260040160405180910390fd5b600080856001600160a01b03168585604051610247919061043d565b60006040518083038185875af1925050503d8060008114610284576040519150601f19603f3d011682016040523d82523d6000602084013e610289565b606091505b5091509150816102ac576040516384aed38d60e01b815260040160405180910390fd5b95945050505050565b7f4e487b7100000000000000000000000000000000000000000000000000000000600052604160045260246000fd5b6000806000606084860312156102f957600080fd5b83356001600160a01b038116811461031057600080fd5b925060208401359150604084013567ffffffffffffffff8082111561033457600080fd5b818601915086601f83011261034857600080fd5b81358181111561035a5761035a6102b5565b604051601f8201601f19908116603f01168101908382118183101715610382576103826102b5565b8160405282815289602084870101111561039b57600080fd5b8260208601602083013760006020848301015280955050505050509250925092565b60005b838110156103d85781810151838201526020016103c0565b50506000910152565b60208152600082518060208401526104008160408501602087016103bd565b601f01601f19169190910160400192915050565b60006020828403121561042657600080fd5b8151801515811461043657600080fd5b9392505050565b6000825161044f8184602087016103bd565b919091019291505056fea2646970667358221220aa100b83fb19ccc073598763fec0ad4142ced1539e4f7f1041ec129317f58f4d64736f6c63430008130033a2646970667358221220665a90d5cae55c4fac5e3505ea0209c132ecdce5ef6cd4ffe82354a318ffead564736f6c63430008130033",
    "linkReferences": {}
  },
  "methodIdentifiers": {
    "ALLO_OWNER()": "cfda7e0a",
    "DEFAULT_ADMIN_ROLE()": "a217fddf",
    "NATIVE()": "a0cf0aea",
    "acceptProfileOwnership(bytes32)": "2497f3c6",
    "addMembers(bytes32,address[])": "5063f361",
    "anchorToProfileId(address)": "4756487f",
    "createProfile(uint256,string,(uint256,string),address,address[])": "3a92f65f",
    "getProfileByAnchor(address)": "dd93da43",
    "getProfileById(bytes32)": "0114cf0a",
    "getRoleAdmin(bytes32)": "248a9ca3",
    "grantRole(bytes32,address)": "2f2ff15d",
    "hasRole(bytes32,address)": "91d14854",
    "initialize(address)": "c4d66de8",
    "isMemberOfProfile(bytes32,address)": "0ec1fbac",
    "isOwnerOfProfile(bytes32,address)": "39b86b8c",
    "isOwnerOrMemberOfProfile(bytes32,address)": "5e8a7915",
    "profileIdToPendingOwner(bytes32)": "50d005e0",
    "profilesById(bytes32)": "ee888196",
    "recoverFunds(address,address)": "24ae6a27",
    "removeMembers(bytes32,address[])": "e0cf1e4c",
    "renounceRole(bytes32,address)": "36568abe",
    "revokeRole(bytes32,address)": "d547741f",
    "supportsInterface(bytes4)": "01ffc9a7",
    "updateProfileMetadata(bytes32,(uint256,string))": "ac402839",
    "updateProfileName(bytes32,string)": "cf189ff2",
    "updateProfilePendingOwner(bytes32,address)": "3b66dacd"
  },
  "storageLayout": {
    "storage": [
      {
        "astId": 62501,
        "contract": "contracts/core/Registry.sol:Registry",
        "label": "_roles",
        "offset": 0,
        "slot": "0",
        "type": "t_mapping(t_bytes32,t_struct(RoleData)62496_storage)"
      },
      {
        "astId": 61822,
        "contract": "contracts/core/Registry.sol:Registry",
        "label": "_initialized",
        "offset": 0,
        "slot": "1",
        "type": "t_uint8"
      },
      {
        "astId": 61825,
        "contract": "contracts/core/Registry.sol:Registry",
        "label": "_initializing",
        "offset": 1,
        "slot": "1",
        "type": "t_bool"
      },
      {
        "astId": 1409,
        "contract": "contracts/core/Registry.sol:Registry",
        "label": "anchorToProfileId",
        "offset": 0,
        "slot": "2",
        "type": "t_mapping(t_address,t_bytes32)"
      },
      {
        "astId": 1415,
        "contract": "contracts/core/Registry.sol:Registry",
        "label": "profilesById",
        "offset": 0,
        "slot": "3",
        "type": "t_mapping(t_bytes32,t_struct(Profile)2452_storage)"
      },
      {
        "astId": 1420,
        "contract": "contracts/core/Registry.sol:Registry",
        "label": "profileIdToPendingOwner",
        "offset": 0,
        "slot": "4",
        "type": "t_mapping(t_bytes32,t_address)"
      }
    ],
    "types": {
      "t_address": {
        "encoding": "inplace",
        "label": "address",
        "numberOfBytes": "20"
      },
      "t_bool": {
        "encoding": "inplace",
        "label": "bool",
        "numberOfBytes": "1"
      },
      "t_bytes32": {
        "encoding": "inplace",
        "label": "bytes32",
        "numberOfBytes": "32"
      },
      "t_mapping(t_address,t_bool)": {
        "encoding": "mapping",
        "key": "t_address",
        "label": "mapping(address => bool)",
        "numberOfBytes": "32",
        "value": "t_bool"
      },
      "t_mapping(t_address,t_bytes32)": {
        "encoding": "mapping",
        "key": "t_address",
        "label": "mapping(address => bytes32)",
        "numberOfBytes": "32",
        "value": "t_bytes32"
      },
      "t_mapping(t_bytes32,t_address)": {
        "encoding": "mapping",
        "key": "t_bytes32",
        "label": "mapping(bytes32 => address)",
        "numberOfBytes": "32",
        "value": "t_address"
      },
      "t_mapping(t_bytes32,t_struct(Profile)2452_storage)": {
        "encoding": "mapping",
        "key": "t_bytes32",
        "label": "mapping(bytes32 => struct IRegistry.Profile)",
        "numberOfBytes": "32",
        "value": "t_struct(Profile)2452_storage"
      },
      "t_mapping(t_bytes32,t_struct(RoleData)62496_storage)": {
        "encoding": "mapping",
        "key": "t_bytes32",
        "label": "mapping(bytes32 => struct AccessControl.RoleData)",
        "numberOfBytes": "32",
        "value": "t_struct(RoleData)62496_storage"
      },
      "t_string_storage": {
        "encoding": "bytes",
        "label": "string",
        "numberOfBytes": "32"
      },
      "t_struct(Metadata)2918_storage": {
        "encoding": "inplace",
        "label": "struct Metadata",
        "numberOfBytes": "64",
        "members": [
          {
            "astId": 2914,
            "contract": "contracts/core/Registry.sol:Registry",
            "label": "protocol",
            "offset": 0,
            "slot": "0",
            "type": "t_uint256"
          },
          {
            "astId": 2917,
            "contract": "contracts/core/Registry.sol:Registry",
            "label": "pointer",
            "offset": 0,
            "slot": "1",
            "type": "t_string_storage"
          }
        ]
      },
      "t_struct(Profile)2452_storage": {
        "encoding": "inplace",
        "label": "struct IRegistry.Profile",
        "numberOfBytes": "224",
        "members": [
          {
            "astId": 2440,
            "contract": "contracts/core/Registry.sol:Registry",
            "label": "id",
            "offset": 0,
            "slot": "0",
            "type": "t_bytes32"
          },
          {
            "astId": 2442,
            "contract": "contracts/core/Registry.sol:Registry",
            "label": "nonce",
            "offset": 0,
            "slot": "1",
            "type": "t_uint256"
          },
          {
            "astId": 2444,
            "contract": "contracts/core/Registry.sol:Registry",
            "label": "name",
            "offset": 0,
            "slot": "2",
            "type": "t_string_storage"
          },
          {
            "astId": 2447,
            "contract": "contracts/core/Registry.sol:Registry",
            "label": "metadata",
            "offset": 0,
            "slot": "3",
            "type": "t_struct(Metadata)2918_storage"
          },
          {
            "astId": 2449,
            "contract": "contracts/core/Registry.sol:Registry",
            "label": "owner",
            "offset": 0,
            "slot": "5",
            "type": "t_address"
          },
          {
            "astId": 2451,
            "contract": "contracts/core/Registry.sol:Registry",
            "label": "anchor",
            "offset": 0,
            "slot": "6",
            "type": "t_address"
          }
        ]
      },
      "t_struct(RoleData)62496_storage": {
        "encoding": "inplace",
        "label": "struct AccessControl.RoleData",
        "numberOfBytes": "64",
        "members": [
          {
            "astId": 62493,
            "contract": "contracts/core/Registry.sol:Registry",
            "label": "members",
            "offset": 0,
            "slot": "0",
            "type": "t_mapping(t_address,t_bool)"
          },
          {
            "astId": 62495,
            "contract": "contracts/core/Registry.sol:Registry",
            "label": "adminRole",
            "offset": 0,
            "slot": "1",
            "type": "t_bytes32"
          }
        ]
      },
      "t_uint256": {
        "encoding": "inplace",
        "label": "uint256",
        "numberOfBytes": "32"
      },
      "t_uint8": {
        "encoding": "inplace",
        "label": "uint8",
        "numberOfBytes": "1"
      }
    }
  },
  "id": 2
}